{
	"data": {
		"bytecode": {
			"linkReferences": {
				"new_sol/Verifier.sol": {
					"ZKTranscriptLib": [
						{
							"length": 20,
							"start": 323
						}
					]
				}
			},
			"object": "60e060405234801561000f575f5ffd5b5062080000608052601360a052601960c05260805160a05160c0516156a56100675f395f8181610103015261075a01525f81816108880152818161099501528181610ef40152610fa001525f6106fe01526156a55ff3fe608060405234801561000f575f5ffd5b5060043610610029575f3560e01c8063ea50d0e41461002d575b5f5ffd5b61004061003b366004614efe565b610054565b604051901515815260200160405180910390f35b5f6100626101fc6020614fda565b8414610081576040516376ba560560e11b815260040160405180910390fd5b5f61008a610221565b90505f6100978787610236565b9050601082604001516100aa9190614ff1565b84146100c95760405163fa06659360e01b815260040160405180910390fd5b815160405163995bf45760e01b81525f9173__$077b3547c5a51a80b1dbaf1a77839122a3$__9163995bf4579161012e9186918b918b91907f00000000000000000000000000000000000000000000000000000000000000009060019060040161518c565b610be060405180830381865af415801561014a573d5f5f3e3d5ffd5b505050506040513d601f19601f8201168201806040525081019061016e91906154a5565b90506101be8686808060200260200160405190810160405280939291908181526020018383602002808284375f9201919091525050855185516060810151608090910151919350915060016106e8565b815160a001526101ce828261086b565b6101eb576040516313f8744360e31b815260040160405180910390fd5b6101f6828483610a1d565b610213576040516352ec174560e11b815260040160405180910390fd5b506001979650505050505050565b610229614687565b6102316114c9565b905090565b61023e614a25565b5f805b60108110156102a05761026d85838661025b82602061554f565b9261026893929190615562565b611e03565b8351826010811061028057610280615589565b602002018181525050602082610296919061554f565b9150600101610241565b506102c48482856102b282608061554f565b926102bf93929190615562565b611e84565b60208301526102d460808261554f565b90506102e78482856102b282608061554f565b60408301526102f760808261554f565b905061030a8482856102b282608061554f565b606083015261031a60808261554f565b905061032d8482856102b282608061554f565b60a083015261033d60808261554f565b90506103508482856102b282608061554f565b60c083015261036060808261554f565b90506103738482856102b282608061554f565b608080840191909152610386908261554f565b90506103998482856102b282608061554f565b60e08301526103a960808261554f565b90506103bc8482856102b282608061554f565b6101008301526103cd60808261554f565b90506103e08482856102b282608061554f565b610120830151526103f260808261554f565b905061040584828561025b82602061554f565b61014083015261041660208261554f565b90505f5b601c811015610495575f5b600981101561048c5761043f86848761025b82602061554f565b84610160015183601c811061045657610456615589565b6020020151826009811061046c5761046c615589565b602002018181525050602083610482919061554f565b9250600101610425565b5060010161041a565b505f5b60298110156104e9576104b285838661025b82602061554f565b83610180015182602981106104c9576104c9615589565b6020020181815250506020826104df919061554f565b9150600101610498565b506104fb84828561025b82602061554f565b6101a083015261050c60208261554f565b905061051f8482856102b282608061554f565b6101208301516020015261053460808261554f565b90506105478482856102b282608061554f565b6101208301516040015261055c60808261554f565b905061056f8482856102b282608061554f565b6101c083015261058060808261554f565b905061059384828561025b82602061554f565b6101e08301526105a460208261554f565b90505f5b6105b46001601c614ff1565b8110156105fd576105cc8583866102b282608061554f565b83610200015182601b81106105e3576105e3615589565b60200201526105f360808361554f565b91506001016105a8565b505f5b601c8110156106515761061a85838661025b82602061554f565b83610220015182601c811061063157610631615589565b602002018181525050602082610647919061554f565b9150600101610600565b505f5b60048110156106a55761066e85838661025b82602061554f565b836102400151826004811061068557610685615589565b60200201818152505060208261069b919061554f565b9150600101610654565b506106b78482856102b282608061554f565b6102608301526106c860808261554f565b90506106db8482856102b282608061554f565b6102808301525092915050565b5f600180826107318661072c896107276107228a7f000000000000000000000000000000000000000000000000000000000000000061554f565b611f95565b611fb3565b611fcc565b90505f61074f8761074a8a6107276107228b600161554f565b611fe5565b90505f5b61077e60107f0000000000000000000000000000000000000000000000000000000000000000614ff1565b8110156107eb575f6107a88c838151811061079b5761079b615589565b6020026020010151611f95565b90506107b8866107278684611fcc565b95506107c8856107278584611fcc565b94506107d4848b611fcc565b93506107e0838b611fe5565b925050600101610753565b505f5b6010811015610852575f8a826010811061080a5761080a615589565b6020020151905061081f866107278684611fcc565b955061082f856107278584611fcc565b945061083b848b611fcc565b9350610847838b611fe5565b9250506001016107ee565b5061085d8484612014565b9a9950505050505050505050565b5f5f6108808360600151856101400151611fb3565b905060015f5b7f0000000000000000000000000000000000000000000000000000000000000000811015610972575f86610160015182601c81106108c6576108c6615589565b602002015180519091505f906108e4908360015b6020020151611fcc565b9050848114610906576040516313f8744360e31b815260040160405180910390fd5b5f876080015184601c811061091d5761091d615589565b6020020151905061092e8382612022565b955061096285610727600161072c856107278e604001518b601c811061095657610956615589565b60200201516001611fe5565b9450505050806001019050610886565b505f61098c866101800151865f01518760200151856121d0565b9050600160025b7f00000000000000000000000000000000000000000000000000000000000000008110156109e9576109df82886080015183601c81106109d5576109d5615589565b6020020151611fb3565b9150600101610993565b50610a0f6109fc83610727600185611fe5565b61072c896101a001518960600151611fb3565b939093149695505050505050565b5f610a26614c7d565b5f610a348460c0015161224a565b9050610a3e614ce1565b610a46614d00565b610100860151610a6690610a6190855f5b6020020151611fe5565b6122af565b60e0850152610100860151610a8090610a6190855f6108da565b610100850181905260e08086015190880151610aa09261072c9190611fb3565b845260c0860151610acf90610ab4906122af565b6107278660e0015161074a8a60e00151896101000151611fb3565b602085015260018252610260880151610ae790612318565b81526101e0880151608085015260a086015160608501528351610b0990612362565b60208301525f5b6024811015610bad57610b32610b28865f0151612362565b8660600151611fb3565b83610b3e83600261554f565b604b8110610b4e57610b4e615589565b602002015260808501516101808a0151610b87919061072c908460298110610b7857610b78615589565b60200201518860600151611fb3565b6080860152606085015160a0880151610ba09190611fb3565b6060860152600101610b10565b5060245b6029811015610c3657610bca610b288660200151612362565b83610bd683600261554f565b604b8110610be657610be6615589565b602002015260808501516101808a0151610c10919061072c908460298110610b7857610b78615589565b6080860152606085015160a0880151610c299190611fb3565b6060860152600101610bb1565b50610c45886101c00151612318565b8160016020020152606087015181600260200201526080870151816003602002015260a0870151816004602002015260c0870151816005602002015260e0870151816006602002015261010087015181600760200201526101208701518160086020020152610140870151816009602002015261016087015181600a60200201526101c087015181600b602002015261018087015181600c60200201526101a087015181600d60200201526101e087015181600e602002015261020087015181600f602002015261022087015181601060200201526102408701518160116020020152610260870151816012602002015261028087015181601360200201526102a087015181601460200201526102c087015181601560200201526102e0870151816016602002015261030087015181601760200201526103208701518160186020020152610340870151816019602002015261036087015181601a602002015261038087015181601b60200201526103a087015181601c60200201526103c087015181601d6020020181905250610de08860200151612318565b6103c08201526040880151610df490612318565b6103e08201526060880151610e0890612318565b6104008201526080880151610e1c90612318565b610420820152610100880151610e3190612318565b61044082015260e0880151610e4590612318565b61046082015260a0880151610e5990612318565b61048082015260c0880151610e6d90612318565b6104a08201526020880151610e8190612318565b6104c08201526040880151610e9590612318565b6104e08201526060880151610ea990612318565b6105008201526080880151610ebd90612318565b610520820152610100880151610ed290612318565b81602a60200201819052505f610f18876080015186608001518b6102200151877f000000000000000000000000000000000000000000000000000000000000000061237a565b805160e0870151919250610f2b91611fb3565b604086018190526102208a01515160e0890151610f5c929161072c91610f519190611fb3565b886101000151611fb3565b604086015260e0870151610f6f90612495565b60608601525f610f816029600261554f565b90505f5b610f916001601c614ff1565b81101561117f575f610fc460017f0000000000000000000000000000000000000000000000000000000000000000614ff1565b82101590508061110d57610ff8610a618b610100015189856001610fe8919061554f565b601c8110610a5757610a57615589565b60e08901526101008a015161102790610a61908961101786600161554f565b601c81106108da576108da615589565b610100890152606088015160e08901516110419190611fb3565b610120890152606088015160e08b01516110699161105e91611fb3565b896101000151611fb3565b610140890181905261108c9061107e90612362565b61072c8a6101200151612362565b86611097848661554f565b604b81106110a7576110a7615589565b60200201526101408801516102208d01515f916110d9916110c986600161554f565b601c81106109d5576109d5615589565b90506110f68161072c8b6101200151888760016110c9919061554f565b9050611106896040015182611fcc565b60408a0152505b61112c61112289606001518c60e00151611fb3565b8b60e00151611fb3565b60608901526102008c01516111569083601b811061114c5761114c615589565b6020020151612318565b85611161848661554f565b604b811061117157611171615589565b602002015250600101610f85565b5061118c6001601c614ff1565b611196908261554f565b90506111b66111ae8961010001518a60c00151611fe5565b600190612014565b60a08701515261010088015160c08901516111fa916111ae9161074a907f07b0c561a6148404f086204a9f36ffb0617942546750f230c893619174a57a7690611fb3565b60a087018051602001919091528051805160409091015251805160609182015286015160e08901516112399161122f91611fb3565b8960e00151611fb3565b60608701525f5b60048110156112e6575f6112728860a00151836004811061126357611263615589565b60200201518960600151611fb3565b905061127d81612362565b8860c00151836004811061129357611293615589565b6020020152606088015160e08b01516112ac9190611fb3565b8860600181815250506112d8886040015161072c838f610240015186600481106109d5576109d5615589565b604089015250600101611240565b5060c0860151518482604b81106112ff576112ff615589565b602002015260c0860151611320906001602002015160c088015160026108da565b8461132c83600161554f565b604b811061133c5761133c615589565b602002015260c0860151606001518461135683600261554f565b604b811061136657611366615589565b60200201525f5b60038110156113ba576113908b6101200151826003811061114c5761114c615589565b848361139b8161559d565b9450604b81106113ad576113ad615589565b602002015260010161136d565b5060405180604001604052806001815260200160028152508382604b81106113e4576113e4615589565b6020020152604086015184826113f98161559d565b9350604b811061140b5761140b615589565b6020020181815250506114328a61024001518960c001518a608001518d6101a001516124a0565b61144f5760405163a2a2ac8360e01b815260040160405180910390fd5b5f61145e8b6102800151612318565b9050808483604b811061147357611473615589565b60200201526101008901518583604b811061149057611490615589565b60200201525f6114a085876127e3565b90505f6114ac836128c0565b90506114b88282612937565b9d9c50505050505050505050505050565b6114d1614687565b50604080516103e0810182526208000081526013602080830191909152601982840152825180840184527f1ebeaff82d5dd3d1d0e0a48954104551717714d2bab4c8d24ac31b6d9d5ebb7b81527f28debbd1e8cbefdcf6f3b25e3e6f92c383c86a79e67685316b660872c205283f818301526060830152825180840184527f1aa54d5aeff06dece7f83c626dafcac5ca36bb1fbf322350d7bd05ef2f27768281527f1bd2cbff1813ac3bfc247d11aba0f3131718f25a3448553872151ebdc0055fc8818301526080830152825180840184527f102649ee03e95e2527e58e5f13ccc404bb29e70fe9ad84fb1285497a7067892a81527f1f01f9cdc91c882c869e570189aced1e7dc61639b1ad972fc3aff003612168168183015260a0830152825180840184527f1b51a4ac293f16613a5ebcb3501dfd0248600bf65709e27da6ac0017fa56168d81527f129e2f7a3dcbe008d96091c17e82494c4b481e8d0b1fc0b249ef754ecf4469a48183015260c0830152825180840184527f11ca2b6d30613e1a608151ebf115e9ae2bd7874002874ca59813350f1ba7964c81527f01a6d662a6c83dee871da46030830e1706f687c87995550ac9300abfa69563898183015260e0830152825180840184527f21a67a8aae81e2b33014d5f34cb6b92c3ae33e9616019e55164a6b529daed95d81527f0953044fb924d979ad10e5bd68f060c82ac690dbf9b9473af416327db165ae6f81830152610100830152825180840184527f2a92a1ec0e908c66594f4f11369a3b25c15c20e3ffccacae6f3b00602b62737a81527f0501ffdf885d832be84f89ed06b05a8128a1192b19ea2893e881cdbb7ed9430981830152610120830152825180840184527f07fe84396ef79c6ca4a96814bba85c98d5b4f3b4eb1f13f7c197f656b0ba4d7581527f141ad2151410ef9a59d63956def6405153c7de0fbc6f9c7e8468799ce7b0e6c281830152610140830152825180840184527f2a3829f34c9594b460f680d1d8ee11fa1b969adee30c0e09a7d99d32426b667b81527f17eaf51d52e9c88f5d8380e78f72899e0ed0e16d70df3dc910e50ff99185bec181830152610160830152825180840184527f2c101cf32044d140ecb4b5b2dd634554f42b09d308354ee7b3bb2877b541d46881527f17d9fd61ef8b99f1e8454e9c830f14ea6efb69ddf53911ea22b10dfe311d364d81830152610180830152825180840184527f052e6974970b1a0677f208ddc9d17b9e20278697e5b4e487d581b2ed6370ab2581527f26d06637e883a753dde18e06f9925cbcf15393cc478c8701bcf2b3a12bec8b10818301526101a0830152825180840184527f2334a3de2490e59fd667d6a11d4edc636a6d285974d00f1375b050ab0aefca8081527f231a2fd080855c93737b93b1335cedcdb4580605c6e054cd04c725b596f8e1e5818301526101c0830152825180840184527f1773498a87939533450f93a115b6a1122cb2609dd62a6a81f1bc2faac12ba31c81527f299a8f007a6a8aee8635cc3376c0ccb622262f94b696437e3a431e592554c9df818301526101e0830152825180840184527f0a70eba7257032ef25bb6b9859cf89a7159dfa5cac36b8daf6089fea22339da181527f0587b5924f66466b3cce4ba90e73d851bc8ba010a30183a2d31a87d0662cb15781830152610200830152825180840184527f13a9e7f0ad3afdc5e78a90c18b30bf197cc63aaa73811170fa47a30c35d1d80481527f1fa66d22da019c4180f89d47da475fae38b9304721fdb8357a1447a08b98459b81830152610220830152825180840184527f2b88277eb500a3c9693e250b539cfe0586292587f507ab936a91a0248eaea90581527f1d82652893849d722f8cfe8b3905fa5e8dd07905abb0237224206da442aade9381830152610240830152825180840184527f15fee47012f8bd82067f68a5c33988dde5c99cdb2bee5e030047e0821b8e633481527f2196b36407ba512af751c3d84094140384716c64e6df03851d0674cbabe6001e81830152610260830152825180840184527f0749a03b4e49e54e3ebe9913f8ec6e4dc39382cc2fdef405078f6abc418387fb81527f25506683733c2651d3eb6d97b267b4f8985c266f34e1cf2c545d3a4c64dc4ea281830152610280830152825180840184527f1426373280811ecbc71948a5f0ac09ef0dbccc1897fa574a134982d3875f036881527f26e76e993a3d660fbce8ff7b2f898c2aac32383e1c2773d86a9255ff3eaf5c07818301526102a0830152825180840184527f13806e96b1f1e0d0d12e4c2151eac1bc2e6ad9517a140a83ad6cf849423b39b081527f14d5842008a199ca8c4a308d61fd81a29f632662e9961d3e61fee8be4248bf49818301526102c0830152825180840184527f07cddb298716577503bd81c94dc802232583e8d8cef287f424aeb80989e0718b81527f14290b7fa1e0a3b1e8834813f2b76af30b93b4ce5450430303aa6c6bf7dc9a02818301526102e0830152825180840184527f2a6e32882ca6e194734ec502e224e0807638da1e0430c31ff79069c8769daaae81527f2574c743ab6cf5224e8fc6c9de5af906c2a861d773d4fd792aacbfa7200d284181830152610300830152825180840184527f2fa5dae074ff634b099c3816d611a18b5ae5c966c0dc02a8f2ef7ae71ea4c4aa81527f06c2094719643c823295c6966612a6697909f317b5baabc802388204ee304dc381830152610320830152825180840184527f2d3ec9fe3ca17f60dcf9817a3327124a453f3f8756bd060bf7e6052f295ca65e81527f0fa1a94efc1c0486ecd304b7ee8ca5f36ecb396947a145d6e57142604c669a8281830152610340830152825180840184527f25bf70072a2559553a45af25a69cec8630c1c6f90f6b31b7ff0ffe864ddea91f81527f1401eb7f37533e509c87e6ab90f8235b971a66ebe67a21737a6aa4961f9a336f81830152610360830152825180840184527f2d20a12eeb60db8369503f13fa35e7134b2e96dded7000073e3013da4214bd2c81527f2db90e0a41a20819ae326ec971b7273d8ed1b910cad4406813c680e4f0576a618183015261038083015282518084018452600181526002818301526103a083015282518084019093527e59672b436d930b33baeeb48ecca7a61e24f62d5c0cd7475a8c3c0e8639cf0b83527f09f4f587fedcc33313dd15dba3f63fdf644d32a0b01a34cecd0ddc4db880ebde908301526103c081019190915290565b5f60208214611e705760405162461bcd60e51b815260206004820152602e60248201527f696e76616c6964206e756d626572206f6620627974657320746f20636f6e737460448201526d393ab1ba1023391039b1b0b630b960911b60648201526084015b60405180910390fd5b611e7d61072283856155b5565b9392505050565b611eab60405180608001604052805f81526020015f81526020015f81526020015f81525090565b60808214611f135760405162461bcd60e51b815260206004820152602f60248201527f696e76616c6964206e756d626572206f6620627974657320746f20636f6e737460448201526e1c9d58dd08184811cc481c1bda5b9d608a1b6064820152608401611e67565b604080516080810190915280611f2c60205f8688615562565b611f35916155b5565b8152602090810190611f4b906040908688615562565b611f54916155b5565b8152602001611f67606060408688615562565b611f70916155b5565b8152602001611f83608060608688615562565b611f8c916155b5565b90529392505050565b5f611fad5f5160206156505f395f51905f52836155d2565b92915050565b5f5f5160206156505f395f51905f528284099392505050565b5f5f5160206156505f395f51905f528284089392505050565b5f5f5160206156505f395f51905f5261200b835f5160206156505f395f51905f52614ff1565b84089392505050565b5f611e7d83610727846122af565b5f5f604051806101200160405280619d8081526020017f30644e72e131a029b85045b68181585d2833e84879b9709143e1f593efffec5181526020016105a081526020017f30644e72e131a029b85045b68181585d2833e84879b9709143e1f593effffd31815260200161024081526020017f30644e72e131a029b85045b68181585d2833e84879b9709143e1f593effffd3181526020016105a081526020017f30644e72e131a029b85045b68181585d2833e84879b9709143e1f593efffec518152602001619d8081525090505f600190505f5f90505b600981101561211b57612111826107278784611fe5565b91506001016120fa565b50612124614d39565b5f5b600981101561217557612156610a6185836009811061214757612147615589565b60200201516107278985611fe5565b82826009811061216857612168615589565b6020020152600101612126565b505f5b60098110156121bb576121b18561072c89846009811061219a5761219a615589565b60200201518585600981106109d5576109d5615589565b9450600101612178565b506121c68483611fb3565b9695505050505050565b5f6121d9614d58565b6121e4868285612b2b565b6121f086868386612cd7565b6121fc86868386612ec3565b6122078682856130e8565b6122128682856132dc565b61221e86868386613625565b61222a86868386613ad8565b612235868285613ed7565b612240868285614298565b6121c68185614598565b612252614d58565b81815260015b601c8110156122a95761228a82612270600184614ff1565b601c811061228057612280615589565b6020020151612495565b8282601c811061229c5761229c615589565b6020020152600101612258565b50919050565b5f5f8290505f604051602081526020808201526020604082015282606082015260025f5160206156505f395f51905f520360808201525f5160206156505f395f51905f5260a082015260205f60c08360055afa90508061230d575f5ffd5b50505f519392505050565b604080518082019091525f8082526020820152604051806040016040528060888460200151901b845f015117815260200160888460600151901b8460400151178152509050919050565b5f611fad825f5160206156505f395f51905f52614ff1565b612382614d58565b601c5b801561248b575f84612398600184614ff1565b601c81106123a8576123a8615589565b602002015190505f886123bc600185614ff1565b601c81106123cc576123cc615589565b602002015190505f6124276123eb6123e4858c611fb3565b6002611fb3565b61074a8a6123fa600189614ff1565b601c811061240a5761240a615589565b60200201516107276124218861072760018a611fe5565b87611fe5565b905061244881610727610a6161244287610727600189611fe5565b86611fcc565b9050858411612477579750878085612461600187614ff1565b601c811061247157612471615589565b60200201525b50505080612484906155f1565b9050612385565b5095945050505050565b5f611fad8283611fb3565b5f6001816124b96124b3876101006145fd565b83611fe5565b9050806124d95760405163835eb8f760e01b815260040160405180910390fd5b6124e1614d77565b80518390525f5b601c8110156125ab575f6124fd826009614fda565b61250890600161554f565b905084835f015182610100811061252157612521615589565b60200201525f61253282600161554f565b90505b61254060098361554f565b8110156125a157835161258090612558600184614ff1565b610100811061256957612569615589565b60200201518a85601c81106109d5576109d5615589565b845182610100811061259457612594615589565b6020020152600101612535565b50506001016124e8565b50608081018390525f602082018190525b6101008110156126bc576125dd6125d783608001518a611fb3565b85611fe5565b8260a001518261010081106125f4576125f4615589565b602002015260a082015161261e9082610100811061261457612614615589565b60200201516122af565b8260a0015182610100811061263557612635615589565b60200201818152505061267b826020015161072c845f015184610100811061265f5761265f615589565b60200201518560a001518561010081106109d5576109d5615589565b602083015260808201516126af907f204bd3277422fad364751ad938e2b5e6a54cf8c68712848a692c553d0329f5d6611fb3565b60808301526001016125bc565b505f6126cd836107276101006122af565b90506126dd826020015182611fb3565b602083015260a08201516126f8905f5b602002015182611fb3565b604083015260a0820151612724906127136001610100614ff1565b61010081106126ed576126ed615589565b6060830152604082015161273a908a60026109d5565b60c083018190526127999061072c6127728b7f204bd3277422fad364751ad938e2b5e6a54cf8c68712848a692c553d0329f5d6611fe5565b6107276127888e600160200201518f6002610a57565b8e51602089015161074a9190611fb3565b60c0830181905260608301516127ce916127c29161072c906107278e600260200201518c611fe5565b61074a858c60036109d5565b60c08301819052159998505050505050505050565b604080518082019091525f80825260208201525f6003612805601c602961554f565b61280f919061554f565b61281a90600361554f565b90506001604051855151604082015285516020015160608201528451608082015260408160606040840160075afa8216915060015b838110156128a85760208102870160208202870181515160408501528151602001516060850152805160808501525050604080830160606040850160075afa8316925060408260808460065afa9092169160010161284f565b50805184526020810151602085015250505092915050565b604080518082019091525f80825260208201527f30644e72e131a029b85045b68181585d97816a916871ca8d3c208c16d87cfd4782602001517f30644e72e131a029b85045b68181585d97816a916871ca8d3c208c16d87cfd476129249190614ff1565b61292e91906155d2565b60208301525090565b81516020808401518351848301516040805194850195909552938301919091527f198e9393920d483a7260bfb731fb5d25f1aa493335a9e71297e485b7aef312c260608301527f1800deef121f1e76426a00665e5c4479674322d4f75edadd46debd5cd992f6ed60808301527f090689d0585ff075ec9e99ad690c3395bc4b313370b38ef355acdadcd122975b60a08301527f12c85ea5db8c6deb4aab71808dcb408fe3d1e7690c43d37b4ce6cc0166fa7daa60c083015260e08201526101008101919091527f260e01b251f6f1c7e7ff4e580791dee8ea51d87a358e038b4efe30fac09383c16101208201527f0118c4d5b837bcc2bc89b5b398b5974e9f5944073b32078b7e231fec938883b06101408201527f04fc6369f7110fe3d25156c1bb9a72859cf2a04641f99ba4ee413c80da6a5fe46101608201527f22febda3c0c0632a56475b4214e5615e11e6dd3f96e6cea2854a87d4dacc5e556101808201525f9081906101a00160405160208183030381529060405290505f5f60086001600160a01b031683604051612acd9190615606565b5f60405180830381855afa9150503d805f8114612b05576040519150601f19603f3d011682016040523d82523d5f602084013e612b0a565b606091505b50915091508180156121c65750808060200190518101906121c6919061561c565b5f612b37846007614657565b90507f183227397098d014dc2822db40c0ac2e9419f4243cdcb848a1f0fac9f80000005f612b98612b92612b6c856003611fe5565b610727612b87612b7c8b5f614657565b6107278c601d614657565b6107278b601c614657565b83611fb3565b9050612c19612c0e612bf5612bdc612bc38561072c612bb88d6002614657565b6107278e601c614657565b61072c612bd18c6003614657565b6107278d601d614657565b61072c612bea8b6004614657565b6107278c601e614657565b61072c612c038a6005614657565b6107278b601f614657565b61072c886001614657565b9050612c388161072c612c2d866001611fe5565b6107278a6027614657565b9050612c448184611fb3565b9050612c508185611fb3565b8552505f9050612c8a612c80612c75612c6a88601c614657565b61072c89601f614657565b61074a886024614657565b61072c875f614657565b9050612c9b81610727846002611fe5565b9050612cac81610727846001611fe5565b9050612cb88183611fb3565b9050612cc48184611fb3565b9050808460015b60200201525050505050565b5f5f5f612d0d612d03612ceb89601c614657565b61072c612cf98b6012614657565b8a60600151611fb3565b8760800151611fcc565b9050612d4681610727612d3c612d248b601d614657565b61072c612d328d6013614657565b8c60600151611fb3565b8960800151611fcc565b9050612d6b81610727612d3c612d5d8b601e614657565b61072c612d328d6014614657565b9050612d9081610727612d3c612d828b601f614657565b61072c612d328d6015614657565b92505f9050612db4612d03612da689601c614657565b61072c612cf98b600e614657565b9050612dd981610727612d3c612dcb8b601d614657565b61072c612d328d600f614657565b9050612dfe81610727612d3c612df08b601e614657565b61072c612d328d6010614657565b9050612e2381610727612d3c612e158b601f614657565b61072c612d328d6011614657565b91505f9050612e4a612e44612e39896020614657565b61072c8a601a614657565b84611fb3565b9050612e7f8161074a612e79612e618b6028614657565b61072c612e6f8d601b614657565b8c60a00151611fb3565b85611fb3565b9050612e8b8185611fb3565b6040860152505f612eae612e79612ea389601b614657565b6107278a6028614657565b9050808560035b602002015250505050505050565b5f5f612f21612f09612ef1612edc612d3c8a6016614657565b61072c612eea8b6017614657565b8a51611fb3565b61072c612eff8a6018614657565b8960200151611fb3565b61072c612f17896019614657565b8860400151611fb3565b91505f612f58612f3f612f3589601c614657565b8860800151611fcc565b61072c612f4d8a6003614657565b6107278b6024614657565b90505f612f81612f6989601d614657565b61072c612f768b5f614657565b6107278c6025614657565b90505f612fab612f928a601e614657565b61072c612fa08c6001614657565b6107278d6026614657565b9050612fea612fd2612fc48561072c868d5f0151611fb3565b61072c848c60200151611fb3565b61072c612fe08c6004614657565b8b60400151611fb3565b93505050505f612ffe612e44886021614657565b90505f61300f612e44896021614657565b90505f61304761302e6130238b6023614657565b61072c8c6006614657565b61074a61303c8c6023614657565b6107278d6006614657565b90505f6130656124b361305a8789611fb3565b6107278d6021614657565b90506130718188611fb3565b90505f61309961308b6130858d6006614657565b87611fb3565b61074a6130858e6022614657565b90505f6130a78c6023614657565b90505f6130b76124b38384611fb3565b60808c0185905260a08c0184905290506130d1818b611fb3565b8b6006602002015250505050505050505050505050565b5f6130f45f6001611fe5565b90505f6131025f6002611fe5565b90505f6131105f6003611fe5565b90505f61312c61312188601d614657565b61074a89601c614657565b90505f61314861313d89601e614657565b61074a8a601d614657565b90505f6131646131598a601f614657565b61074a8b601e614657565b90505f6131806131758b6024614657565b61074a8c601f614657565b90508361319181610727818b611fcc565b90506131a181610727878a611fcc565b90506131b1816107278789611fcc565b90506131c2816107278d6008614657565b90506131ce818a611fb3565b60e08b015250826131e381610727818b611fcc565b90506131f381610727868a611fcc565b9050613203816107278689611fcc565b9050613214816107278d6008614657565b9050613220818a611fb3565b6101008b0152508161323681610727818b611fcc565b905061324681610727858a611fcc565b9050613256816107278589611fcc565b9050613267816107278d6008614657565b9050613273818a611fb3565b6101208b0152508061328981610727818b611fcc565b905061329981610727848a611fcc565b90506132a9816107278489611fcc565b90506132ba816107278d6008614657565b90506132c6818a611fb3565b610140909a019990995250505050505050505050565b6133156040518060e001604052805f81526020015f81526020015f81526020015f81526020015f81526020015f81526020015f81525090565b61332084601d614657565b815261332d84601e614657565b602082015261333d846024614657565b604082015261334d846027614657565b606082015261335d846026614657565b608082015261336d846025614657565b60a08201525f61337e856002614657565b90505f61338b865f614657565b90505f61339f8460400151855f0151611fe5565b90505f6133b485602001518660200151611fb3565b606086015190915086905f906133ca9080611fb3565b90505f6133e86133e289602001518a60600151611fb3565b88611fb3565b90505f6134076134008a60a001518b60400151611fcc565b8a51611fcc565b90506134166130858288611fb3565b905061343d61343761343161342b8487611fe5565b88611fe5565b84611fcc565b83611fcc565b905061346561345a61344f8387611fb3565b6107278f6009614657565b61072760018a611fe5565b6101608c015250505050602085015160808601515f9161348491611fcc565b90505f6134a2613498886060015188611fb3565b8860200151611fe5565b90505f6134c66134b28487611fb3565b61072c612e798b60a001518c5f0151611fe5565b90506134ee6134e36134d8838c611fb3565b6107278e6009614657565b610727600189611fe5565b6101808b0152505f915061350f9050613508836011611fcc565b8751611fb3565b90505f61351c8384611fcc565b90506135288182611fcc565b90505f613536836009611fb3565b905061355f613559612e446135528b60a001518c5f0151611fcc565b8b51611fcc565b82611fe5565b60c089018190525f9061357a906133e29061344f908d611fb3565b905061358d8b600b602002015182611fcc565b6101608c0152505086515f92506135b49150613508906135ad9080611fcc565b8851611fcc565b90505f6135f46135cf836107278a5f01518b60a00151611fe5565b602089015161074a906135e29080611fcc565b6107278b602001518c60800151611fcc565b905061361189600c602002015161072c6133e261344f858d611fb3565b89600c602002015250505050505050505050565b61368f604051806101e001604052805f81526020015f81526020015f81526020015f81526020015f81526020015f81526020015f81526020015f81526020015f81526020015f81526020015f81526020015f81526020015f81526020015f81526020015f81525090565b6136a761369d86601e614657565b8560400151611fb3565b8082526136c69061072c6136bc88601d614657565b8760200151611fb3565b8082526136db9061072c61350888601c614657565b8082526136ed9061072c876001614657565b808252602082018190526137069061074a87601f614657565b8152613721613716866024614657565b61074a87601c614657565b608082015261373f613734866027614657565b61074a87601f614657565b60608201526080810151613761906137579080611fb3565b8260800151611fe5565b6101c082015260808101516137a190613797906137909061072760015f5160206156505f395f51905f52614ff1565b6001611fcc565b8260600151611fb3565b60a082018190526137d7906137c9906107276137be896002614657565b6107278a6003614657565b610727612e7988600a614657565b83600e60200201526101c08101516137fb906137c9906107276137be896002614657565b6101e0840152805161382090610727613815886002614657565b610727896003614657565b6101208201525f61383f61383587601f614657565b8360200151611fe5565b905061384e6135598283611fb3565b60e083015261386b613861876026614657565b8660400151611fb3565b6040830181905261388e9061072c613884896025614657565b8860200151611fb3565b604083018190526138ae9061072c6138a7896024614657565b8851611fb3565b60408301526138cb6138c1876027614657565b8360400151611fe5565b60408301525f6138ea6138df886026614657565b61074a89601e614657565b905061393c613917612b92613790866080015160015f5160206156505f395f51905f526107279190614ff1565b610727613790866040015160015f5160206156505f395f51905f526107279190614ff1565b60c0840152604083015161395e906139549080611fb3565b8460400151611fe5565b61010084015260c083015161398a9061397c906107278a6007614657565b6107276130858a600a614657565b6102008601526101c08301516139a99061397c906107278a6007614657565b6102208601526101008301516139c89061397c906107278a6007614657565b61024086015260e08301516139e290610727896007614657565b610140840152613a016139f6886025614657565b61074a89601d614657565b6101608401526080830151613a3f906138df90613a34906137909061072760015f5160206156505f395f51905f52614ff1565b856101600151611fb3565b61018084018190526101208401516101a08501819052613a769161072c90610727613a6b8c6005614657565b6107278d6002614657565b6101a084018190528351613a96919061072c90610727613a6b8c5f614657565b6101a08401819052610140840151613aae9190611fcc565b6101a08401819052613ac8906107276130858a600a614657565b6101a0840181905285600d612eb5565b613b116040518060e001604052805f81526020015f81526020015f81526020015f81526020015f81526020015f81526020015f81525090565b613b46613b2d613b2287601c614657565b610727886025614657565b61072c613b3b886024614657565b61072789601d614657565b8152613b8b613b80613b67613b5c88601c614657565b61072789601f614657565b61072c613b7589601d614657565b6107278a601e614657565b61074a876026614657565b60408201819052613ba090600160441b611fb3565b60408201819052613bb69061074a876027614657565b604082018190528151613bc99190611fcc565b60408201819052613bdf90610727876005614657565b60408201528051613bf490600160441b611fb3565b808252613c149061072c613c09886024614657565b610727896025614657565b80825260208201819052613c309061074a612c6a88601e614657565b60208201819052613c4690610727876004614657565b6020820152805160608201819052613c639061072c87601f614657565b60608201819052613c879061074a613c7c886026614657565b61072c896027614657565b60608201819052613c9c90610727875f614657565b8160600181815250505f613cc5613cbb83602001518460400151611fcc565b8360600151611fcc565b9050613cd681610727886003614657565b9050613cee613ce6876025614657565b614000611fb3565b60808301819052613d049061072c886024614657565b60808301819052613d1790614000611fb3565b60808301819052613d2d9061072c88601e614657565b60808301819052613d4090614000611fb3565b60808301819052613d569061072c88601d614657565b60808301819052613d6990614000611fb3565b60808301819052613d7f9061072c88601c614657565b60808301819052613d959061074a88601f614657565b60808301819052613dab90610727886005614657565b6080830152613dbe613ce6876026614657565b60a08301819052613dd49061072c886025614657565b60a08301819052613de790614000611fb3565b60a08301819052613dfd9061072c886024614657565b60a08301819052613e1090614000611fb3565b60a08301819052613e269061072c88601f614657565b60a08301819052613e3990614000611fb3565b60a08301819052613e4f9061072c88601e614657565b60a08301819052613e659061074a886027614657565b60a08301819052613e7a90610727885f614657565b60a0830181905260808301515f91613e929190611fcc565b9050613ea381610727896004614657565b9050613eaf8282611fcc565b60c08401819052613ec8906107276130858a600b614657565b60c08401819052856013612eb5565b613f4d6040518061022001604052805f81526020015f81526020015f81526020015f81526020015f81526020015f81526020015f81526020015f81526020015f81526020015f81526020015f81526020015f81526020015f81526020015f81526020015f81526020015f81526020015f81525090565b613f66613f5b85601c614657565b61072c866002614657565b8152613f81613f7685601d614657565b61072c866003614657565b6020820152613f9f613f9485601e614657565b61072c866004614657565b6040820152613fbd613fb285601f614657565b61072c866005614657565b60608201528051613fef90613fe890613fe190613fda9080611fb3565b8451611fb3565b8351611fb3565b8251611fb3565b6080820152602081015161402d90614023906140199061400f9080611fb3565b8460200151611fb3565b8360200151611fb3565b8260200151611fb3565b60a0820152604081015161406b90614061906140579061404d9080611fb3565b8460400151611fb3565b8360400151611fb3565b8260400151611fb3565b60c0820152606081015161409f90613797906140959061408b9080611fb3565b8460600151611fb3565b8360600151611fb3565b60e0820152608081015160a08201516140b89190611fcc565b61010082015260c081015160e08201516140d29190611fcc565b61012082015260a08101516140f6906140eb9080611fcc565b826101200151611fcc565b61014082015260e081015161411a9061410f9080611fcc565b826101000151611fcc565b6101608201526101208101516141309080611fcc565b6101e08201819052614151906141469080611fcc565b826101600151611fcc565b6101e08201526101008101516141679080611fcc565b6101a082018190526141889061417d9080611fcc565b826101400151611fcc565b6101a0820181905261016082015161419f91611fcc565b6101808201526101408101516101e08201516141bb9190611fcc565b6101c08201526141cf612b9285600c614657565b61020082018190526102808401516101808301516141fa9261072c916107279061074a8a6024614657565b836014602002015261422a836015602002015161072c836102000151610727856101a0015161074a8a6025614657565b836015602002015261425a836016602002015161072c836102000151610727856101c0015161074a8a6026614657565b836016602002015261428a836017602002015161072c836102000151610727856101e0015161074a8a6027614657565b836017602002015250505050565b6142ea6040518061016001604052805f81526020015f81526020015f81526020015f81526020015f81526020015f81526020015f81526020015f81526020015f81526020015f81526020015f81525090565b5f604051806080016040528061431f7f10dc6e9c006ea38b04b1e03b4bd9490c0d03f98929ca1d7fb56821fd19d3b6e7611f95565b815260200161434d7f0c28145b6a44df3e0149b3d0a30b3bb599df9756d4dd9b84a86b38cfb45a740b611f95565b815260200161437a7e544b8338791518b2c7645a50392798b21f75bb60e3596170067d00141cac15611f95565b81526020016143a87f222c01175718386f2e2e82eb122789e352e105a3b8fa852613bc534433ee428b611f95565b905290506143c56143ba86601c614657565b61072c876002614657565b6101208301819052614404906143f9906143ee906143e39080611fb3565b856101200151611fb3565b846101200151611fb3565b836101200151611fb3565b825261441185601d614657565b602083015261442185601e614657565b604083015261443185601f614657565b60608301528151602083015161445991613cbb9161444f9190611fcc565b8460400151611fcc565b608083015261446c612e4486600d614657565b610140830152815161448d9061448390835f6109d5565b8360800151611fcc565b60a08301526144b9846018602002015161072c8461014001516107278660a0015161074a8b6024614657565b61030085015260208201516144d490614483908360016109d5565b60c0830152614500846019602002015161072c8461014001516107278660c0015161074a8b6025614657565b610320850152604082015161451b90614483908360026109d5565b60e083015261454784601a602002015161072c8461014001516107278660e0015161074a8b6026614657565b610340850152606082015161456290614483908360036109d5565b61010083015261459084601b602002015161072c84610140015161072786610100015161074a8b6027614657565b84601b612ccb565b5f6145a48184816108da565b905060015b601c8110156145f6576145ec8261072c8684601c81106145cb576145cb615589565b6020020151866145dc600187614ff1565b601b81106109d5576109d5615589565b91506001016145a9565b5092915050565b5f5f8390505f60405160208152602080820152602060408201528260608201528460808201525f5160206156505f395f51905f5260a082015260205f60c08360055afa90508061464b575f5ffd5b50505f51949350505050565b5f8282602881111561466b5761466b61563b565b6029811061467b5761467b615589565b60200201519392505050565b604051806103e001604052805f81526020015f81526020015f81526020016146c060405180604001604052805f81526020015f81525090565b81526020016146e060405180604001604052805f81526020015f81525090565b815260200161470060405180604001604052805f81526020015f81525090565b815260200161472060405180604001604052805f81526020015f81525090565b815260200161474060405180604001604052805f81526020015f81525090565b815260200161476060405180604001604052805f81526020015f81525090565b815260200161478060405180604001604052805f81526020015f81525090565b81526020016147a060405180604001604052805f81526020015f81525090565b81526020016147c060405180604001604052805f81526020015f81525090565b81526020016147e060405180604001604052805f81526020015f81525090565b815260200161480060405180604001604052805f81526020015f81525090565b815260200161482060405180604001604052805f81526020015f81525090565b815260200161484060405180604001604052805f81526020015f81525090565b815260200161486060405180604001604052805f81526020015f81525090565b815260200161488060405180604001604052805f81526020015f81525090565b81526020016148a060405180604001604052805f81526020015f81525090565b81526020016148c060405180604001604052805f81526020015f81525090565b81526020016148e060405180604001604052805f81526020015f81525090565b815260200161490060405180604001604052805f81526020015f81525090565b815260200161492060405180604001604052805f81526020015f81525090565b815260200161494060405180604001604052805f81526020015f81525090565b815260200161496060405180604001604052805f81526020015f81525090565b815260200161498060405180604001604052805f81526020015f81525090565b81526020016149a060405180604001604052805f81526020015f81525090565b81526020016149c060405180604001604052805f81526020015f81525090565b81526020016149e060405180604001604052805f81526020015f81525090565b8152602001614a0060405180604001604052805f81526020015f81525090565b8152602001614a2060405180604001604052805f81526020015f81525090565b905290565b604051806102a00160405280614a39614dbb565b8152602001614a6560405180608001604052805f81526020015f81526020015f81526020015f81525090565b8152602001614a9160405180608001604052805f81526020015f81526020015f81526020015f81525090565b8152602001614abd60405180608001604052805f81526020015f81526020015f81526020015f81525090565b8152602001614ae960405180608001604052805f81526020015f81526020015f81526020015f81525090565b8152602001614b1560405180608001604052805f81526020015f81526020015f81526020015f81525090565b8152602001614b4160405180608001604052805f81526020015f81526020015f81526020015f81525090565b8152602001614b6d60405180608001604052805f81526020015f81526020015f81526020015f81525090565b8152602001614b9960405180608001604052805f81526020015f81526020015f81526020015f81525090565b8152602001614ba6614dda565b81526020015f8152602001614bb9614e26565b8152602001614bc6614e54565b81526020015f8152602001614bf860405180608001604052805f81526020015f81526020015f81526020015f81525090565b81526020015f8152602001614c0b614e73565b8152602001614c18614d58565b8152602001614c25614ec0565b8152602001614c5160405180608001604052805f81526020015f81526020015f81526020015f81525090565b8152602001614a2060405180608001604052805f81526020015f81526020015f81526020015f81525090565b6040518061018001604052805f81526020015f81526020015f81526020015f81526020015f8152602001614caf614ec0565b8152602001614cbc614ec0565b81526020015f81526020015f81526020015f81526020015f8152602001614a20614d58565b604051806109600160405280604b906020820280368337509192915050565b604051806109600160405280604b905b604080518082019091525f8082526020820152815260200190600190039081614d105790505090565b6040518061012001604052806009906020820280368337509192915050565b604051806103800160405280601c906020820280368337509192915050565b6040518060e00160405280614d8a614ede565b81526020015f81526020015f81526020015f81526020015f8152602001614daf614ede565b81526020015f81525090565b6040518061020001604052806010906020820280368337509192915050565b60405180606001604052806003905b614e1060405180608001604052805f81526020015f81526020015f81526020015f81525090565b815260200190600190039081614de95790505090565b604051806103800160405280601c905b614e3e614d39565b815260200190600190039081614e365790505090565b6040518061052001604052806029906020820280368337509192915050565b604051806103600160405280601b905b614eaa60405180608001604052805f81526020015f81526020015f81526020015f81525090565b815260200190600190039081614e835790505090565b60405180608001604052806004906020820280368337509192915050565b604051806120000160405280610100906020820280368337509192915050565b5f5f5f5f60408587031215614f11575f5ffd5b843567ffffffffffffffff811115614f27575f5ffd5b8501601f81018713614f37575f5ffd5b803567ffffffffffffffff811115614f4d575f5ffd5b876020828401011115614f5e575f5ffd5b60209182019550935085013567ffffffffffffffff811115614f7e575f5ffd5b8501601f81018713614f8e575f5ffd5b803567ffffffffffffffff811115614fa4575f5ffd5b8760208260051b8401011115614fb8575f5ffd5b949793965060200194505050565b634e487b7160e01b5f52601160045260245ffd5b8082028115828204841417611fad57611fad614fc6565b81810381811115611fad57611fad614fc6565b805f5b6010811015615026578151845260209384019390910190600101615007565b50505050565b805182526020810151602083015260408101516040830152606081015160608301525050565b805f5b60038110156150265761506984835161502c565b6080939093019260209190910190600101615055565b805f5b601c811015615026578151845f5b60098110156150af578251825260209283019290910190600101615090565b505050610120939093019260209190910190600101615082565b805f5b60298110156150265781518452602093840193909101906001016150cc565b805f5b601b8110156150265761510284835161502c565b60809390930192602091909101906001016150ee565b805f5b601c81101561502657815184526020938401939091019060010161511b565b805f5b600481101561502657815184526020938401939091019060010161513d565b8183525f6001600160fb1b03831115615173575f5ffd5b8260051b80836020870137939093016020019392505050565b615197818851615004565b5f60208801516151ab61020084018261502c565b5060408801516151bf61028084018261502c565b5060608801516151d361030084018261502c565b5060808801516151e761038084018261502c565b5060a08801516151fb61040084018261502c565b5060c088015161520f61048084018261502c565b5060e088015161522361050084018261502c565b5061010088015161523861058084018261502c565b5061012088015161524d610600840182615052565b5061014088015161078083015261016088015161526e6107a084018261507f565b506101808801516152836127208401826150c9565b506101a0880151612c408301526101c08801516152a4612c6084018261502c565b506101e0880151612ce08301526102008801516152c5612d008401826150eb565b506102208801516152da613a80840182615118565b506102408801516152ef613e0084018261513a565b50610260880151615304613e8084018261502c565b50610280880151615319613f0084018261502c565b50614000613f808301526153326140008301878961515c565b613fa083019590955250613fc0810192909252613fe0909101529392505050565b634e487b7160e01b5f52604160045260245ffd5b604051610140810167ffffffffffffffff8111828210171561538b5761538b615353565b60405290565b604051601f8201601f1916810167ffffffffffffffff811182821017156153ba576153ba615353565b604052919050565b5f60c082840312156153d2575f5ffd5b60405160c0810167ffffffffffffffff811182821017156153f5576153f5615353565b604090815283518252602080850151908301528381015190820152606080840151908201526080808401519082015260a0928301519281019290925250919050565b5f82601f830112615446575f5ffd5b5f61036061545381615391565b915083018185821115615464575f5ffd5b845b8281101561547e578051825260209182019101615466565b509195945050505050565b5f82601f830112615498575f5ffd5b5f61038061545381615391565b5f610be08284031280156154b7575f5ffd5b506154c0615367565b6154ca84846153c2565b81526154d98460c08501615437565b60208201526154ec846104208501615489565b60408201526107a0830151606082015261550a846107c08501615489565b6080820152610b4083015160a0820152610b6083015160c0820152610b8083015160e0820152610ba0830151610100820152610bc09092015161012083015250919050565b80820180821115611fad57611fad614fc6565b5f5f85851115615570575f5ffd5b8386111561557c575f5ffd5b5050820193919092039150565b634e487b7160e01b5f52603260045260245ffd5b5f600182016155ae576155ae614fc6565b5060010190565b80356020831015611fad575f19602084900360031b1b1692915050565b5f826155ec57634e487b7160e01b5f52601260045260245ffd5b500690565b5f816155ff576155ff614fc6565b505f190190565b5f82518060208501845e5f920191825250919050565b5f6020828403121561562c575f5ffd5b81518015158114611e7d575f5ffd5b634e487b7160e01b5f52602160045260245ffdfe30644e72e131a029b85045b68181585d2833e84879b9709143e1f593f0000001a2646970667358221220a18939f362aaa024e5446ba9e6c8d507cd0c17126f5969016070c60190877b5a64736f6c634300081e0033",
			"opcodes": "PUSH1 0xE0 PUSH1 0x40 MSTORE CALLVALUE DUP1 ISZERO PUSH2 0xF JUMPI PUSH0 PUSH0 REVERT JUMPDEST POP PUSH3 0x80000 PUSH1 0x80 MSTORE PUSH1 0x13 PUSH1 0xA0 MSTORE PUSH1 0x19 PUSH1 0xC0 MSTORE PUSH1 0x80 MLOAD PUSH1 0xA0 MLOAD PUSH1 0xC0 MLOAD PUSH2 0x56A5 PUSH2 0x67 PUSH0 CODECOPY PUSH0 DUP2 DUP2 PUSH2 0x103 ADD MSTORE PUSH2 0x75A ADD MSTORE PUSH0 DUP2 DUP2 PUSH2 0x888 ADD MSTORE DUP2 DUP2 PUSH2 0x995 ADD MSTORE DUP2 DUP2 PUSH2 0xEF4 ADD MSTORE PUSH2 0xFA0 ADD MSTORE PUSH0 PUSH2 0x6FE ADD MSTORE PUSH2 0x56A5 PUSH0 RETURN INVALID PUSH1 0x80 PUSH1 0x40 MSTORE CALLVALUE DUP1 ISZERO PUSH2 0xF JUMPI PUSH0 PUSH0 REVERT JUMPDEST POP PUSH1 0x4 CALLDATASIZE LT PUSH2 0x29 JUMPI PUSH0 CALLDATALOAD PUSH1 0xE0 SHR DUP1 PUSH4 0xEA50D0E4 EQ PUSH2 0x2D JUMPI JUMPDEST PUSH0 PUSH0 REVERT JUMPDEST PUSH2 0x40 PUSH2 0x3B CALLDATASIZE PUSH1 0x4 PUSH2 0x4EFE JUMP JUMPDEST PUSH2 0x54 JUMP JUMPDEST PUSH1 0x40 MLOAD SWAP1 ISZERO ISZERO DUP2 MSTORE PUSH1 0x20 ADD PUSH1 0x40 MLOAD DUP1 SWAP2 SUB SWAP1 RETURN JUMPDEST PUSH0 PUSH2 0x62 PUSH2 0x1FC PUSH1 0x20 PUSH2 0x4FDA JUMP JUMPDEST DUP5 EQ PUSH2 0x81 JUMPI PUSH1 0x40 MLOAD PUSH4 0x76BA5605 PUSH1 0xE1 SHL DUP2 MSTORE PUSH1 0x4 ADD PUSH1 0x40 MLOAD DUP1 SWAP2 SUB SWAP1 REVERT JUMPDEST PUSH0 PUSH2 0x8A PUSH2 0x221 JUMP JUMPDEST SWAP1 POP PUSH0 PUSH2 0x97 DUP8 DUP8 PUSH2 0x236 JUMP JUMPDEST SWAP1 POP PUSH1 0x10 DUP3 PUSH1 0x40 ADD MLOAD PUSH2 0xAA SWAP2 SWAP1 PUSH2 0x4FF1 JUMP JUMPDEST DUP5 EQ PUSH2 0xC9 JUMPI PUSH1 0x40 MLOAD PUSH4 0xFA066593 PUSH1 0xE0 SHL DUP2 MSTORE PUSH1 0x4 ADD PUSH1 0x40 MLOAD DUP1 SWAP2 SUB SWAP1 REVERT JUMPDEST DUP2 MLOAD PUSH1 0x40 MLOAD PUSH4 0x995BF457 PUSH1 0xE0 SHL DUP2 MSTORE PUSH0 SWAP2 PUSH20 0x0 SWAP2 PUSH4 0x995BF457 SWAP2 PUSH2 0x12E SWAP2 DUP7 SWAP2 DUP12 SWAP2 DUP12 SWAP2 SWAP1 PUSH32 0x0 SWAP1 PUSH1 0x1 SWAP1 PUSH1 0x4 ADD PUSH2 0x518C JUMP JUMPDEST PUSH2 0xBE0 PUSH1 0x40 MLOAD DUP1 DUP4 SUB DUP2 DUP7 GAS DELEGATECALL ISZERO DUP1 ISZERO PUSH2 0x14A JUMPI RETURNDATASIZE PUSH0 PUSH0 RETURNDATACOPY RETURNDATASIZE PUSH0 REVERT JUMPDEST POP POP POP POP PUSH1 0x40 MLOAD RETURNDATASIZE PUSH1 0x1F NOT PUSH1 0x1F DUP3 ADD AND DUP3 ADD DUP1 PUSH1 0x40 MSTORE POP DUP2 ADD SWAP1 PUSH2 0x16E SWAP2 SWAP1 PUSH2 0x54A5 JUMP JUMPDEST SWAP1 POP PUSH2 0x1BE DUP7 DUP7 DUP1 DUP1 PUSH1 0x20 MUL PUSH1 0x20 ADD PUSH1 0x40 MLOAD SWAP1 DUP2 ADD PUSH1 0x40 MSTORE DUP1 SWAP4 SWAP3 SWAP2 SWAP1 DUP2 DUP2 MSTORE PUSH1 0x20 ADD DUP4 DUP4 PUSH1 0x20 MUL DUP1 DUP3 DUP5 CALLDATACOPY PUSH0 SWAP3 ADD SWAP2 SWAP1 SWAP2 MSTORE POP POP DUP6 MLOAD DUP6 MLOAD PUSH1 0x60 DUP2 ADD MLOAD PUSH1 0x80 SWAP1 SWAP2 ADD MLOAD SWAP2 SWAP4 POP SWAP2 POP PUSH1 0x1 PUSH2 0x6E8 JUMP JUMPDEST DUP2 MLOAD PUSH1 0xA0 ADD MSTORE PUSH2 0x1CE DUP3 DUP3 PUSH2 0x86B JUMP JUMPDEST PUSH2 0x1EB JUMPI PUSH1 0x40 MLOAD PUSH4 0x13F87443 PUSH1 0xE3 SHL DUP2 MSTORE PUSH1 0x4 ADD PUSH1 0x40 MLOAD DUP1 SWAP2 SUB SWAP1 REVERT JUMPDEST PUSH2 0x1F6 DUP3 DUP5 DUP4 PUSH2 0xA1D JUMP JUMPDEST PUSH2 0x213 JUMPI PUSH1 0x40 MLOAD PUSH4 0x52EC1745 PUSH1 0xE1 SHL DUP2 MSTORE PUSH1 0x4 ADD PUSH1 0x40 MLOAD DUP1 SWAP2 SUB SWAP1 REVERT JUMPDEST POP PUSH1 0x1 SWAP8 SWAP7 POP POP POP POP POP POP POP JUMP JUMPDEST PUSH2 0x229 PUSH2 0x4687 JUMP JUMPDEST PUSH2 0x231 PUSH2 0x14C9 JUMP JUMPDEST SWAP1 POP SWAP1 JUMP JUMPDEST PUSH2 0x23E PUSH2 0x4A25 JUMP JUMPDEST PUSH0 DUP1 JUMPDEST PUSH1 0x10 DUP2 LT ISZERO PUSH2 0x2A0 JUMPI PUSH2 0x26D DUP6 DUP4 DUP7 PUSH2 0x25B DUP3 PUSH1 0x20 PUSH2 0x554F JUMP JUMPDEST SWAP3 PUSH2 0x268 SWAP4 SWAP3 SWAP2 SWAP1 PUSH2 0x5562 JUMP JUMPDEST PUSH2 0x1E03 JUMP JUMPDEST DUP4 MLOAD DUP3 PUSH1 0x10 DUP2 LT PUSH2 0x280 JUMPI PUSH2 0x280 PUSH2 0x5589 JUMP JUMPDEST PUSH1 0x20 MUL ADD DUP2 DUP2 MSTORE POP POP PUSH1 0x20 DUP3 PUSH2 0x296 SWAP2 SWAP1 PUSH2 0x554F JUMP JUMPDEST SWAP2 POP PUSH1 0x1 ADD PUSH2 0x241 JUMP JUMPDEST POP PUSH2 0x2C4 DUP5 DUP3 DUP6 PUSH2 0x2B2 DUP3 PUSH1 0x80 PUSH2 0x554F JUMP JUMPDEST SWAP3 PUSH2 0x2BF SWAP4 SWAP3 SWAP2 SWAP1 PUSH2 0x5562 JUMP JUMPDEST PUSH2 0x1E84 JUMP JUMPDEST PUSH1 0x20 DUP4 ADD MSTORE PUSH2 0x2D4 PUSH1 0x80 DUP3 PUSH2 0x554F JUMP JUMPDEST SWAP1 POP PUSH2 0x2E7 DUP5 DUP3 DUP6 PUSH2 0x2B2 DUP3 PUSH1 0x80 PUSH2 0x554F JUMP JUMPDEST PUSH1 0x40 DUP4 ADD MSTORE PUSH2 0x2F7 PUSH1 0x80 DUP3 PUSH2 0x554F JUMP JUMPDEST SWAP1 POP PUSH2 0x30A DUP5 DUP3 DUP6 PUSH2 0x2B2 DUP3 PUSH1 0x80 PUSH2 0x554F JUMP JUMPDEST PUSH1 0x60 DUP4 ADD MSTORE PUSH2 0x31A PUSH1 0x80 DUP3 PUSH2 0x554F JUMP JUMPDEST SWAP1 POP PUSH2 0x32D DUP5 DUP3 DUP6 PUSH2 0x2B2 DUP3 PUSH1 0x80 PUSH2 0x554F JUMP JUMPDEST PUSH1 0xA0 DUP4 ADD MSTORE PUSH2 0x33D PUSH1 0x80 DUP3 PUSH2 0x554F JUMP JUMPDEST SWAP1 POP PUSH2 0x350 DUP5 DUP3 DUP6 PUSH2 0x2B2 DUP3 PUSH1 0x80 PUSH2 0x554F JUMP JUMPDEST PUSH1 0xC0 DUP4 ADD MSTORE PUSH2 0x360 PUSH1 0x80 DUP3 PUSH2 0x554F JUMP JUMPDEST SWAP1 POP PUSH2 0x373 DUP5 DUP3 DUP6 PUSH2 0x2B2 DUP3 PUSH1 0x80 PUSH2 0x554F JUMP JUMPDEST PUSH1 0x80 DUP1 DUP5 ADD SWAP2 SWAP1 SWAP2 MSTORE PUSH2 0x386 SWAP1 DUP3 PUSH2 0x554F JUMP JUMPDEST SWAP1 POP PUSH2 0x399 DUP5 DUP3 DUP6 PUSH2 0x2B2 DUP3 PUSH1 0x80 PUSH2 0x554F JUMP JUMPDEST PUSH1 0xE0 DUP4 ADD MSTORE PUSH2 0x3A9 PUSH1 0x80 DUP3 PUSH2 0x554F JUMP JUMPDEST SWAP1 POP PUSH2 0x3BC DUP5 DUP3 DUP6 PUSH2 0x2B2 DUP3 PUSH1 0x80 PUSH2 0x554F JUMP JUMPDEST PUSH2 0x100 DUP4 ADD MSTORE PUSH2 0x3CD PUSH1 0x80 DUP3 PUSH2 0x554F JUMP JUMPDEST SWAP1 POP PUSH2 0x3E0 DUP5 DUP3 DUP6 PUSH2 0x2B2 DUP3 PUSH1 0x80 PUSH2 0x554F JUMP JUMPDEST PUSH2 0x120 DUP4 ADD MLOAD MSTORE PUSH2 0x3F2 PUSH1 0x80 DUP3 PUSH2 0x554F JUMP JUMPDEST SWAP1 POP PUSH2 0x405 DUP5 DUP3 DUP6 PUSH2 0x25B DUP3 PUSH1 0x20 PUSH2 0x554F JUMP JUMPDEST PUSH2 0x140 DUP4 ADD MSTORE PUSH2 0x416 PUSH1 0x20 DUP3 PUSH2 0x554F JUMP JUMPDEST SWAP1 POP PUSH0 JUMPDEST PUSH1 0x1C DUP2 LT ISZERO PUSH2 0x495 JUMPI PUSH0 JUMPDEST PUSH1 0x9 DUP2 LT ISZERO PUSH2 0x48C JUMPI PUSH2 0x43F DUP7 DUP5 DUP8 PUSH2 0x25B DUP3 PUSH1 0x20 PUSH2 0x554F JUMP JUMPDEST DUP5 PUSH2 0x160 ADD MLOAD DUP4 PUSH1 0x1C DUP2 LT PUSH2 0x456 JUMPI PUSH2 0x456 PUSH2 0x5589 JUMP JUMPDEST PUSH1 0x20 MUL ADD MLOAD DUP3 PUSH1 0x9 DUP2 LT PUSH2 0x46C JUMPI PUSH2 0x46C PUSH2 0x5589 JUMP JUMPDEST PUSH1 0x20 MUL ADD DUP2 DUP2 MSTORE POP POP PUSH1 0x20 DUP4 PUSH2 0x482 SWAP2 SWAP1 PUSH2 0x554F JUMP JUMPDEST SWAP3 POP PUSH1 0x1 ADD PUSH2 0x425 JUMP JUMPDEST POP PUSH1 0x1 ADD PUSH2 0x41A JUMP JUMPDEST POP PUSH0 JUMPDEST PUSH1 0x29 DUP2 LT ISZERO PUSH2 0x4E9 JUMPI PUSH2 0x4B2 DUP6 DUP4 DUP7 PUSH2 0x25B DUP3 PUSH1 0x20 PUSH2 0x554F JUMP JUMPDEST DUP4 PUSH2 0x180 ADD MLOAD DUP3 PUSH1 0x29 DUP2 LT PUSH2 0x4C9 JUMPI PUSH2 0x4C9 PUSH2 0x5589 JUMP JUMPDEST PUSH1 0x20 MUL ADD DUP2 DUP2 MSTORE POP POP PUSH1 0x20 DUP3 PUSH2 0x4DF SWAP2 SWAP1 PUSH2 0x554F JUMP JUMPDEST SWAP2 POP PUSH1 0x1 ADD PUSH2 0x498 JUMP JUMPDEST POP PUSH2 0x4FB DUP5 DUP3 DUP6 PUSH2 0x25B DUP3 PUSH1 0x20 PUSH2 0x554F JUMP JUMPDEST PUSH2 0x1A0 DUP4 ADD MSTORE PUSH2 0x50C PUSH1 0x20 DUP3 PUSH2 0x554F JUMP JUMPDEST SWAP1 POP PUSH2 0x51F DUP5 DUP3 DUP6 PUSH2 0x2B2 DUP3 PUSH1 0x80 PUSH2 0x554F JUMP JUMPDEST PUSH2 0x120 DUP4 ADD MLOAD PUSH1 0x20 ADD MSTORE PUSH2 0x534 PUSH1 0x80 DUP3 PUSH2 0x554F JUMP JUMPDEST SWAP1 POP PUSH2 0x547 DUP5 DUP3 DUP6 PUSH2 0x2B2 DUP3 PUSH1 0x80 PUSH2 0x554F JUMP JUMPDEST PUSH2 0x120 DUP4 ADD MLOAD PUSH1 0x40 ADD MSTORE PUSH2 0x55C PUSH1 0x80 DUP3 PUSH2 0x554F JUMP JUMPDEST SWAP1 POP PUSH2 0x56F DUP5 DUP3 DUP6 PUSH2 0x2B2 DUP3 PUSH1 0x80 PUSH2 0x554F JUMP JUMPDEST PUSH2 0x1C0 DUP4 ADD MSTORE PUSH2 0x580 PUSH1 0x80 DUP3 PUSH2 0x554F JUMP JUMPDEST SWAP1 POP PUSH2 0x593 DUP5 DUP3 DUP6 PUSH2 0x25B DUP3 PUSH1 0x20 PUSH2 0x554F JUMP JUMPDEST PUSH2 0x1E0 DUP4 ADD MSTORE PUSH2 0x5A4 PUSH1 0x20 DUP3 PUSH2 0x554F JUMP JUMPDEST SWAP1 POP PUSH0 JUMPDEST PUSH2 0x5B4 PUSH1 0x1 PUSH1 0x1C PUSH2 0x4FF1 JUMP JUMPDEST DUP2 LT ISZERO PUSH2 0x5FD JUMPI PUSH2 0x5CC DUP6 DUP4 DUP7 PUSH2 0x2B2 DUP3 PUSH1 0x80 PUSH2 0x554F JUMP JUMPDEST DUP4 PUSH2 0x200 ADD MLOAD DUP3 PUSH1 0x1B DUP2 LT PUSH2 0x5E3 JUMPI PUSH2 0x5E3 PUSH2 0x5589 JUMP JUMPDEST PUSH1 0x20 MUL ADD MSTORE PUSH2 0x5F3 PUSH1 0x80 DUP4 PUSH2 0x554F JUMP JUMPDEST SWAP2 POP PUSH1 0x1 ADD PUSH2 0x5A8 JUMP JUMPDEST POP PUSH0 JUMPDEST PUSH1 0x1C DUP2 LT ISZERO PUSH2 0x651 JUMPI PUSH2 0x61A DUP6 DUP4 DUP7 PUSH2 0x25B DUP3 PUSH1 0x20 PUSH2 0x554F JUMP JUMPDEST DUP4 PUSH2 0x220 ADD MLOAD DUP3 PUSH1 0x1C DUP2 LT PUSH2 0x631 JUMPI PUSH2 0x631 PUSH2 0x5589 JUMP JUMPDEST PUSH1 0x20 MUL ADD DUP2 DUP2 MSTORE POP POP PUSH1 0x20 DUP3 PUSH2 0x647 SWAP2 SWAP1 PUSH2 0x554F JUMP JUMPDEST SWAP2 POP PUSH1 0x1 ADD PUSH2 0x600 JUMP JUMPDEST POP PUSH0 JUMPDEST PUSH1 0x4 DUP2 LT ISZERO PUSH2 0x6A5 JUMPI PUSH2 0x66E DUP6 DUP4 DUP7 PUSH2 0x25B DUP3 PUSH1 0x20 PUSH2 0x554F JUMP JUMPDEST DUP4 PUSH2 0x240 ADD MLOAD DUP3 PUSH1 0x4 DUP2 LT PUSH2 0x685 JUMPI PUSH2 0x685 PUSH2 0x5589 JUMP JUMPDEST PUSH1 0x20 MUL ADD DUP2 DUP2 MSTORE POP POP PUSH1 0x20 DUP3 PUSH2 0x69B SWAP2 SWAP1 PUSH2 0x554F JUMP JUMPDEST SWAP2 POP PUSH1 0x1 ADD PUSH2 0x654 JUMP JUMPDEST POP PUSH2 0x6B7 DUP5 DUP3 DUP6 PUSH2 0x2B2 DUP3 PUSH1 0x80 PUSH2 0x554F JUMP JUMPDEST PUSH2 0x260 DUP4 ADD MSTORE PUSH2 0x6C8 PUSH1 0x80 DUP3 PUSH2 0x554F JUMP JUMPDEST SWAP1 POP PUSH2 0x6DB DUP5 DUP3 DUP6 PUSH2 0x2B2 DUP3 PUSH1 0x80 PUSH2 0x554F JUMP JUMPDEST PUSH2 0x280 DUP4 ADD MSTORE POP SWAP3 SWAP2 POP POP JUMP JUMPDEST PUSH0 PUSH1 0x1 DUP1 DUP3 PUSH2 0x731 DUP7 PUSH2 0x72C DUP10 PUSH2 0x727 PUSH2 0x722 DUP11 PUSH32 0x0 PUSH2 0x554F JUMP JUMPDEST PUSH2 0x1F95 JUMP JUMPDEST PUSH2 0x1FB3 JUMP JUMPDEST PUSH2 0x1FCC JUMP JUMPDEST SWAP1 POP PUSH0 PUSH2 0x74F DUP8 PUSH2 0x74A DUP11 PUSH2 0x727 PUSH2 0x722 DUP12 PUSH1 0x1 PUSH2 0x554F JUMP JUMPDEST PUSH2 0x1FE5 JUMP JUMPDEST SWAP1 POP PUSH0 JUMPDEST PUSH2 0x77E PUSH1 0x10 PUSH32 0x0 PUSH2 0x4FF1 JUMP JUMPDEST DUP2 LT ISZERO PUSH2 0x7EB JUMPI PUSH0 PUSH2 0x7A8 DUP13 DUP4 DUP2 MLOAD DUP2 LT PUSH2 0x79B JUMPI PUSH2 0x79B PUSH2 0x5589 JUMP JUMPDEST PUSH1 0x20 MUL PUSH1 0x20 ADD ADD MLOAD PUSH2 0x1F95 JUMP JUMPDEST SWAP1 POP PUSH2 0x7B8 DUP7 PUSH2 0x727 DUP7 DUP5 PUSH2 0x1FCC JUMP JUMPDEST SWAP6 POP PUSH2 0x7C8 DUP6 PUSH2 0x727 DUP6 DUP5 PUSH2 0x1FCC JUMP JUMPDEST SWAP5 POP PUSH2 0x7D4 DUP5 DUP12 PUSH2 0x1FCC JUMP JUMPDEST SWAP4 POP PUSH2 0x7E0 DUP4 DUP12 PUSH2 0x1FE5 JUMP JUMPDEST SWAP3 POP POP PUSH1 0x1 ADD PUSH2 0x753 JUMP JUMPDEST POP PUSH0 JUMPDEST PUSH1 0x10 DUP2 LT ISZERO PUSH2 0x852 JUMPI PUSH0 DUP11 DUP3 PUSH1 0x10 DUP2 LT PUSH2 0x80A JUMPI PUSH2 0x80A PUSH2 0x5589 JUMP JUMPDEST PUSH1 0x20 MUL ADD MLOAD SWAP1 POP PUSH2 0x81F DUP7 PUSH2 0x727 DUP7 DUP5 PUSH2 0x1FCC JUMP JUMPDEST SWAP6 POP PUSH2 0x82F DUP6 PUSH2 0x727 DUP6 DUP5 PUSH2 0x1FCC JUMP JUMPDEST SWAP5 POP PUSH2 0x83B DUP5 DUP12 PUSH2 0x1FCC JUMP JUMPDEST SWAP4 POP PUSH2 0x847 DUP4 DUP12 PUSH2 0x1FE5 JUMP JUMPDEST SWAP3 POP POP PUSH1 0x1 ADD PUSH2 0x7EE JUMP JUMPDEST POP PUSH2 0x85D DUP5 DUP5 PUSH2 0x2014 JUMP JUMPDEST SWAP11 SWAP10 POP POP POP POP POP POP POP POP POP POP JUMP JUMPDEST PUSH0 PUSH0 PUSH2 0x880 DUP4 PUSH1 0x60 ADD MLOAD DUP6 PUSH2 0x140 ADD MLOAD PUSH2 0x1FB3 JUMP JUMPDEST SWAP1 POP PUSH1 0x1 PUSH0 JUMPDEST PUSH32 0x0 DUP2 LT ISZERO PUSH2 0x972 JUMPI PUSH0 DUP7 PUSH2 0x160 ADD MLOAD DUP3 PUSH1 0x1C DUP2 LT PUSH2 0x8C6 JUMPI PUSH2 0x8C6 PUSH2 0x5589 JUMP JUMPDEST PUSH1 0x20 MUL ADD MLOAD DUP1 MLOAD SWAP1 SWAP2 POP PUSH0 SWAP1 PUSH2 0x8E4 SWAP1 DUP4 PUSH1 0x1 JUMPDEST PUSH1 0x20 MUL ADD MLOAD PUSH2 0x1FCC JUMP JUMPDEST SWAP1 POP DUP5 DUP2 EQ PUSH2 0x906 JUMPI PUSH1 0x40 MLOAD PUSH4 0x13F87443 PUSH1 0xE3 SHL DUP2 MSTORE PUSH1 0x4 ADD PUSH1 0x40 MLOAD DUP1 SWAP2 SUB SWAP1 REVERT JUMPDEST PUSH0 DUP8 PUSH1 0x80 ADD MLOAD DUP5 PUSH1 0x1C DUP2 LT PUSH2 0x91D JUMPI PUSH2 0x91D PUSH2 0x5589 JUMP JUMPDEST PUSH1 0x20 MUL ADD MLOAD SWAP1 POP PUSH2 0x92E DUP4 DUP3 PUSH2 0x2022 JUMP JUMPDEST SWAP6 POP PUSH2 0x962 DUP6 PUSH2 0x727 PUSH1 0x1 PUSH2 0x72C DUP6 PUSH2 0x727 DUP15 PUSH1 0x40 ADD MLOAD DUP12 PUSH1 0x1C DUP2 LT PUSH2 0x956 JUMPI PUSH2 0x956 PUSH2 0x5589 JUMP JUMPDEST PUSH1 0x20 MUL ADD MLOAD PUSH1 0x1 PUSH2 0x1FE5 JUMP JUMPDEST SWAP5 POP POP POP POP DUP1 PUSH1 0x1 ADD SWAP1 POP PUSH2 0x886 JUMP JUMPDEST POP PUSH0 PUSH2 0x98C DUP7 PUSH2 0x180 ADD MLOAD DUP7 PUSH0 ADD MLOAD DUP8 PUSH1 0x20 ADD MLOAD DUP6 PUSH2 0x21D0 JUMP JUMPDEST SWAP1 POP PUSH1 0x1 PUSH1 0x2 JUMPDEST PUSH32 0x0 DUP2 LT ISZERO PUSH2 0x9E9 JUMPI PUSH2 0x9DF DUP3 DUP9 PUSH1 0x80 ADD MLOAD DUP4 PUSH1 0x1C DUP2 LT PUSH2 0x9D5 JUMPI PUSH2 0x9D5 PUSH2 0x5589 JUMP JUMPDEST PUSH1 0x20 MUL ADD MLOAD PUSH2 0x1FB3 JUMP JUMPDEST SWAP2 POP PUSH1 0x1 ADD PUSH2 0x993 JUMP JUMPDEST POP PUSH2 0xA0F PUSH2 0x9FC DUP4 PUSH2 0x727 PUSH1 0x1 DUP6 PUSH2 0x1FE5 JUMP JUMPDEST PUSH2 0x72C DUP10 PUSH2 0x1A0 ADD MLOAD DUP10 PUSH1 0x60 ADD MLOAD PUSH2 0x1FB3 JUMP JUMPDEST SWAP4 SWAP1 SWAP4 EQ SWAP7 SWAP6 POP POP POP POP POP POP JUMP JUMPDEST PUSH0 PUSH2 0xA26 PUSH2 0x4C7D JUMP JUMPDEST PUSH0 PUSH2 0xA34 DUP5 PUSH1 0xC0 ADD MLOAD PUSH2 0x224A JUMP JUMPDEST SWAP1 POP PUSH2 0xA3E PUSH2 0x4CE1 JUMP JUMPDEST PUSH2 0xA46 PUSH2 0x4D00 JUMP JUMPDEST PUSH2 0x100 DUP7 ADD MLOAD PUSH2 0xA66 SWAP1 PUSH2 0xA61 SWAP1 DUP6 PUSH0 JUMPDEST PUSH1 0x20 MUL ADD MLOAD PUSH2 0x1FE5 JUMP JUMPDEST PUSH2 0x22AF JUMP JUMPDEST PUSH1 0xE0 DUP6 ADD MSTORE PUSH2 0x100 DUP7 ADD MLOAD PUSH2 0xA80 SWAP1 PUSH2 0xA61 SWAP1 DUP6 PUSH0 PUSH2 0x8DA JUMP JUMPDEST PUSH2 0x100 DUP6 ADD DUP2 SWAP1 MSTORE PUSH1 0xE0 DUP1 DUP7 ADD MLOAD SWAP1 DUP9 ADD MLOAD PUSH2 0xAA0 SWAP3 PUSH2 0x72C SWAP2 SWAP1 PUSH2 0x1FB3 JUMP JUMPDEST DUP5 MSTORE PUSH1 0xC0 DUP7 ADD MLOAD PUSH2 0xACF SWAP1 PUSH2 0xAB4 SWAP1 PUSH2 0x22AF JUMP JUMPDEST PUSH2 0x727 DUP7 PUSH1 0xE0 ADD MLOAD PUSH2 0x74A DUP11 PUSH1 0xE0 ADD MLOAD DUP10 PUSH2 0x100 ADD MLOAD PUSH2 0x1FB3 JUMP JUMPDEST PUSH1 0x20 DUP6 ADD MSTORE PUSH1 0x1 DUP3 MSTORE PUSH2 0x260 DUP9 ADD MLOAD PUSH2 0xAE7 SWAP1 PUSH2 0x2318 JUMP JUMPDEST DUP2 MSTORE PUSH2 0x1E0 DUP9 ADD MLOAD PUSH1 0x80 DUP6 ADD MSTORE PUSH1 0xA0 DUP7 ADD MLOAD PUSH1 0x60 DUP6 ADD MSTORE DUP4 MLOAD PUSH2 0xB09 SWAP1 PUSH2 0x2362 JUMP JUMPDEST PUSH1 0x20 DUP4 ADD MSTORE PUSH0 JUMPDEST PUSH1 0x24 DUP2 LT ISZERO PUSH2 0xBAD JUMPI PUSH2 0xB32 PUSH2 0xB28 DUP7 PUSH0 ADD MLOAD PUSH2 0x2362 JUMP JUMPDEST DUP7 PUSH1 0x60 ADD MLOAD PUSH2 0x1FB3 JUMP JUMPDEST DUP4 PUSH2 0xB3E DUP4 PUSH1 0x2 PUSH2 0x554F JUMP JUMPDEST PUSH1 0x4B DUP2 LT PUSH2 0xB4E JUMPI PUSH2 0xB4E PUSH2 0x5589 JUMP JUMPDEST PUSH1 0x20 MUL ADD MSTORE PUSH1 0x80 DUP6 ADD MLOAD PUSH2 0x180 DUP11 ADD MLOAD PUSH2 0xB87 SWAP2 SWAP1 PUSH2 0x72C SWAP1 DUP5 PUSH1 0x29 DUP2 LT PUSH2 0xB78 JUMPI PUSH2 0xB78 PUSH2 0x5589 JUMP JUMPDEST PUSH1 0x20 MUL ADD MLOAD DUP9 PUSH1 0x60 ADD MLOAD PUSH2 0x1FB3 JUMP JUMPDEST PUSH1 0x80 DUP7 ADD MSTORE PUSH1 0x60 DUP6 ADD MLOAD PUSH1 0xA0 DUP9 ADD MLOAD PUSH2 0xBA0 SWAP2 SWAP1 PUSH2 0x1FB3 JUMP JUMPDEST PUSH1 0x60 DUP7 ADD MSTORE PUSH1 0x1 ADD PUSH2 0xB10 JUMP JUMPDEST POP PUSH1 0x24 JUMPDEST PUSH1 0x29 DUP2 LT ISZERO PUSH2 0xC36 JUMPI PUSH2 0xBCA PUSH2 0xB28 DUP7 PUSH1 0x20 ADD MLOAD PUSH2 0x2362 JUMP JUMPDEST DUP4 PUSH2 0xBD6 DUP4 PUSH1 0x2 PUSH2 0x554F JUMP JUMPDEST PUSH1 0x4B DUP2 LT PUSH2 0xBE6 JUMPI PUSH2 0xBE6 PUSH2 0x5589 JUMP JUMPDEST PUSH1 0x20 MUL ADD MSTORE PUSH1 0x80 DUP6 ADD MLOAD PUSH2 0x180 DUP11 ADD MLOAD PUSH2 0xC10 SWAP2 SWAP1 PUSH2 0x72C SWAP1 DUP5 PUSH1 0x29 DUP2 LT PUSH2 0xB78 JUMPI PUSH2 0xB78 PUSH2 0x5589 JUMP JUMPDEST PUSH1 0x80 DUP7 ADD MSTORE PUSH1 0x60 DUP6 ADD MLOAD PUSH1 0xA0 DUP9 ADD MLOAD PUSH2 0xC29 SWAP2 SWAP1 PUSH2 0x1FB3 JUMP JUMPDEST PUSH1 0x60 DUP7 ADD MSTORE PUSH1 0x1 ADD PUSH2 0xBB1 JUMP JUMPDEST POP PUSH2 0xC45 DUP9 PUSH2 0x1C0 ADD MLOAD PUSH2 0x2318 JUMP JUMPDEST DUP2 PUSH1 0x1 PUSH1 0x20 MUL ADD MSTORE PUSH1 0x60 DUP8 ADD MLOAD DUP2 PUSH1 0x2 PUSH1 0x20 MUL ADD MSTORE PUSH1 0x80 DUP8 ADD MLOAD DUP2 PUSH1 0x3 PUSH1 0x20 MUL ADD MSTORE PUSH1 0xA0 DUP8 ADD MLOAD DUP2 PUSH1 0x4 PUSH1 0x20 MUL ADD MSTORE PUSH1 0xC0 DUP8 ADD MLOAD DUP2 PUSH1 0x5 PUSH1 0x20 MUL ADD MSTORE PUSH1 0xE0 DUP8 ADD MLOAD DUP2 PUSH1 0x6 PUSH1 0x20 MUL ADD MSTORE PUSH2 0x100 DUP8 ADD MLOAD DUP2 PUSH1 0x7 PUSH1 0x20 MUL ADD MSTORE PUSH2 0x120 DUP8 ADD MLOAD DUP2 PUSH1 0x8 PUSH1 0x20 MUL ADD MSTORE PUSH2 0x140 DUP8 ADD MLOAD DUP2 PUSH1 0x9 PUSH1 0x20 MUL ADD MSTORE PUSH2 0x160 DUP8 ADD MLOAD DUP2 PUSH1 0xA PUSH1 0x20 MUL ADD MSTORE PUSH2 0x1C0 DUP8 ADD MLOAD DUP2 PUSH1 0xB PUSH1 0x20 MUL ADD MSTORE PUSH2 0x180 DUP8 ADD MLOAD DUP2 PUSH1 0xC PUSH1 0x20 MUL ADD MSTORE PUSH2 0x1A0 DUP8 ADD MLOAD DUP2 PUSH1 0xD PUSH1 0x20 MUL ADD MSTORE PUSH2 0x1E0 DUP8 ADD MLOAD DUP2 PUSH1 0xE PUSH1 0x20 MUL ADD MSTORE PUSH2 0x200 DUP8 ADD MLOAD DUP2 PUSH1 0xF PUSH1 0x20 MUL ADD MSTORE PUSH2 0x220 DUP8 ADD MLOAD DUP2 PUSH1 0x10 PUSH1 0x20 MUL ADD MSTORE PUSH2 0x240 DUP8 ADD MLOAD DUP2 PUSH1 0x11 PUSH1 0x20 MUL ADD MSTORE PUSH2 0x260 DUP8 ADD MLOAD DUP2 PUSH1 0x12 PUSH1 0x20 MUL ADD MSTORE PUSH2 0x280 DUP8 ADD MLOAD DUP2 PUSH1 0x13 PUSH1 0x20 MUL ADD MSTORE PUSH2 0x2A0 DUP8 ADD MLOAD DUP2 PUSH1 0x14 PUSH1 0x20 MUL ADD MSTORE PUSH2 0x2C0 DUP8 ADD MLOAD DUP2 PUSH1 0x15 PUSH1 0x20 MUL ADD MSTORE PUSH2 0x2E0 DUP8 ADD MLOAD DUP2 PUSH1 0x16 PUSH1 0x20 MUL ADD MSTORE PUSH2 0x300 DUP8 ADD MLOAD DUP2 PUSH1 0x17 PUSH1 0x20 MUL ADD MSTORE PUSH2 0x320 DUP8 ADD MLOAD DUP2 PUSH1 0x18 PUSH1 0x20 MUL ADD MSTORE PUSH2 0x340 DUP8 ADD MLOAD DUP2 PUSH1 0x19 PUSH1 0x20 MUL ADD MSTORE PUSH2 0x360 DUP8 ADD MLOAD DUP2 PUSH1 0x1A PUSH1 0x20 MUL ADD MSTORE PUSH2 0x380 DUP8 ADD MLOAD DUP2 PUSH1 0x1B PUSH1 0x20 MUL ADD MSTORE PUSH2 0x3A0 DUP8 ADD MLOAD DUP2 PUSH1 0x1C PUSH1 0x20 MUL ADD MSTORE PUSH2 0x3C0 DUP8 ADD MLOAD DUP2 PUSH1 0x1D PUSH1 0x20 MUL ADD DUP2 SWAP1 MSTORE POP PUSH2 0xDE0 DUP9 PUSH1 0x20 ADD MLOAD PUSH2 0x2318 JUMP JUMPDEST PUSH2 0x3C0 DUP3 ADD MSTORE PUSH1 0x40 DUP9 ADD MLOAD PUSH2 0xDF4 SWAP1 PUSH2 0x2318 JUMP JUMPDEST PUSH2 0x3E0 DUP3 ADD MSTORE PUSH1 0x60 DUP9 ADD MLOAD PUSH2 0xE08 SWAP1 PUSH2 0x2318 JUMP JUMPDEST PUSH2 0x400 DUP3 ADD MSTORE PUSH1 0x80 DUP9 ADD MLOAD PUSH2 0xE1C SWAP1 PUSH2 0x2318 JUMP JUMPDEST PUSH2 0x420 DUP3 ADD MSTORE PUSH2 0x100 DUP9 ADD MLOAD PUSH2 0xE31 SWAP1 PUSH2 0x2318 JUMP JUMPDEST PUSH2 0x440 DUP3 ADD MSTORE PUSH1 0xE0 DUP9 ADD MLOAD PUSH2 0xE45 SWAP1 PUSH2 0x2318 JUMP JUMPDEST PUSH2 0x460 DUP3 ADD MSTORE PUSH1 0xA0 DUP9 ADD MLOAD PUSH2 0xE59 SWAP1 PUSH2 0x2318 JUMP JUMPDEST PUSH2 0x480 DUP3 ADD MSTORE PUSH1 0xC0 DUP9 ADD MLOAD PUSH2 0xE6D SWAP1 PUSH2 0x2318 JUMP JUMPDEST PUSH2 0x4A0 DUP3 ADD MSTORE PUSH1 0x20 DUP9 ADD MLOAD PUSH2 0xE81 SWAP1 PUSH2 0x2318 JUMP JUMPDEST PUSH2 0x4C0 DUP3 ADD MSTORE PUSH1 0x40 DUP9 ADD MLOAD PUSH2 0xE95 SWAP1 PUSH2 0x2318 JUMP JUMPDEST PUSH2 0x4E0 DUP3 ADD MSTORE PUSH1 0x60 DUP9 ADD MLOAD PUSH2 0xEA9 SWAP1 PUSH2 0x2318 JUMP JUMPDEST PUSH2 0x500 DUP3 ADD MSTORE PUSH1 0x80 DUP9 ADD MLOAD PUSH2 0xEBD SWAP1 PUSH2 0x2318 JUMP JUMPDEST PUSH2 0x520 DUP3 ADD MSTORE PUSH2 0x100 DUP9 ADD MLOAD PUSH2 0xED2 SWAP1 PUSH2 0x2318 JUMP JUMPDEST DUP2 PUSH1 0x2A PUSH1 0x20 MUL ADD DUP2 SWAP1 MSTORE POP PUSH0 PUSH2 0xF18 DUP8 PUSH1 0x80 ADD MLOAD DUP7 PUSH1 0x80 ADD MLOAD DUP12 PUSH2 0x220 ADD MLOAD DUP8 PUSH32 0x0 PUSH2 0x237A JUMP JUMPDEST DUP1 MLOAD PUSH1 0xE0 DUP8 ADD MLOAD SWAP2 SWAP3 POP PUSH2 0xF2B SWAP2 PUSH2 0x1FB3 JUMP JUMPDEST PUSH1 0x40 DUP7 ADD DUP2 SWAP1 MSTORE PUSH2 0x220 DUP11 ADD MLOAD MLOAD PUSH1 0xE0 DUP10 ADD MLOAD PUSH2 0xF5C SWAP3 SWAP2 PUSH2 0x72C SWAP2 PUSH2 0xF51 SWAP2 SWAP1 PUSH2 0x1FB3 JUMP JUMPDEST DUP9 PUSH2 0x100 ADD MLOAD PUSH2 0x1FB3 JUMP JUMPDEST PUSH1 0x40 DUP7 ADD MSTORE PUSH1 0xE0 DUP8 ADD MLOAD PUSH2 0xF6F SWAP1 PUSH2 0x2495 JUMP JUMPDEST PUSH1 0x60 DUP7 ADD MSTORE PUSH0 PUSH2 0xF81 PUSH1 0x29 PUSH1 0x2 PUSH2 0x554F JUMP JUMPDEST SWAP1 POP PUSH0 JUMPDEST PUSH2 0xF91 PUSH1 0x1 PUSH1 0x1C PUSH2 0x4FF1 JUMP JUMPDEST DUP2 LT ISZERO PUSH2 0x117F JUMPI PUSH0 PUSH2 0xFC4 PUSH1 0x1 PUSH32 0x0 PUSH2 0x4FF1 JUMP JUMPDEST DUP3 LT ISZERO SWAP1 POP DUP1 PUSH2 0x110D JUMPI PUSH2 0xFF8 PUSH2 0xA61 DUP12 PUSH2 0x100 ADD MLOAD DUP10 DUP6 PUSH1 0x1 PUSH2 0xFE8 SWAP2 SWAP1 PUSH2 0x554F JUMP JUMPDEST PUSH1 0x1C DUP2 LT PUSH2 0xA57 JUMPI PUSH2 0xA57 PUSH2 0x5589 JUMP JUMPDEST PUSH1 0xE0 DUP10 ADD MSTORE PUSH2 0x100 DUP11 ADD MLOAD PUSH2 0x1027 SWAP1 PUSH2 0xA61 SWAP1 DUP10 PUSH2 0x1017 DUP7 PUSH1 0x1 PUSH2 0x554F JUMP JUMPDEST PUSH1 0x1C DUP2 LT PUSH2 0x8DA JUMPI PUSH2 0x8DA PUSH2 0x5589 JUMP JUMPDEST PUSH2 0x100 DUP10 ADD MSTORE PUSH1 0x60 DUP9 ADD MLOAD PUSH1 0xE0 DUP10 ADD MLOAD PUSH2 0x1041 SWAP2 SWAP1 PUSH2 0x1FB3 JUMP JUMPDEST PUSH2 0x120 DUP10 ADD MSTORE PUSH1 0x60 DUP9 ADD MLOAD PUSH1 0xE0 DUP12 ADD MLOAD PUSH2 0x1069 SWAP2 PUSH2 0x105E SWAP2 PUSH2 0x1FB3 JUMP JUMPDEST DUP10 PUSH2 0x100 ADD MLOAD PUSH2 0x1FB3 JUMP JUMPDEST PUSH2 0x140 DUP10 ADD DUP2 SWAP1 MSTORE PUSH2 0x108C SWAP1 PUSH2 0x107E SWAP1 PUSH2 0x2362 JUMP JUMPDEST PUSH2 0x72C DUP11 PUSH2 0x120 ADD MLOAD PUSH2 0x2362 JUMP JUMPDEST DUP7 PUSH2 0x1097 DUP5 DUP7 PUSH2 0x554F JUMP JUMPDEST PUSH1 0x4B DUP2 LT PUSH2 0x10A7 JUMPI PUSH2 0x10A7 PUSH2 0x5589 JUMP JUMPDEST PUSH1 0x20 MUL ADD MSTORE PUSH2 0x140 DUP9 ADD MLOAD PUSH2 0x220 DUP14 ADD MLOAD PUSH0 SWAP2 PUSH2 0x10D9 SWAP2 PUSH2 0x10C9 DUP7 PUSH1 0x1 PUSH2 0x554F JUMP JUMPDEST PUSH1 0x1C DUP2 LT PUSH2 0x9D5 JUMPI PUSH2 0x9D5 PUSH2 0x5589 JUMP JUMPDEST SWAP1 POP PUSH2 0x10F6 DUP2 PUSH2 0x72C DUP12 PUSH2 0x120 ADD MLOAD DUP9 DUP8 PUSH1 0x1 PUSH2 0x10C9 SWAP2 SWAP1 PUSH2 0x554F JUMP JUMPDEST SWAP1 POP PUSH2 0x1106 DUP10 PUSH1 0x40 ADD MLOAD DUP3 PUSH2 0x1FCC JUMP JUMPDEST PUSH1 0x40 DUP11 ADD MSTORE POP JUMPDEST PUSH2 0x112C PUSH2 0x1122 DUP10 PUSH1 0x60 ADD MLOAD DUP13 PUSH1 0xE0 ADD MLOAD PUSH2 0x1FB3 JUMP JUMPDEST DUP12 PUSH1 0xE0 ADD MLOAD PUSH2 0x1FB3 JUMP JUMPDEST PUSH1 0x60 DUP10 ADD MSTORE PUSH2 0x200 DUP13 ADD MLOAD PUSH2 0x1156 SWAP1 DUP4 PUSH1 0x1B DUP2 LT PUSH2 0x114C JUMPI PUSH2 0x114C PUSH2 0x5589 JUMP JUMPDEST PUSH1 0x20 MUL ADD MLOAD PUSH2 0x2318 JUMP JUMPDEST DUP6 PUSH2 0x1161 DUP5 DUP7 PUSH2 0x554F JUMP JUMPDEST PUSH1 0x4B DUP2 LT PUSH2 0x1171 JUMPI PUSH2 0x1171 PUSH2 0x5589 JUMP JUMPDEST PUSH1 0x20 MUL ADD MSTORE POP PUSH1 0x1 ADD PUSH2 0xF85 JUMP JUMPDEST POP PUSH2 0x118C PUSH1 0x1 PUSH1 0x1C PUSH2 0x4FF1 JUMP JUMPDEST PUSH2 0x1196 SWAP1 DUP3 PUSH2 0x554F JUMP JUMPDEST SWAP1 POP PUSH2 0x11B6 PUSH2 0x11AE DUP10 PUSH2 0x100 ADD MLOAD DUP11 PUSH1 0xC0 ADD MLOAD PUSH2 0x1FE5 JUMP JUMPDEST PUSH1 0x1 SWAP1 PUSH2 0x2014 JUMP JUMPDEST PUSH1 0xA0 DUP8 ADD MLOAD MSTORE PUSH2 0x100 DUP9 ADD MLOAD PUSH1 0xC0 DUP10 ADD MLOAD PUSH2 0x11FA SWAP2 PUSH2 0x11AE SWAP2 PUSH2 0x74A SWAP1 PUSH32 0x7B0C561A6148404F086204A9F36FFB0617942546750F230C893619174A57A76 SWAP1 PUSH2 0x1FB3 JUMP JUMPDEST PUSH1 0xA0 DUP8 ADD DUP1 MLOAD PUSH1 0x20 ADD SWAP2 SWAP1 SWAP2 MSTORE DUP1 MLOAD DUP1 MLOAD PUSH1 0x40 SWAP1 SWAP2 ADD MSTORE MLOAD DUP1 MLOAD PUSH1 0x60 SWAP2 DUP3 ADD MSTORE DUP7 ADD MLOAD PUSH1 0xE0 DUP10 ADD MLOAD PUSH2 0x1239 SWAP2 PUSH2 0x122F SWAP2 PUSH2 0x1FB3 JUMP JUMPDEST DUP10 PUSH1 0xE0 ADD MLOAD PUSH2 0x1FB3 JUMP JUMPDEST PUSH1 0x60 DUP8 ADD MSTORE PUSH0 JUMPDEST PUSH1 0x4 DUP2 LT ISZERO PUSH2 0x12E6 JUMPI PUSH0 PUSH2 0x1272 DUP9 PUSH1 0xA0 ADD MLOAD DUP4 PUSH1 0x4 DUP2 LT PUSH2 0x1263 JUMPI PUSH2 0x1263 PUSH2 0x5589 JUMP JUMPDEST PUSH1 0x20 MUL ADD MLOAD DUP10 PUSH1 0x60 ADD MLOAD PUSH2 0x1FB3 JUMP JUMPDEST SWAP1 POP PUSH2 0x127D DUP2 PUSH2 0x2362 JUMP JUMPDEST DUP9 PUSH1 0xC0 ADD MLOAD DUP4 PUSH1 0x4 DUP2 LT PUSH2 0x1293 JUMPI PUSH2 0x1293 PUSH2 0x5589 JUMP JUMPDEST PUSH1 0x20 MUL ADD MSTORE PUSH1 0x60 DUP9 ADD MLOAD PUSH1 0xE0 DUP12 ADD MLOAD PUSH2 0x12AC SWAP2 SWAP1 PUSH2 0x1FB3 JUMP JUMPDEST DUP9 PUSH1 0x60 ADD DUP2 DUP2 MSTORE POP POP PUSH2 0x12D8 DUP9 PUSH1 0x40 ADD MLOAD PUSH2 0x72C DUP4 DUP16 PUSH2 0x240 ADD MLOAD DUP7 PUSH1 0x4 DUP2 LT PUSH2 0x9D5 JUMPI PUSH2 0x9D5 PUSH2 0x5589 JUMP JUMPDEST PUSH1 0x40 DUP10 ADD MSTORE POP PUSH1 0x1 ADD PUSH2 0x1240 JUMP JUMPDEST POP PUSH1 0xC0 DUP7 ADD MLOAD MLOAD DUP5 DUP3 PUSH1 0x4B DUP2 LT PUSH2 0x12FF JUMPI PUSH2 0x12FF PUSH2 0x5589 JUMP JUMPDEST PUSH1 0x20 MUL ADD MSTORE PUSH1 0xC0 DUP7 ADD MLOAD PUSH2 0x1320 SWAP1 PUSH1 0x1 PUSH1 0x20 MUL ADD MLOAD PUSH1 0xC0 DUP9 ADD MLOAD PUSH1 0x2 PUSH2 0x8DA JUMP JUMPDEST DUP5 PUSH2 0x132C DUP4 PUSH1 0x1 PUSH2 0x554F JUMP JUMPDEST PUSH1 0x4B DUP2 LT PUSH2 0x133C JUMPI PUSH2 0x133C PUSH2 0x5589 JUMP JUMPDEST PUSH1 0x20 MUL ADD MSTORE PUSH1 0xC0 DUP7 ADD MLOAD PUSH1 0x60 ADD MLOAD DUP5 PUSH2 0x1356 DUP4 PUSH1 0x2 PUSH2 0x554F JUMP JUMPDEST PUSH1 0x4B DUP2 LT PUSH2 0x1366 JUMPI PUSH2 0x1366 PUSH2 0x5589 JUMP JUMPDEST PUSH1 0x20 MUL ADD MSTORE PUSH0 JUMPDEST PUSH1 0x3 DUP2 LT ISZERO PUSH2 0x13BA JUMPI PUSH2 0x1390 DUP12 PUSH2 0x120 ADD MLOAD DUP3 PUSH1 0x3 DUP2 LT PUSH2 0x114C JUMPI PUSH2 0x114C PUSH2 0x5589 JUMP JUMPDEST DUP5 DUP4 PUSH2 0x139B DUP2 PUSH2 0x559D JUMP JUMPDEST SWAP5 POP PUSH1 0x4B DUP2 LT PUSH2 0x13AD JUMPI PUSH2 0x13AD PUSH2 0x5589 JUMP JUMPDEST PUSH1 0x20 MUL ADD MSTORE PUSH1 0x1 ADD PUSH2 0x136D JUMP JUMPDEST POP PUSH1 0x40 MLOAD DUP1 PUSH1 0x40 ADD PUSH1 0x40 MSTORE DUP1 PUSH1 0x1 DUP2 MSTORE PUSH1 0x20 ADD PUSH1 0x2 DUP2 MSTORE POP DUP4 DUP3 PUSH1 0x4B DUP2 LT PUSH2 0x13E4 JUMPI PUSH2 0x13E4 PUSH2 0x5589 JUMP JUMPDEST PUSH1 0x20 MUL ADD MSTORE PUSH1 0x40 DUP7 ADD MLOAD DUP5 DUP3 PUSH2 0x13F9 DUP2 PUSH2 0x559D JUMP JUMPDEST SWAP4 POP PUSH1 0x4B DUP2 LT PUSH2 0x140B JUMPI PUSH2 0x140B PUSH2 0x5589 JUMP JUMPDEST PUSH1 0x20 MUL ADD DUP2 DUP2 MSTORE POP POP PUSH2 0x1432 DUP11 PUSH2 0x240 ADD MLOAD DUP10 PUSH1 0xC0 ADD MLOAD DUP11 PUSH1 0x80 ADD MLOAD DUP14 PUSH2 0x1A0 ADD MLOAD PUSH2 0x24A0 JUMP JUMPDEST PUSH2 0x144F JUMPI PUSH1 0x40 MLOAD PUSH4 0xA2A2AC83 PUSH1 0xE0 SHL DUP2 MSTORE PUSH1 0x4 ADD PUSH1 0x40 MLOAD DUP1 SWAP2 SUB SWAP1 REVERT JUMPDEST PUSH0 PUSH2 0x145E DUP12 PUSH2 0x280 ADD MLOAD PUSH2 0x2318 JUMP JUMPDEST SWAP1 POP DUP1 DUP5 DUP4 PUSH1 0x4B DUP2 LT PUSH2 0x1473 JUMPI PUSH2 0x1473 PUSH2 0x5589 JUMP JUMPDEST PUSH1 0x20 MUL ADD MSTORE PUSH2 0x100 DUP10 ADD MLOAD DUP6 DUP4 PUSH1 0x4B DUP2 LT PUSH2 0x1490 JUMPI PUSH2 0x1490 PUSH2 0x5589 JUMP JUMPDEST PUSH1 0x20 MUL ADD MSTORE PUSH0 PUSH2 0x14A0 DUP6 DUP8 PUSH2 0x27E3 JUMP JUMPDEST SWAP1 POP PUSH0 PUSH2 0x14AC DUP4 PUSH2 0x28C0 JUMP JUMPDEST SWAP1 POP PUSH2 0x14B8 DUP3 DUP3 PUSH2 0x2937 JUMP JUMPDEST SWAP14 SWAP13 POP POP POP POP POP POP POP POP POP POP POP POP POP JUMP JUMPDEST PUSH2 0x14D1 PUSH2 0x4687 JUMP JUMPDEST POP PUSH1 0x40 DUP1 MLOAD PUSH2 0x3E0 DUP2 ADD DUP3 MSTORE PUSH3 0x80000 DUP2 MSTORE PUSH1 0x13 PUSH1 0x20 DUP1 DUP4 ADD SWAP2 SWAP1 SWAP2 MSTORE PUSH1 0x19 DUP3 DUP5 ADD MSTORE DUP3 MLOAD DUP1 DUP5 ADD DUP5 MSTORE PUSH32 0x1EBEAFF82D5DD3D1D0E0A48954104551717714D2BAB4C8D24AC31B6D9D5EBB7B DUP2 MSTORE PUSH32 0x28DEBBD1E8CBEFDCF6F3B25E3E6F92C383C86A79E67685316B660872C205283F DUP2 DUP4 ADD MSTORE PUSH1 0x60 DUP4 ADD MSTORE DUP3 MLOAD DUP1 DUP5 ADD DUP5 MSTORE PUSH32 0x1AA54D5AEFF06DECE7F83C626DAFCAC5CA36BB1FBF322350D7BD05EF2F277682 DUP2 MSTORE PUSH32 0x1BD2CBFF1813AC3BFC247D11ABA0F3131718F25A3448553872151EBDC0055FC8 DUP2 DUP4 ADD MSTORE PUSH1 0x80 DUP4 ADD MSTORE DUP3 MLOAD DUP1 DUP5 ADD DUP5 MSTORE PUSH32 0x102649EE03E95E2527E58E5F13CCC404BB29E70FE9AD84FB1285497A7067892A DUP2 MSTORE PUSH32 0x1F01F9CDC91C882C869E570189ACED1E7DC61639B1AD972FC3AFF00361216816 DUP2 DUP4 ADD MSTORE PUSH1 0xA0 DUP4 ADD MSTORE DUP3 MLOAD DUP1 DUP5 ADD DUP5 MSTORE PUSH32 0x1B51A4AC293F16613A5EBCB3501DFD0248600BF65709E27DA6AC0017FA56168D DUP2 MSTORE PUSH32 0x129E2F7A3DCBE008D96091C17E82494C4B481E8D0B1FC0B249EF754ECF4469A4 DUP2 DUP4 ADD MSTORE PUSH1 0xC0 DUP4 ADD MSTORE DUP3 MLOAD DUP1 DUP5 ADD DUP5 MSTORE PUSH32 0x11CA2B6D30613E1A608151EBF115E9AE2BD7874002874CA59813350F1BA7964C DUP2 MSTORE PUSH32 0x1A6D662A6C83DEE871DA46030830E1706F687C87995550AC9300ABFA6956389 DUP2 DUP4 ADD MSTORE PUSH1 0xE0 DUP4 ADD MSTORE DUP3 MLOAD DUP1 DUP5 ADD DUP5 MSTORE PUSH32 0x21A67A8AAE81E2B33014D5F34CB6B92C3AE33E9616019E55164A6B529DAED95D DUP2 MSTORE PUSH32 0x953044FB924D979AD10E5BD68F060C82AC690DBF9B9473AF416327DB165AE6F DUP2 DUP4 ADD MSTORE PUSH2 0x100 DUP4 ADD MSTORE DUP3 MLOAD DUP1 DUP5 ADD DUP5 MSTORE PUSH32 0x2A92A1EC0E908C66594F4F11369A3B25C15C20E3FFCCACAE6F3B00602B62737A DUP2 MSTORE PUSH32 0x501FFDF885D832BE84F89ED06B05A8128A1192B19EA2893E881CDBB7ED94309 DUP2 DUP4 ADD MSTORE PUSH2 0x120 DUP4 ADD MSTORE DUP3 MLOAD DUP1 DUP5 ADD DUP5 MSTORE PUSH32 0x7FE84396EF79C6CA4A96814BBA85C98D5B4F3B4EB1F13F7C197F656B0BA4D75 DUP2 MSTORE PUSH32 0x141AD2151410EF9A59D63956DEF6405153C7DE0FBC6F9C7E8468799CE7B0E6C2 DUP2 DUP4 ADD MSTORE PUSH2 0x140 DUP4 ADD MSTORE DUP3 MLOAD DUP1 DUP5 ADD DUP5 MSTORE PUSH32 0x2A3829F34C9594B460F680D1D8EE11FA1B969ADEE30C0E09A7D99D32426B667B DUP2 MSTORE PUSH32 0x17EAF51D52E9C88F5D8380E78F72899E0ED0E16D70DF3DC910E50FF99185BEC1 DUP2 DUP4 ADD MSTORE PUSH2 0x160 DUP4 ADD MSTORE DUP3 MLOAD DUP1 DUP5 ADD DUP5 MSTORE PUSH32 0x2C101CF32044D140ECB4B5B2DD634554F42B09D308354EE7B3BB2877B541D468 DUP2 MSTORE PUSH32 0x17D9FD61EF8B99F1E8454E9C830F14EA6EFB69DDF53911EA22B10DFE311D364D DUP2 DUP4 ADD MSTORE PUSH2 0x180 DUP4 ADD MSTORE DUP3 MLOAD DUP1 DUP5 ADD DUP5 MSTORE PUSH32 0x52E6974970B1A0677F208DDC9D17B9E20278697E5B4E487D581B2ED6370AB25 DUP2 MSTORE PUSH32 0x26D06637E883A753DDE18E06F9925CBCF15393CC478C8701BCF2B3A12BEC8B10 DUP2 DUP4 ADD MSTORE PUSH2 0x1A0 DUP4 ADD MSTORE DUP3 MLOAD DUP1 DUP5 ADD DUP5 MSTORE PUSH32 0x2334A3DE2490E59FD667D6A11D4EDC636A6D285974D00F1375B050AB0AEFCA80 DUP2 MSTORE PUSH32 0x231A2FD080855C93737B93B1335CEDCDB4580605C6E054CD04C725B596F8E1E5 DUP2 DUP4 ADD MSTORE PUSH2 0x1C0 DUP4 ADD MSTORE DUP3 MLOAD DUP1 DUP5 ADD DUP5 MSTORE PUSH32 0x1773498A87939533450F93A115B6A1122CB2609DD62A6A81F1BC2FAAC12BA31C DUP2 MSTORE PUSH32 0x299A8F007A6A8AEE8635CC3376C0CCB622262F94B696437E3A431E592554C9DF DUP2 DUP4 ADD MSTORE PUSH2 0x1E0 DUP4 ADD MSTORE DUP3 MLOAD DUP1 DUP5 ADD DUP5 MSTORE PUSH32 0xA70EBA7257032EF25BB6B9859CF89A7159DFA5CAC36B8DAF6089FEA22339DA1 DUP2 MSTORE PUSH32 0x587B5924F66466B3CCE4BA90E73D851BC8BA010A30183A2D31A87D0662CB157 DUP2 DUP4 ADD MSTORE PUSH2 0x200 DUP4 ADD MSTORE DUP3 MLOAD DUP1 DUP5 ADD DUP5 MSTORE PUSH32 0x13A9E7F0AD3AFDC5E78A90C18B30BF197CC63AAA73811170FA47A30C35D1D804 DUP2 MSTORE PUSH32 0x1FA66D22DA019C4180F89D47DA475FAE38B9304721FDB8357A1447A08B98459B DUP2 DUP4 ADD MSTORE PUSH2 0x220 DUP4 ADD MSTORE DUP3 MLOAD DUP1 DUP5 ADD DUP5 MSTORE PUSH32 0x2B88277EB500A3C9693E250B539CFE0586292587F507AB936A91A0248EAEA905 DUP2 MSTORE PUSH32 0x1D82652893849D722F8CFE8B3905FA5E8DD07905ABB0237224206DA442AADE93 DUP2 DUP4 ADD MSTORE PUSH2 0x240 DUP4 ADD MSTORE DUP3 MLOAD DUP1 DUP5 ADD DUP5 MSTORE PUSH32 0x15FEE47012F8BD82067F68A5C33988DDE5C99CDB2BEE5E030047E0821B8E6334 DUP2 MSTORE PUSH32 0x2196B36407BA512AF751C3D84094140384716C64E6DF03851D0674CBABE6001E DUP2 DUP4 ADD MSTORE PUSH2 0x260 DUP4 ADD MSTORE DUP3 MLOAD DUP1 DUP5 ADD DUP5 MSTORE PUSH32 0x749A03B4E49E54E3EBE9913F8EC6E4DC39382CC2FDEF405078F6ABC418387FB DUP2 MSTORE PUSH32 0x25506683733C2651D3EB6D97B267B4F8985C266F34E1CF2C545D3A4C64DC4EA2 DUP2 DUP4 ADD MSTORE PUSH2 0x280 DUP4 ADD MSTORE DUP3 MLOAD DUP1 DUP5 ADD DUP5 MSTORE PUSH32 0x1426373280811ECBC71948A5F0AC09EF0DBCCC1897FA574A134982D3875F0368 DUP2 MSTORE PUSH32 0x26E76E993A3D660FBCE8FF7B2F898C2AAC32383E1C2773D86A9255FF3EAF5C07 DUP2 DUP4 ADD MSTORE PUSH2 0x2A0 DUP4 ADD MSTORE DUP3 MLOAD DUP1 DUP5 ADD DUP5 MSTORE PUSH32 0x13806E96B1F1E0D0D12E4C2151EAC1BC2E6AD9517A140A83AD6CF849423B39B0 DUP2 MSTORE PUSH32 0x14D5842008A199CA8C4A308D61FD81A29F632662E9961D3E61FEE8BE4248BF49 DUP2 DUP4 ADD MSTORE PUSH2 0x2C0 DUP4 ADD MSTORE DUP3 MLOAD DUP1 DUP5 ADD DUP5 MSTORE PUSH32 0x7CDDB298716577503BD81C94DC802232583E8D8CEF287F424AEB80989E0718B DUP2 MSTORE PUSH32 0x14290B7FA1E0A3B1E8834813F2B76AF30B93B4CE5450430303AA6C6BF7DC9A02 DUP2 DUP4 ADD MSTORE PUSH2 0x2E0 DUP4 ADD MSTORE DUP3 MLOAD DUP1 DUP5 ADD DUP5 MSTORE PUSH32 0x2A6E32882CA6E194734EC502E224E0807638DA1E0430C31FF79069C8769DAAAE DUP2 MSTORE PUSH32 0x2574C743AB6CF5224E8FC6C9DE5AF906C2A861D773D4FD792AACBFA7200D2841 DUP2 DUP4 ADD MSTORE PUSH2 0x300 DUP4 ADD MSTORE DUP3 MLOAD DUP1 DUP5 ADD DUP5 MSTORE PUSH32 0x2FA5DAE074FF634B099C3816D611A18B5AE5C966C0DC02A8F2EF7AE71EA4C4AA DUP2 MSTORE PUSH32 0x6C2094719643C823295C6966612A6697909F317B5BAABC802388204EE304DC3 DUP2 DUP4 ADD MSTORE PUSH2 0x320 DUP4 ADD MSTORE DUP3 MLOAD DUP1 DUP5 ADD DUP5 MSTORE PUSH32 0x2D3EC9FE3CA17F60DCF9817A3327124A453F3F8756BD060BF7E6052F295CA65E DUP2 MSTORE PUSH32 0xFA1A94EFC1C0486ECD304B7EE8CA5F36ECB396947A145D6E57142604C669A82 DUP2 DUP4 ADD MSTORE PUSH2 0x340 DUP4 ADD MSTORE DUP3 MLOAD DUP1 DUP5 ADD DUP5 MSTORE PUSH32 0x25BF70072A2559553A45AF25A69CEC8630C1C6F90F6B31B7FF0FFE864DDEA91F DUP2 MSTORE PUSH32 0x1401EB7F37533E509C87E6AB90F8235B971A66EBE67A21737A6AA4961F9A336F DUP2 DUP4 ADD MSTORE PUSH2 0x360 DUP4 ADD MSTORE DUP3 MLOAD DUP1 DUP5 ADD DUP5 MSTORE PUSH32 0x2D20A12EEB60DB8369503F13FA35E7134B2E96DDED7000073E3013DA4214BD2C DUP2 MSTORE PUSH32 0x2DB90E0A41A20819AE326EC971B7273D8ED1B910CAD4406813C680E4F0576A61 DUP2 DUP4 ADD MSTORE PUSH2 0x380 DUP4 ADD MSTORE DUP3 MLOAD DUP1 DUP5 ADD DUP5 MSTORE PUSH1 0x1 DUP2 MSTORE PUSH1 0x2 DUP2 DUP4 ADD MSTORE PUSH2 0x3A0 DUP4 ADD MSTORE DUP3 MLOAD DUP1 DUP5 ADD SWAP1 SWAP4 MSTORE PUSH31 0x59672B436D930B33BAEEB48ECCA7A61E24F62D5C0CD7475A8C3C0E8639CF0B DUP4 MSTORE PUSH32 0x9F4F587FEDCC33313DD15DBA3F63FDF644D32A0B01A34CECD0DDC4DB880EBDE SWAP1 DUP4 ADD MSTORE PUSH2 0x3C0 DUP2 ADD SWAP2 SWAP1 SWAP2 MSTORE SWAP1 JUMP JUMPDEST PUSH0 PUSH1 0x20 DUP3 EQ PUSH2 0x1E70 JUMPI PUSH1 0x40 MLOAD PUSH3 0x461BCD PUSH1 0xE5 SHL DUP2 MSTORE PUSH1 0x20 PUSH1 0x4 DUP3 ADD MSTORE PUSH1 0x2E PUSH1 0x24 DUP3 ADD MSTORE PUSH32 0x696E76616C6964206E756D626572206F6620627974657320746F20636F6E7374 PUSH1 0x44 DUP3 ADD MSTORE PUSH14 0x393AB1BA1023391039B1B0B630B9 PUSH1 0x91 SHL PUSH1 0x64 DUP3 ADD MSTORE PUSH1 0x84 ADD JUMPDEST PUSH1 0x40 MLOAD DUP1 SWAP2 SUB SWAP1 REVERT JUMPDEST PUSH2 0x1E7D PUSH2 0x722 DUP4 DUP6 PUSH2 0x55B5 JUMP JUMPDEST SWAP4 SWAP3 POP POP POP JUMP JUMPDEST PUSH2 0x1EAB PUSH1 0x40 MLOAD DUP1 PUSH1 0x80 ADD PUSH1 0x40 MSTORE DUP1 PUSH0 DUP2 MSTORE PUSH1 0x20 ADD PUSH0 DUP2 MSTORE PUSH1 0x20 ADD PUSH0 DUP2 MSTORE PUSH1 0x20 ADD PUSH0 DUP2 MSTORE POP SWAP1 JUMP JUMPDEST PUSH1 0x80 DUP3 EQ PUSH2 0x1F13 JUMPI PUSH1 0x40 MLOAD PUSH3 0x461BCD PUSH1 0xE5 SHL DUP2 MSTORE PUSH1 0x20 PUSH1 0x4 DUP3 ADD MSTORE PUSH1 0x2F PUSH1 0x24 DUP3 ADD MSTORE PUSH32 0x696E76616C6964206E756D626572206F6620627974657320746F20636F6E7374 PUSH1 0x44 DUP3 ADD MSTORE PUSH15 0x1C9D58DD08184811CC481C1BDA5B9D PUSH1 0x8A SHL PUSH1 0x64 DUP3 ADD MSTORE PUSH1 0x84 ADD PUSH2 0x1E67 JUMP JUMPDEST PUSH1 0x40 DUP1 MLOAD PUSH1 0x80 DUP2 ADD SWAP1 SWAP2 MSTORE DUP1 PUSH2 0x1F2C PUSH1 0x20 PUSH0 DUP7 DUP9 PUSH2 0x5562 JUMP JUMPDEST PUSH2 0x1F35 SWAP2 PUSH2 0x55B5 JUMP JUMPDEST DUP2 MSTORE PUSH1 0x20 SWAP1 DUP2 ADD SWAP1 PUSH2 0x1F4B SWAP1 PUSH1 0x40 SWAP1 DUP7 DUP9 PUSH2 0x5562 JUMP JUMPDEST PUSH2 0x1F54 SWAP2 PUSH2 0x55B5 JUMP JUMPDEST DUP2 MSTORE PUSH1 0x20 ADD PUSH2 0x1F67 PUSH1 0x60 PUSH1 0x40 DUP7 DUP9 PUSH2 0x5562 JUMP JUMPDEST PUSH2 0x1F70 SWAP2 PUSH2 0x55B5 JUMP JUMPDEST DUP2 MSTORE PUSH1 0x20 ADD PUSH2 0x1F83 PUSH1 0x80 PUSH1 0x60 DUP7 DUP9 PUSH2 0x5562 JUMP JUMPDEST PUSH2 0x1F8C SWAP2 PUSH2 0x55B5 JUMP JUMPDEST SWAP1 MSTORE SWAP4 SWAP3 POP POP POP JUMP JUMPDEST PUSH0 PUSH2 0x1FAD PUSH0 MLOAD PUSH1 0x20 PUSH2 0x5650 PUSH0 CODECOPY PUSH0 MLOAD SWAP1 PUSH0 MSTORE DUP4 PUSH2 0x55D2 JUMP JUMPDEST SWAP3 SWAP2 POP POP JUMP JUMPDEST PUSH0 PUSH0 MLOAD PUSH1 0x20 PUSH2 0x5650 PUSH0 CODECOPY PUSH0 MLOAD SWAP1 PUSH0 MSTORE DUP3 DUP5 MULMOD SWAP4 SWAP3 POP POP POP JUMP JUMPDEST PUSH0 PUSH0 MLOAD PUSH1 0x20 PUSH2 0x5650 PUSH0 CODECOPY PUSH0 MLOAD SWAP1 PUSH0 MSTORE DUP3 DUP5 ADDMOD SWAP4 SWAP3 POP POP POP JUMP JUMPDEST PUSH0 PUSH0 MLOAD PUSH1 0x20 PUSH2 0x5650 PUSH0 CODECOPY PUSH0 MLOAD SWAP1 PUSH0 MSTORE PUSH2 0x200B DUP4 PUSH0 MLOAD PUSH1 0x20 PUSH2 0x5650 PUSH0 CODECOPY PUSH0 MLOAD SWAP1 PUSH0 MSTORE PUSH2 0x4FF1 JUMP JUMPDEST DUP5 ADDMOD SWAP4 SWAP3 POP POP POP JUMP JUMPDEST PUSH0 PUSH2 0x1E7D DUP4 PUSH2 0x727 DUP5 PUSH2 0x22AF JUMP JUMPDEST PUSH0 PUSH0 PUSH1 0x40 MLOAD DUP1 PUSH2 0x120 ADD PUSH1 0x40 MSTORE DUP1 PUSH2 0x9D80 DUP2 MSTORE PUSH1 0x20 ADD PUSH32 0x30644E72E131A029B85045B68181585D2833E84879B9709143E1F593EFFFEC51 DUP2 MSTORE PUSH1 0x20 ADD PUSH2 0x5A0 DUP2 MSTORE PUSH1 0x20 ADD PUSH32 0x30644E72E131A029B85045B68181585D2833E84879B9709143E1F593EFFFFD31 DUP2 MSTORE PUSH1 0x20 ADD PUSH2 0x240 DUP2 MSTORE PUSH1 0x20 ADD PUSH32 0x30644E72E131A029B85045B68181585D2833E84879B9709143E1F593EFFFFD31 DUP2 MSTORE PUSH1 0x20 ADD PUSH2 0x5A0 DUP2 MSTORE PUSH1 0x20 ADD PUSH32 0x30644E72E131A029B85045B68181585D2833E84879B9709143E1F593EFFFEC51 DUP2 MSTORE PUSH1 0x20 ADD PUSH2 0x9D80 DUP2 MSTORE POP SWAP1 POP PUSH0 PUSH1 0x1 SWAP1 POP PUSH0 PUSH0 SWAP1 POP JUMPDEST PUSH1 0x9 DUP2 LT ISZERO PUSH2 0x211B JUMPI PUSH2 0x2111 DUP3 PUSH2 0x727 DUP8 DUP5 PUSH2 0x1FE5 JUMP JUMPDEST SWAP2 POP PUSH1 0x1 ADD PUSH2 0x20FA JUMP JUMPDEST POP PUSH2 0x2124 PUSH2 0x4D39 JUMP JUMPDEST PUSH0 JUMPDEST PUSH1 0x9 DUP2 LT ISZERO PUSH2 0x2175 JUMPI PUSH2 0x2156 PUSH2 0xA61 DUP6 DUP4 PUSH1 0x9 DUP2 LT PUSH2 0x2147 JUMPI PUSH2 0x2147 PUSH2 0x5589 JUMP JUMPDEST PUSH1 0x20 MUL ADD MLOAD PUSH2 0x727 DUP10 DUP6 PUSH2 0x1FE5 JUMP JUMPDEST DUP3 DUP3 PUSH1 0x9 DUP2 LT PUSH2 0x2168 JUMPI PUSH2 0x2168 PUSH2 0x5589 JUMP JUMPDEST PUSH1 0x20 MUL ADD MSTORE PUSH1 0x1 ADD PUSH2 0x2126 JUMP JUMPDEST POP PUSH0 JUMPDEST PUSH1 0x9 DUP2 LT ISZERO PUSH2 0x21BB JUMPI PUSH2 0x21B1 DUP6 PUSH2 0x72C DUP10 DUP5 PUSH1 0x9 DUP2 LT PUSH2 0x219A JUMPI PUSH2 0x219A PUSH2 0x5589 JUMP JUMPDEST PUSH1 0x20 MUL ADD MLOAD DUP6 DUP6 PUSH1 0x9 DUP2 LT PUSH2 0x9D5 JUMPI PUSH2 0x9D5 PUSH2 0x5589 JUMP JUMPDEST SWAP5 POP PUSH1 0x1 ADD PUSH2 0x2178 JUMP JUMPDEST POP PUSH2 0x21C6 DUP5 DUP4 PUSH2 0x1FB3 JUMP JUMPDEST SWAP7 SWAP6 POP POP POP POP POP POP JUMP JUMPDEST PUSH0 PUSH2 0x21D9 PUSH2 0x4D58 JUMP JUMPDEST PUSH2 0x21E4 DUP7 DUP3 DUP6 PUSH2 0x2B2B JUMP JUMPDEST PUSH2 0x21F0 DUP7 DUP7 DUP4 DUP7 PUSH2 0x2CD7 JUMP JUMPDEST PUSH2 0x21FC DUP7 DUP7 DUP4 DUP7 PUSH2 0x2EC3 JUMP JUMPDEST PUSH2 0x2207 DUP7 DUP3 DUP6 PUSH2 0x30E8 JUMP JUMPDEST PUSH2 0x2212 DUP7 DUP3 DUP6 PUSH2 0x32DC JUMP JUMPDEST PUSH2 0x221E DUP7 DUP7 DUP4 DUP7 PUSH2 0x3625 JUMP JUMPDEST PUSH2 0x222A DUP7 DUP7 DUP4 DUP7 PUSH2 0x3AD8 JUMP JUMPDEST PUSH2 0x2235 DUP7 DUP3 DUP6 PUSH2 0x3ED7 JUMP JUMPDEST PUSH2 0x2240 DUP7 DUP3 DUP6 PUSH2 0x4298 JUMP JUMPDEST PUSH2 0x21C6 DUP2 DUP6 PUSH2 0x4598 JUMP JUMPDEST PUSH2 0x2252 PUSH2 0x4D58 JUMP JUMPDEST DUP2 DUP2 MSTORE PUSH1 0x1 JUMPDEST PUSH1 0x1C DUP2 LT ISZERO PUSH2 0x22A9 JUMPI PUSH2 0x228A DUP3 PUSH2 0x2270 PUSH1 0x1 DUP5 PUSH2 0x4FF1 JUMP JUMPDEST PUSH1 0x1C DUP2 LT PUSH2 0x2280 JUMPI PUSH2 0x2280 PUSH2 0x5589 JUMP JUMPDEST PUSH1 0x20 MUL ADD MLOAD PUSH2 0x2495 JUMP JUMPDEST DUP3 DUP3 PUSH1 0x1C DUP2 LT PUSH2 0x229C JUMPI PUSH2 0x229C PUSH2 0x5589 JUMP JUMPDEST PUSH1 0x20 MUL ADD MSTORE PUSH1 0x1 ADD PUSH2 0x2258 JUMP JUMPDEST POP SWAP2 SWAP1 POP JUMP JUMPDEST PUSH0 PUSH0 DUP3 SWAP1 POP PUSH0 PUSH1 0x40 MLOAD PUSH1 0x20 DUP2 MSTORE PUSH1 0x20 DUP1 DUP3 ADD MSTORE PUSH1 0x20 PUSH1 0x40 DUP3 ADD MSTORE DUP3 PUSH1 0x60 DUP3 ADD MSTORE PUSH1 0x2 PUSH0 MLOAD PUSH1 0x20 PUSH2 0x5650 PUSH0 CODECOPY PUSH0 MLOAD SWAP1 PUSH0 MSTORE SUB PUSH1 0x80 DUP3 ADD MSTORE PUSH0 MLOAD PUSH1 0x20 PUSH2 0x5650 PUSH0 CODECOPY PUSH0 MLOAD SWAP1 PUSH0 MSTORE PUSH1 0xA0 DUP3 ADD MSTORE PUSH1 0x20 PUSH0 PUSH1 0xC0 DUP4 PUSH1 0x5 GAS STATICCALL SWAP1 POP DUP1 PUSH2 0x230D JUMPI PUSH0 PUSH0 REVERT JUMPDEST POP POP PUSH0 MLOAD SWAP4 SWAP3 POP POP POP JUMP JUMPDEST PUSH1 0x40 DUP1 MLOAD DUP1 DUP3 ADD SWAP1 SWAP2 MSTORE PUSH0 DUP1 DUP3 MSTORE PUSH1 0x20 DUP3 ADD MSTORE PUSH1 0x40 MLOAD DUP1 PUSH1 0x40 ADD PUSH1 0x40 MSTORE DUP1 PUSH1 0x88 DUP5 PUSH1 0x20 ADD MLOAD SWAP1 SHL DUP5 PUSH0 ADD MLOAD OR DUP2 MSTORE PUSH1 0x20 ADD PUSH1 0x88 DUP5 PUSH1 0x60 ADD MLOAD SWAP1 SHL DUP5 PUSH1 0x40 ADD MLOAD OR DUP2 MSTORE POP SWAP1 POP SWAP2 SWAP1 POP JUMP JUMPDEST PUSH0 PUSH2 0x1FAD DUP3 PUSH0 MLOAD PUSH1 0x20 PUSH2 0x5650 PUSH0 CODECOPY PUSH0 MLOAD SWAP1 PUSH0 MSTORE PUSH2 0x4FF1 JUMP JUMPDEST PUSH2 0x2382 PUSH2 0x4D58 JUMP JUMPDEST PUSH1 0x1C JUMPDEST DUP1 ISZERO PUSH2 0x248B JUMPI PUSH0 DUP5 PUSH2 0x2398 PUSH1 0x1 DUP5 PUSH2 0x4FF1 JUMP JUMPDEST PUSH1 0x1C DUP2 LT PUSH2 0x23A8 JUMPI PUSH2 0x23A8 PUSH2 0x5589 JUMP JUMPDEST PUSH1 0x20 MUL ADD MLOAD SWAP1 POP PUSH0 DUP9 PUSH2 0x23BC PUSH1 0x1 DUP6 PUSH2 0x4FF1 JUMP JUMPDEST PUSH1 0x1C DUP2 LT PUSH2 0x23CC JUMPI PUSH2 0x23CC PUSH2 0x5589 JUMP JUMPDEST PUSH1 0x20 MUL ADD MLOAD SWAP1 POP PUSH0 PUSH2 0x2427 PUSH2 0x23EB PUSH2 0x23E4 DUP6 DUP13 PUSH2 0x1FB3 JUMP JUMPDEST PUSH1 0x2 PUSH2 0x1FB3 JUMP JUMPDEST PUSH2 0x74A DUP11 PUSH2 0x23FA PUSH1 0x1 DUP10 PUSH2 0x4FF1 JUMP JUMPDEST PUSH1 0x1C DUP2 LT PUSH2 0x240A JUMPI PUSH2 0x240A PUSH2 0x5589 JUMP JUMPDEST PUSH1 0x20 MUL ADD MLOAD PUSH2 0x727 PUSH2 0x2421 DUP9 PUSH2 0x727 PUSH1 0x1 DUP11 PUSH2 0x1FE5 JUMP JUMPDEST DUP8 PUSH2 0x1FE5 JUMP JUMPDEST SWAP1 POP PUSH2 0x2448 DUP2 PUSH2 0x727 PUSH2 0xA61 PUSH2 0x2442 DUP8 PUSH2 0x727 PUSH1 0x1 DUP10 PUSH2 0x1FE5 JUMP JUMPDEST DUP7 PUSH2 0x1FCC JUMP JUMPDEST SWAP1 POP DUP6 DUP5 GT PUSH2 0x2477 JUMPI SWAP8 POP DUP8 DUP1 DUP6 PUSH2 0x2461 PUSH1 0x1 DUP8 PUSH2 0x4FF1 JUMP JUMPDEST PUSH1 0x1C DUP2 LT PUSH2 0x2471 JUMPI PUSH2 0x2471 PUSH2 0x5589 JUMP JUMPDEST PUSH1 0x20 MUL ADD MSTORE JUMPDEST POP POP POP DUP1 PUSH2 0x2484 SWAP1 PUSH2 0x55F1 JUMP JUMPDEST SWAP1 POP PUSH2 0x2385 JUMP JUMPDEST POP SWAP6 SWAP5 POP POP POP POP POP JUMP JUMPDEST PUSH0 PUSH2 0x1FAD DUP3 DUP4 PUSH2 0x1FB3 JUMP JUMPDEST PUSH0 PUSH1 0x1 DUP2 PUSH2 0x24B9 PUSH2 0x24B3 DUP8 PUSH2 0x100 PUSH2 0x45FD JUMP JUMPDEST DUP4 PUSH2 0x1FE5 JUMP JUMPDEST SWAP1 POP DUP1 PUSH2 0x24D9 JUMPI PUSH1 0x40 MLOAD PUSH4 0x835EB8F7 PUSH1 0xE0 SHL DUP2 MSTORE PUSH1 0x4 ADD PUSH1 0x40 MLOAD DUP1 SWAP2 SUB SWAP1 REVERT JUMPDEST PUSH2 0x24E1 PUSH2 0x4D77 JUMP JUMPDEST DUP1 MLOAD DUP4 SWAP1 MSTORE PUSH0 JUMPDEST PUSH1 0x1C DUP2 LT ISZERO PUSH2 0x25AB JUMPI PUSH0 PUSH2 0x24FD DUP3 PUSH1 0x9 PUSH2 0x4FDA JUMP JUMPDEST PUSH2 0x2508 SWAP1 PUSH1 0x1 PUSH2 0x554F JUMP JUMPDEST SWAP1 POP DUP5 DUP4 PUSH0 ADD MLOAD DUP3 PUSH2 0x100 DUP2 LT PUSH2 0x2521 JUMPI PUSH2 0x2521 PUSH2 0x5589 JUMP JUMPDEST PUSH1 0x20 MUL ADD MSTORE PUSH0 PUSH2 0x2532 DUP3 PUSH1 0x1 PUSH2 0x554F JUMP JUMPDEST SWAP1 POP JUMPDEST PUSH2 0x2540 PUSH1 0x9 DUP4 PUSH2 0x554F JUMP JUMPDEST DUP2 LT ISZERO PUSH2 0x25A1 JUMPI DUP4 MLOAD PUSH2 0x2580 SWAP1 PUSH2 0x2558 PUSH1 0x1 DUP5 PUSH2 0x4FF1 JUMP JUMPDEST PUSH2 0x100 DUP2 LT PUSH2 0x2569 JUMPI PUSH2 0x2569 PUSH2 0x5589 JUMP JUMPDEST PUSH1 0x20 MUL ADD MLOAD DUP11 DUP6 PUSH1 0x1C DUP2 LT PUSH2 0x9D5 JUMPI PUSH2 0x9D5 PUSH2 0x5589 JUMP JUMPDEST DUP5 MLOAD DUP3 PUSH2 0x100 DUP2 LT PUSH2 0x2594 JUMPI PUSH2 0x2594 PUSH2 0x5589 JUMP JUMPDEST PUSH1 0x20 MUL ADD MSTORE PUSH1 0x1 ADD PUSH2 0x2535 JUMP JUMPDEST POP POP PUSH1 0x1 ADD PUSH2 0x24E8 JUMP JUMPDEST POP PUSH1 0x80 DUP2 ADD DUP4 SWAP1 MSTORE PUSH0 PUSH1 0x20 DUP3 ADD DUP2 SWAP1 MSTORE JUMPDEST PUSH2 0x100 DUP2 LT ISZERO PUSH2 0x26BC JUMPI PUSH2 0x25DD PUSH2 0x25D7 DUP4 PUSH1 0x80 ADD MLOAD DUP11 PUSH2 0x1FB3 JUMP JUMPDEST DUP6 PUSH2 0x1FE5 JUMP JUMPDEST DUP3 PUSH1 0xA0 ADD MLOAD DUP3 PUSH2 0x100 DUP2 LT PUSH2 0x25F4 JUMPI PUSH2 0x25F4 PUSH2 0x5589 JUMP JUMPDEST PUSH1 0x20 MUL ADD MSTORE PUSH1 0xA0 DUP3 ADD MLOAD PUSH2 0x261E SWAP1 DUP3 PUSH2 0x100 DUP2 LT PUSH2 0x2614 JUMPI PUSH2 0x2614 PUSH2 0x5589 JUMP JUMPDEST PUSH1 0x20 MUL ADD MLOAD PUSH2 0x22AF JUMP JUMPDEST DUP3 PUSH1 0xA0 ADD MLOAD DUP3 PUSH2 0x100 DUP2 LT PUSH2 0x2635 JUMPI PUSH2 0x2635 PUSH2 0x5589 JUMP JUMPDEST PUSH1 0x20 MUL ADD DUP2 DUP2 MSTORE POP POP PUSH2 0x267B DUP3 PUSH1 0x20 ADD MLOAD PUSH2 0x72C DUP5 PUSH0 ADD MLOAD DUP5 PUSH2 0x100 DUP2 LT PUSH2 0x265F JUMPI PUSH2 0x265F PUSH2 0x5589 JUMP JUMPDEST PUSH1 0x20 MUL ADD MLOAD DUP6 PUSH1 0xA0 ADD MLOAD DUP6 PUSH2 0x100 DUP2 LT PUSH2 0x9D5 JUMPI PUSH2 0x9D5 PUSH2 0x5589 JUMP JUMPDEST PUSH1 0x20 DUP4 ADD MSTORE PUSH1 0x80 DUP3 ADD MLOAD PUSH2 0x26AF SWAP1 PUSH32 0x204BD3277422FAD364751AD938E2B5E6A54CF8C68712848A692C553D0329F5D6 PUSH2 0x1FB3 JUMP JUMPDEST PUSH1 0x80 DUP4 ADD MSTORE PUSH1 0x1 ADD PUSH2 0x25BC JUMP JUMPDEST POP PUSH0 PUSH2 0x26CD DUP4 PUSH2 0x727 PUSH2 0x100 PUSH2 0x22AF JUMP JUMPDEST SWAP1 POP PUSH2 0x26DD DUP3 PUSH1 0x20 ADD MLOAD DUP3 PUSH2 0x1FB3 JUMP JUMPDEST PUSH1 0x20 DUP4 ADD MSTORE PUSH1 0xA0 DUP3 ADD MLOAD PUSH2 0x26F8 SWAP1 PUSH0 JUMPDEST PUSH1 0x20 MUL ADD MLOAD DUP3 PUSH2 0x1FB3 JUMP JUMPDEST PUSH1 0x40 DUP4 ADD MSTORE PUSH1 0xA0 DUP3 ADD MLOAD PUSH2 0x2724 SWAP1 PUSH2 0x2713 PUSH1 0x1 PUSH2 0x100 PUSH2 0x4FF1 JUMP JUMPDEST PUSH2 0x100 DUP2 LT PUSH2 0x26ED JUMPI PUSH2 0x26ED PUSH2 0x5589 JUMP JUMPDEST PUSH1 0x60 DUP4 ADD MSTORE PUSH1 0x40 DUP3 ADD MLOAD PUSH2 0x273A SWAP1 DUP11 PUSH1 0x2 PUSH2 0x9D5 JUMP JUMPDEST PUSH1 0xC0 DUP4 ADD DUP2 SWAP1 MSTORE PUSH2 0x2799 SWAP1 PUSH2 0x72C PUSH2 0x2772 DUP12 PUSH32 0x204BD3277422FAD364751AD938E2B5E6A54CF8C68712848A692C553D0329F5D6 PUSH2 0x1FE5 JUMP JUMPDEST PUSH2 0x727 PUSH2 0x2788 DUP15 PUSH1 0x1 PUSH1 0x20 MUL ADD MLOAD DUP16 PUSH1 0x2 PUSH2 0xA57 JUMP JUMPDEST DUP15 MLOAD PUSH1 0x20 DUP10 ADD MLOAD PUSH2 0x74A SWAP2 SWAP1 PUSH2 0x1FB3 JUMP JUMPDEST PUSH1 0xC0 DUP4 ADD DUP2 SWAP1 MSTORE PUSH1 0x60 DUP4 ADD MLOAD PUSH2 0x27CE SWAP2 PUSH2 0x27C2 SWAP2 PUSH2 0x72C SWAP1 PUSH2 0x727 DUP15 PUSH1 0x2 PUSH1 0x20 MUL ADD MLOAD DUP13 PUSH2 0x1FE5 JUMP JUMPDEST PUSH2 0x74A DUP6 DUP13 PUSH1 0x3 PUSH2 0x9D5 JUMP JUMPDEST PUSH1 0xC0 DUP4 ADD DUP2 SWAP1 MSTORE ISZERO SWAP10 SWAP9 POP POP POP POP POP POP POP POP POP JUMP JUMPDEST PUSH1 0x40 DUP1 MLOAD DUP1 DUP3 ADD SWAP1 SWAP2 MSTORE PUSH0 DUP1 DUP3 MSTORE PUSH1 0x20 DUP3 ADD MSTORE PUSH0 PUSH1 0x3 PUSH2 0x2805 PUSH1 0x1C PUSH1 0x29 PUSH2 0x554F JUMP JUMPDEST PUSH2 0x280F SWAP2 SWAP1 PUSH2 0x554F JUMP JUMPDEST PUSH2 0x281A SWAP1 PUSH1 0x3 PUSH2 0x554F JUMP JUMPDEST SWAP1 POP PUSH1 0x1 PUSH1 0x40 MLOAD DUP6 MLOAD MLOAD PUSH1 0x40 DUP3 ADD MSTORE DUP6 MLOAD PUSH1 0x20 ADD MLOAD PUSH1 0x60 DUP3 ADD MSTORE DUP5 MLOAD PUSH1 0x80 DUP3 ADD MSTORE PUSH1 0x40 DUP2 PUSH1 0x60 PUSH1 0x40 DUP5 ADD PUSH1 0x7 GAS STATICCALL DUP3 AND SWAP2 POP PUSH1 0x1 JUMPDEST DUP4 DUP2 LT ISZERO PUSH2 0x28A8 JUMPI PUSH1 0x20 DUP2 MUL DUP8 ADD PUSH1 0x20 DUP3 MUL DUP8 ADD DUP2 MLOAD MLOAD PUSH1 0x40 DUP6 ADD MSTORE DUP2 MLOAD PUSH1 0x20 ADD MLOAD PUSH1 0x60 DUP6 ADD MSTORE DUP1 MLOAD PUSH1 0x80 DUP6 ADD MSTORE POP POP PUSH1 0x40 DUP1 DUP4 ADD PUSH1 0x60 PUSH1 0x40 DUP6 ADD PUSH1 0x7 GAS STATICCALL DUP4 AND SWAP3 POP PUSH1 0x40 DUP3 PUSH1 0x80 DUP5 PUSH1 0x6 GAS STATICCALL SWAP1 SWAP3 AND SWAP2 PUSH1 0x1 ADD PUSH2 0x284F JUMP JUMPDEST POP DUP1 MLOAD DUP5 MSTORE PUSH1 0x20 DUP2 ADD MLOAD PUSH1 0x20 DUP6 ADD MSTORE POP POP POP SWAP3 SWAP2 POP POP JUMP JUMPDEST PUSH1 0x40 DUP1 MLOAD DUP1 DUP3 ADD SWAP1 SWAP2 MSTORE PUSH0 DUP1 DUP3 MSTORE PUSH1 0x20 DUP3 ADD MSTORE PUSH32 0x30644E72E131A029B85045B68181585D97816A916871CA8D3C208C16D87CFD47 DUP3 PUSH1 0x20 ADD MLOAD PUSH32 0x30644E72E131A029B85045B68181585D97816A916871CA8D3C208C16D87CFD47 PUSH2 0x2924 SWAP2 SWAP1 PUSH2 0x4FF1 JUMP JUMPDEST PUSH2 0x292E SWAP2 SWAP1 PUSH2 0x55D2 JUMP JUMPDEST PUSH1 0x20 DUP4 ADD MSTORE POP SWAP1 JUMP JUMPDEST DUP2 MLOAD PUSH1 0x20 DUP1 DUP5 ADD MLOAD DUP4 MLOAD DUP5 DUP4 ADD MLOAD PUSH1 0x40 DUP1 MLOAD SWAP5 DUP6 ADD SWAP6 SWAP1 SWAP6 MSTORE SWAP4 DUP4 ADD SWAP2 SWAP1 SWAP2 MSTORE PUSH32 0x198E9393920D483A7260BFB731FB5D25F1AA493335A9E71297E485B7AEF312C2 PUSH1 0x60 DUP4 ADD MSTORE PUSH32 0x1800DEEF121F1E76426A00665E5C4479674322D4F75EDADD46DEBD5CD992F6ED PUSH1 0x80 DUP4 ADD MSTORE PUSH32 0x90689D0585FF075EC9E99AD690C3395BC4B313370B38EF355ACDADCD122975B PUSH1 0xA0 DUP4 ADD MSTORE PUSH32 0x12C85EA5DB8C6DEB4AAB71808DCB408FE3D1E7690C43D37B4CE6CC0166FA7DAA PUSH1 0xC0 DUP4 ADD MSTORE PUSH1 0xE0 DUP3 ADD MSTORE PUSH2 0x100 DUP2 ADD SWAP2 SWAP1 SWAP2 MSTORE PUSH32 0x260E01B251F6F1C7E7FF4E580791DEE8EA51D87A358E038B4EFE30FAC09383C1 PUSH2 0x120 DUP3 ADD MSTORE PUSH32 0x118C4D5B837BCC2BC89B5B398B5974E9F5944073B32078B7E231FEC938883B0 PUSH2 0x140 DUP3 ADD MSTORE PUSH32 0x4FC6369F7110FE3D25156C1BB9A72859CF2A04641F99BA4EE413C80DA6A5FE4 PUSH2 0x160 DUP3 ADD MSTORE PUSH32 0x22FEBDA3C0C0632A56475B4214E5615E11E6DD3F96E6CEA2854A87D4DACC5E55 PUSH2 0x180 DUP3 ADD MSTORE PUSH0 SWAP1 DUP2 SWAP1 PUSH2 0x1A0 ADD PUSH1 0x40 MLOAD PUSH1 0x20 DUP2 DUP4 SUB SUB DUP2 MSTORE SWAP1 PUSH1 0x40 MSTORE SWAP1 POP PUSH0 PUSH0 PUSH1 0x8 PUSH1 0x1 PUSH1 0x1 PUSH1 0xA0 SHL SUB AND DUP4 PUSH1 0x40 MLOAD PUSH2 0x2ACD SWAP2 SWAP1 PUSH2 0x5606 JUMP JUMPDEST PUSH0 PUSH1 0x40 MLOAD DUP1 DUP4 SUB DUP2 DUP6 GAS STATICCALL SWAP2 POP POP RETURNDATASIZE DUP1 PUSH0 DUP2 EQ PUSH2 0x2B05 JUMPI PUSH1 0x40 MLOAD SWAP2 POP PUSH1 0x1F NOT PUSH1 0x3F RETURNDATASIZE ADD AND DUP3 ADD PUSH1 0x40 MSTORE RETURNDATASIZE DUP3 MSTORE RETURNDATASIZE PUSH0 PUSH1 0x20 DUP5 ADD RETURNDATACOPY PUSH2 0x2B0A JUMP JUMPDEST PUSH1 0x60 SWAP2 POP JUMPDEST POP SWAP2 POP SWAP2 POP DUP2 DUP1 ISZERO PUSH2 0x21C6 JUMPI POP DUP1 DUP1 PUSH1 0x20 ADD SWAP1 MLOAD DUP2 ADD SWAP1 PUSH2 0x21C6 SWAP2 SWAP1 PUSH2 0x561C JUMP JUMPDEST PUSH0 PUSH2 0x2B37 DUP5 PUSH1 0x7 PUSH2 0x4657 JUMP JUMPDEST SWAP1 POP PUSH32 0x183227397098D014DC2822DB40C0AC2E9419F4243CDCB848A1F0FAC9F8000000 PUSH0 PUSH2 0x2B98 PUSH2 0x2B92 PUSH2 0x2B6C DUP6 PUSH1 0x3 PUSH2 0x1FE5 JUMP JUMPDEST PUSH2 0x727 PUSH2 0x2B87 PUSH2 0x2B7C DUP12 PUSH0 PUSH2 0x4657 JUMP JUMPDEST PUSH2 0x727 DUP13 PUSH1 0x1D PUSH2 0x4657 JUMP JUMPDEST PUSH2 0x727 DUP12 PUSH1 0x1C PUSH2 0x4657 JUMP JUMPDEST DUP4 PUSH2 0x1FB3 JUMP JUMPDEST SWAP1 POP PUSH2 0x2C19 PUSH2 0x2C0E PUSH2 0x2BF5 PUSH2 0x2BDC PUSH2 0x2BC3 DUP6 PUSH2 0x72C PUSH2 0x2BB8 DUP14 PUSH1 0x2 PUSH2 0x4657 JUMP JUMPDEST PUSH2 0x727 DUP15 PUSH1 0x1C PUSH2 0x4657 JUMP JUMPDEST PUSH2 0x72C PUSH2 0x2BD1 DUP13 PUSH1 0x3 PUSH2 0x4657 JUMP JUMPDEST PUSH2 0x727 DUP14 PUSH1 0x1D PUSH2 0x4657 JUMP JUMPDEST PUSH2 0x72C PUSH2 0x2BEA DUP12 PUSH1 0x4 PUSH2 0x4657 JUMP JUMPDEST PUSH2 0x727 DUP13 PUSH1 0x1E PUSH2 0x4657 JUMP JUMPDEST PUSH2 0x72C PUSH2 0x2C03 DUP11 PUSH1 0x5 PUSH2 0x4657 JUMP JUMPDEST PUSH2 0x727 DUP12 PUSH1 0x1F PUSH2 0x4657 JUMP JUMPDEST PUSH2 0x72C DUP9 PUSH1 0x1 PUSH2 0x4657 JUMP JUMPDEST SWAP1 POP PUSH2 0x2C38 DUP2 PUSH2 0x72C PUSH2 0x2C2D DUP7 PUSH1 0x1 PUSH2 0x1FE5 JUMP JUMPDEST PUSH2 0x727 DUP11 PUSH1 0x27 PUSH2 0x4657 JUMP JUMPDEST SWAP1 POP PUSH2 0x2C44 DUP2 DUP5 PUSH2 0x1FB3 JUMP JUMPDEST SWAP1 POP PUSH2 0x2C50 DUP2 DUP6 PUSH2 0x1FB3 JUMP JUMPDEST DUP6 MSTORE POP PUSH0 SWAP1 POP PUSH2 0x2C8A PUSH2 0x2C80 PUSH2 0x2C75 PUSH2 0x2C6A DUP9 PUSH1 0x1C PUSH2 0x4657 JUMP JUMPDEST PUSH2 0x72C DUP10 PUSH1 0x1F PUSH2 0x4657 JUMP JUMPDEST PUSH2 0x74A DUP9 PUSH1 0x24 PUSH2 0x4657 JUMP JUMPDEST PUSH2 0x72C DUP8 PUSH0 PUSH2 0x4657 JUMP JUMPDEST SWAP1 POP PUSH2 0x2C9B DUP2 PUSH2 0x727 DUP5 PUSH1 0x2 PUSH2 0x1FE5 JUMP JUMPDEST SWAP1 POP PUSH2 0x2CAC DUP2 PUSH2 0x727 DUP5 PUSH1 0x1 PUSH2 0x1FE5 JUMP JUMPDEST SWAP1 POP PUSH2 0x2CB8 DUP2 DUP4 PUSH2 0x1FB3 JUMP JUMPDEST SWAP1 POP PUSH2 0x2CC4 DUP2 DUP5 PUSH2 0x1FB3 JUMP JUMPDEST SWAP1 POP DUP1 DUP5 PUSH1 0x1 JUMPDEST PUSH1 0x20 MUL ADD MSTORE POP POP POP POP POP JUMP JUMPDEST PUSH0 PUSH0 PUSH0 PUSH2 0x2D0D PUSH2 0x2D03 PUSH2 0x2CEB DUP10 PUSH1 0x1C PUSH2 0x4657 JUMP JUMPDEST PUSH2 0x72C PUSH2 0x2CF9 DUP12 PUSH1 0x12 PUSH2 0x4657 JUMP JUMPDEST DUP11 PUSH1 0x60 ADD MLOAD PUSH2 0x1FB3 JUMP JUMPDEST DUP8 PUSH1 0x80 ADD MLOAD PUSH2 0x1FCC JUMP JUMPDEST SWAP1 POP PUSH2 0x2D46 DUP2 PUSH2 0x727 PUSH2 0x2D3C PUSH2 0x2D24 DUP12 PUSH1 0x1D PUSH2 0x4657 JUMP JUMPDEST PUSH2 0x72C PUSH2 0x2D32 DUP14 PUSH1 0x13 PUSH2 0x4657 JUMP JUMPDEST DUP13 PUSH1 0x60 ADD MLOAD PUSH2 0x1FB3 JUMP JUMPDEST DUP10 PUSH1 0x80 ADD MLOAD PUSH2 0x1FCC JUMP JUMPDEST SWAP1 POP PUSH2 0x2D6B DUP2 PUSH2 0x727 PUSH2 0x2D3C PUSH2 0x2D5D DUP12 PUSH1 0x1E PUSH2 0x4657 JUMP JUMPDEST PUSH2 0x72C PUSH2 0x2D32 DUP14 PUSH1 0x14 PUSH2 0x4657 JUMP JUMPDEST SWAP1 POP PUSH2 0x2D90 DUP2 PUSH2 0x727 PUSH2 0x2D3C PUSH2 0x2D82 DUP12 PUSH1 0x1F PUSH2 0x4657 JUMP JUMPDEST PUSH2 0x72C PUSH2 0x2D32 DUP14 PUSH1 0x15 PUSH2 0x4657 JUMP JUMPDEST SWAP3 POP PUSH0 SWAP1 POP PUSH2 0x2DB4 PUSH2 0x2D03 PUSH2 0x2DA6 DUP10 PUSH1 0x1C PUSH2 0x4657 JUMP JUMPDEST PUSH2 0x72C PUSH2 0x2CF9 DUP12 PUSH1 0xE PUSH2 0x4657 JUMP JUMPDEST SWAP1 POP PUSH2 0x2DD9 DUP2 PUSH2 0x727 PUSH2 0x2D3C PUSH2 0x2DCB DUP12 PUSH1 0x1D PUSH2 0x4657 JUMP JUMPDEST PUSH2 0x72C PUSH2 0x2D32 DUP14 PUSH1 0xF PUSH2 0x4657 JUMP JUMPDEST SWAP1 POP PUSH2 0x2DFE DUP2 PUSH2 0x727 PUSH2 0x2D3C PUSH2 0x2DF0 DUP12 PUSH1 0x1E PUSH2 0x4657 JUMP JUMPDEST PUSH2 0x72C PUSH2 0x2D32 DUP14 PUSH1 0x10 PUSH2 0x4657 JUMP JUMPDEST SWAP1 POP PUSH2 0x2E23 DUP2 PUSH2 0x727 PUSH2 0x2D3C PUSH2 0x2E15 DUP12 PUSH1 0x1F PUSH2 0x4657 JUMP JUMPDEST PUSH2 0x72C PUSH2 0x2D32 DUP14 PUSH1 0x11 PUSH2 0x4657 JUMP JUMPDEST SWAP2 POP PUSH0 SWAP1 POP PUSH2 0x2E4A PUSH2 0x2E44 PUSH2 0x2E39 DUP10 PUSH1 0x20 PUSH2 0x4657 JUMP JUMPDEST PUSH2 0x72C DUP11 PUSH1 0x1A PUSH2 0x4657 JUMP JUMPDEST DUP5 PUSH2 0x1FB3 JUMP JUMPDEST SWAP1 POP PUSH2 0x2E7F DUP2 PUSH2 0x74A PUSH2 0x2E79 PUSH2 0x2E61 DUP12 PUSH1 0x28 PUSH2 0x4657 JUMP JUMPDEST PUSH2 0x72C PUSH2 0x2E6F DUP14 PUSH1 0x1B PUSH2 0x4657 JUMP JUMPDEST DUP13 PUSH1 0xA0 ADD MLOAD PUSH2 0x1FB3 JUMP JUMPDEST DUP6 PUSH2 0x1FB3 JUMP JUMPDEST SWAP1 POP PUSH2 0x2E8B DUP2 DUP6 PUSH2 0x1FB3 JUMP JUMPDEST PUSH1 0x40 DUP7 ADD MSTORE POP PUSH0 PUSH2 0x2EAE PUSH2 0x2E79 PUSH2 0x2EA3 DUP10 PUSH1 0x1B PUSH2 0x4657 JUMP JUMPDEST PUSH2 0x727 DUP11 PUSH1 0x28 PUSH2 0x4657 JUMP JUMPDEST SWAP1 POP DUP1 DUP6 PUSH1 0x3 JUMPDEST PUSH1 0x20 MUL ADD MSTORE POP POP POP POP POP POP POP JUMP JUMPDEST PUSH0 PUSH0 PUSH2 0x2F21 PUSH2 0x2F09 PUSH2 0x2EF1 PUSH2 0x2EDC PUSH2 0x2D3C DUP11 PUSH1 0x16 PUSH2 0x4657 JUMP JUMPDEST PUSH2 0x72C PUSH2 0x2EEA DUP12 PUSH1 0x17 PUSH2 0x4657 JUMP JUMPDEST DUP11 MLOAD PUSH2 0x1FB3 JUMP JUMPDEST PUSH2 0x72C PUSH2 0x2EFF DUP11 PUSH1 0x18 PUSH2 0x4657 JUMP JUMPDEST DUP10 PUSH1 0x20 ADD MLOAD PUSH2 0x1FB3 JUMP JUMPDEST PUSH2 0x72C PUSH2 0x2F17 DUP10 PUSH1 0x19 PUSH2 0x4657 JUMP JUMPDEST DUP9 PUSH1 0x40 ADD MLOAD PUSH2 0x1FB3 JUMP JUMPDEST SWAP2 POP PUSH0 PUSH2 0x2F58 PUSH2 0x2F3F PUSH2 0x2F35 DUP10 PUSH1 0x1C PUSH2 0x4657 JUMP JUMPDEST DUP9 PUSH1 0x80 ADD MLOAD PUSH2 0x1FCC JUMP JUMPDEST PUSH2 0x72C PUSH2 0x2F4D DUP11 PUSH1 0x3 PUSH2 0x4657 JUMP JUMPDEST PUSH2 0x727 DUP12 PUSH1 0x24 PUSH2 0x4657 JUMP JUMPDEST SWAP1 POP PUSH0 PUSH2 0x2F81 PUSH2 0x2F69 DUP10 PUSH1 0x1D PUSH2 0x4657 JUMP JUMPDEST PUSH2 0x72C PUSH2 0x2F76 DUP12 PUSH0 PUSH2 0x4657 JUMP JUMPDEST PUSH2 0x727 DUP13 PUSH1 0x25 PUSH2 0x4657 JUMP JUMPDEST SWAP1 POP PUSH0 PUSH2 0x2FAB PUSH2 0x2F92 DUP11 PUSH1 0x1E PUSH2 0x4657 JUMP JUMPDEST PUSH2 0x72C PUSH2 0x2FA0 DUP13 PUSH1 0x1 PUSH2 0x4657 JUMP JUMPDEST PUSH2 0x727 DUP14 PUSH1 0x26 PUSH2 0x4657 JUMP JUMPDEST SWAP1 POP PUSH2 0x2FEA PUSH2 0x2FD2 PUSH2 0x2FC4 DUP6 PUSH2 0x72C DUP7 DUP14 PUSH0 ADD MLOAD PUSH2 0x1FB3 JUMP JUMPDEST PUSH2 0x72C DUP5 DUP13 PUSH1 0x20 ADD MLOAD PUSH2 0x1FB3 JUMP JUMPDEST PUSH2 0x72C PUSH2 0x2FE0 DUP13 PUSH1 0x4 PUSH2 0x4657 JUMP JUMPDEST DUP12 PUSH1 0x40 ADD MLOAD PUSH2 0x1FB3 JUMP JUMPDEST SWAP4 POP POP POP POP PUSH0 PUSH2 0x2FFE PUSH2 0x2E44 DUP9 PUSH1 0x21 PUSH2 0x4657 JUMP JUMPDEST SWAP1 POP PUSH0 PUSH2 0x300F PUSH2 0x2E44 DUP10 PUSH1 0x21 PUSH2 0x4657 JUMP JUMPDEST SWAP1 POP PUSH0 PUSH2 0x3047 PUSH2 0x302E PUSH2 0x3023 DUP12 PUSH1 0x23 PUSH2 0x4657 JUMP JUMPDEST PUSH2 0x72C DUP13 PUSH1 0x6 PUSH2 0x4657 JUMP JUMPDEST PUSH2 0x74A PUSH2 0x303C DUP13 PUSH1 0x23 PUSH2 0x4657 JUMP JUMPDEST PUSH2 0x727 DUP14 PUSH1 0x6 PUSH2 0x4657 JUMP JUMPDEST SWAP1 POP PUSH0 PUSH2 0x3065 PUSH2 0x24B3 PUSH2 0x305A DUP8 DUP10 PUSH2 0x1FB3 JUMP JUMPDEST PUSH2 0x727 DUP14 PUSH1 0x21 PUSH2 0x4657 JUMP JUMPDEST SWAP1 POP PUSH2 0x3071 DUP2 DUP9 PUSH2 0x1FB3 JUMP JUMPDEST SWAP1 POP PUSH0 PUSH2 0x3099 PUSH2 0x308B PUSH2 0x3085 DUP14 PUSH1 0x6 PUSH2 0x4657 JUMP JUMPDEST DUP8 PUSH2 0x1FB3 JUMP JUMPDEST PUSH2 0x74A PUSH2 0x3085 DUP15 PUSH1 0x22 PUSH2 0x4657 JUMP JUMPDEST SWAP1 POP PUSH0 PUSH2 0x30A7 DUP13 PUSH1 0x23 PUSH2 0x4657 JUMP JUMPDEST SWAP1 POP PUSH0 PUSH2 0x30B7 PUSH2 0x24B3 DUP4 DUP5 PUSH2 0x1FB3 JUMP JUMPDEST PUSH1 0x80 DUP13 ADD DUP6 SWAP1 MSTORE PUSH1 0xA0 DUP13 ADD DUP5 SWAP1 MSTORE SWAP1 POP PUSH2 0x30D1 DUP2 DUP12 PUSH2 0x1FB3 JUMP JUMPDEST DUP12 PUSH1 0x6 PUSH1 0x20 MUL ADD MSTORE POP POP POP POP POP POP POP POP POP POP POP POP POP JUMP JUMPDEST PUSH0 PUSH2 0x30F4 PUSH0 PUSH1 0x1 PUSH2 0x1FE5 JUMP JUMPDEST SWAP1 POP PUSH0 PUSH2 0x3102 PUSH0 PUSH1 0x2 PUSH2 0x1FE5 JUMP JUMPDEST SWAP1 POP PUSH0 PUSH2 0x3110 PUSH0 PUSH1 0x3 PUSH2 0x1FE5 JUMP JUMPDEST SWAP1 POP PUSH0 PUSH2 0x312C PUSH2 0x3121 DUP9 PUSH1 0x1D PUSH2 0x4657 JUMP JUMPDEST PUSH2 0x74A DUP10 PUSH1 0x1C PUSH2 0x4657 JUMP JUMPDEST SWAP1 POP PUSH0 PUSH2 0x3148 PUSH2 0x313D DUP10 PUSH1 0x1E PUSH2 0x4657 JUMP JUMPDEST PUSH2 0x74A DUP11 PUSH1 0x1D PUSH2 0x4657 JUMP JUMPDEST SWAP1 POP PUSH0 PUSH2 0x3164 PUSH2 0x3159 DUP11 PUSH1 0x1F PUSH2 0x4657 JUMP JUMPDEST PUSH2 0x74A DUP12 PUSH1 0x1E PUSH2 0x4657 JUMP JUMPDEST SWAP1 POP PUSH0 PUSH2 0x3180 PUSH2 0x3175 DUP12 PUSH1 0x24 PUSH2 0x4657 JUMP JUMPDEST PUSH2 0x74A DUP13 PUSH1 0x1F PUSH2 0x4657 JUMP JUMPDEST SWAP1 POP DUP4 PUSH2 0x3191 DUP2 PUSH2 0x727 DUP2 DUP12 PUSH2 0x1FCC JUMP JUMPDEST SWAP1 POP PUSH2 0x31A1 DUP2 PUSH2 0x727 DUP8 DUP11 PUSH2 0x1FCC JUMP JUMPDEST SWAP1 POP PUSH2 0x31B1 DUP2 PUSH2 0x727 DUP8 DUP10 PUSH2 0x1FCC JUMP JUMPDEST SWAP1 POP PUSH2 0x31C2 DUP2 PUSH2 0x727 DUP14 PUSH1 0x8 PUSH2 0x4657 JUMP JUMPDEST SWAP1 POP PUSH2 0x31CE DUP2 DUP11 PUSH2 0x1FB3 JUMP JUMPDEST PUSH1 0xE0 DUP12 ADD MSTORE POP DUP3 PUSH2 0x31E3 DUP2 PUSH2 0x727 DUP2 DUP12 PUSH2 0x1FCC JUMP JUMPDEST SWAP1 POP PUSH2 0x31F3 DUP2 PUSH2 0x727 DUP7 DUP11 PUSH2 0x1FCC JUMP JUMPDEST SWAP1 POP PUSH2 0x3203 DUP2 PUSH2 0x727 DUP7 DUP10 PUSH2 0x1FCC JUMP JUMPDEST SWAP1 POP PUSH2 0x3214 DUP2 PUSH2 0x727 DUP14 PUSH1 0x8 PUSH2 0x4657 JUMP JUMPDEST SWAP1 POP PUSH2 0x3220 DUP2 DUP11 PUSH2 0x1FB3 JUMP JUMPDEST PUSH2 0x100 DUP12 ADD MSTORE POP DUP2 PUSH2 0x3236 DUP2 PUSH2 0x727 DUP2 DUP12 PUSH2 0x1FCC JUMP JUMPDEST SWAP1 POP PUSH2 0x3246 DUP2 PUSH2 0x727 DUP6 DUP11 PUSH2 0x1FCC JUMP JUMPDEST SWAP1 POP PUSH2 0x3256 DUP2 PUSH2 0x727 DUP6 DUP10 PUSH2 0x1FCC JUMP JUMPDEST SWAP1 POP PUSH2 0x3267 DUP2 PUSH2 0x727 DUP14 PUSH1 0x8 PUSH2 0x4657 JUMP JUMPDEST SWAP1 POP PUSH2 0x3273 DUP2 DUP11 PUSH2 0x1FB3 JUMP JUMPDEST PUSH2 0x120 DUP12 ADD MSTORE POP DUP1 PUSH2 0x3289 DUP2 PUSH2 0x727 DUP2 DUP12 PUSH2 0x1FCC JUMP JUMPDEST SWAP1 POP PUSH2 0x3299 DUP2 PUSH2 0x727 DUP5 DUP11 PUSH2 0x1FCC JUMP JUMPDEST SWAP1 POP PUSH2 0x32A9 DUP2 PUSH2 0x727 DUP5 DUP10 PUSH2 0x1FCC JUMP JUMPDEST SWAP1 POP PUSH2 0x32BA DUP2 PUSH2 0x727 DUP14 PUSH1 0x8 PUSH2 0x4657 JUMP JUMPDEST SWAP1 POP PUSH2 0x32C6 DUP2 DUP11 PUSH2 0x1FB3 JUMP JUMPDEST PUSH2 0x140 SWAP1 SWAP11 ADD SWAP10 SWAP1 SWAP10 MSTORE POP POP POP POP POP POP POP POP POP POP JUMP JUMPDEST PUSH2 0x3315 PUSH1 0x40 MLOAD DUP1 PUSH1 0xE0 ADD PUSH1 0x40 MSTORE DUP1 PUSH0 DUP2 MSTORE PUSH1 0x20 ADD PUSH0 DUP2 MSTORE PUSH1 0x20 ADD PUSH0 DUP2 MSTORE PUSH1 0x20 ADD PUSH0 DUP2 MSTORE PUSH1 0x20 ADD PUSH0 DUP2 MSTORE PUSH1 0x20 ADD PUSH0 DUP2 MSTORE PUSH1 0x20 ADD PUSH0 DUP2 MSTORE POP SWAP1 JUMP JUMPDEST PUSH2 0x3320 DUP5 PUSH1 0x1D PUSH2 0x4657 JUMP JUMPDEST DUP2 MSTORE PUSH2 0x332D DUP5 PUSH1 0x1E PUSH2 0x4657 JUMP JUMPDEST PUSH1 0x20 DUP3 ADD MSTORE PUSH2 0x333D DUP5 PUSH1 0x24 PUSH2 0x4657 JUMP JUMPDEST PUSH1 0x40 DUP3 ADD MSTORE PUSH2 0x334D DUP5 PUSH1 0x27 PUSH2 0x4657 JUMP JUMPDEST PUSH1 0x60 DUP3 ADD MSTORE PUSH2 0x335D DUP5 PUSH1 0x26 PUSH2 0x4657 JUMP JUMPDEST PUSH1 0x80 DUP3 ADD MSTORE PUSH2 0x336D DUP5 PUSH1 0x25 PUSH2 0x4657 JUMP JUMPDEST PUSH1 0xA0 DUP3 ADD MSTORE PUSH0 PUSH2 0x337E DUP6 PUSH1 0x2 PUSH2 0x4657 JUMP JUMPDEST SWAP1 POP PUSH0 PUSH2 0x338B DUP7 PUSH0 PUSH2 0x4657 JUMP JUMPDEST SWAP1 POP PUSH0 PUSH2 0x339F DUP5 PUSH1 0x40 ADD MLOAD DUP6 PUSH0 ADD MLOAD PUSH2 0x1FE5 JUMP JUMPDEST SWAP1 POP PUSH0 PUSH2 0x33B4 DUP6 PUSH1 0x20 ADD MLOAD DUP7 PUSH1 0x20 ADD MLOAD PUSH2 0x1FB3 JUMP JUMPDEST PUSH1 0x60 DUP7 ADD MLOAD SWAP1 SWAP2 POP DUP7 SWAP1 PUSH0 SWAP1 PUSH2 0x33CA SWAP1 DUP1 PUSH2 0x1FB3 JUMP JUMPDEST SWAP1 POP PUSH0 PUSH2 0x33E8 PUSH2 0x33E2 DUP10 PUSH1 0x20 ADD MLOAD DUP11 PUSH1 0x60 ADD MLOAD PUSH2 0x1FB3 JUMP JUMPDEST DUP9 PUSH2 0x1FB3 JUMP JUMPDEST SWAP1 POP PUSH0 PUSH2 0x3407 PUSH2 0x3400 DUP11 PUSH1 0xA0 ADD MLOAD DUP12 PUSH1 0x40 ADD MLOAD PUSH2 0x1FCC JUMP JUMPDEST DUP11 MLOAD PUSH2 0x1FCC JUMP JUMPDEST SWAP1 POP PUSH2 0x3416 PUSH2 0x3085 DUP3 DUP9 PUSH2 0x1FB3 JUMP JUMPDEST SWAP1 POP PUSH2 0x343D PUSH2 0x3437 PUSH2 0x3431 PUSH2 0x342B DUP5 DUP8 PUSH2 0x1FE5 JUMP JUMPDEST DUP9 PUSH2 0x1FE5 JUMP JUMPDEST DUP5 PUSH2 0x1FCC JUMP JUMPDEST DUP4 PUSH2 0x1FCC JUMP JUMPDEST SWAP1 POP PUSH2 0x3465 PUSH2 0x345A PUSH2 0x344F DUP4 DUP8 PUSH2 0x1FB3 JUMP JUMPDEST PUSH2 0x727 DUP16 PUSH1 0x9 PUSH2 0x4657 JUMP JUMPDEST PUSH2 0x727 PUSH1 0x1 DUP11 PUSH2 0x1FE5 JUMP JUMPDEST PUSH2 0x160 DUP13 ADD MSTORE POP POP POP POP PUSH1 0x20 DUP6 ADD MLOAD PUSH1 0x80 DUP7 ADD MLOAD PUSH0 SWAP2 PUSH2 0x3484 SWAP2 PUSH2 0x1FCC JUMP JUMPDEST SWAP1 POP PUSH0 PUSH2 0x34A2 PUSH2 0x3498 DUP9 PUSH1 0x60 ADD MLOAD DUP9 PUSH2 0x1FB3 JUMP JUMPDEST DUP9 PUSH1 0x20 ADD MLOAD PUSH2 0x1FE5 JUMP JUMPDEST SWAP1 POP PUSH0 PUSH2 0x34C6 PUSH2 0x34B2 DUP5 DUP8 PUSH2 0x1FB3 JUMP JUMPDEST PUSH2 0x72C PUSH2 0x2E79 DUP12 PUSH1 0xA0 ADD MLOAD DUP13 PUSH0 ADD MLOAD PUSH2 0x1FE5 JUMP JUMPDEST SWAP1 POP PUSH2 0x34EE PUSH2 0x34E3 PUSH2 0x34D8 DUP4 DUP13 PUSH2 0x1FB3 JUMP JUMPDEST PUSH2 0x727 DUP15 PUSH1 0x9 PUSH2 0x4657 JUMP JUMPDEST PUSH2 0x727 PUSH1 0x1 DUP10 PUSH2 0x1FE5 JUMP JUMPDEST PUSH2 0x180 DUP12 ADD MSTORE POP PUSH0 SWAP2 POP PUSH2 0x350F SWAP1 POP PUSH2 0x3508 DUP4 PUSH1 0x11 PUSH2 0x1FCC JUMP JUMPDEST DUP8 MLOAD PUSH2 0x1FB3 JUMP JUMPDEST SWAP1 POP PUSH0 PUSH2 0x351C DUP4 DUP5 PUSH2 0x1FCC JUMP JUMPDEST SWAP1 POP PUSH2 0x3528 DUP2 DUP3 PUSH2 0x1FCC JUMP JUMPDEST SWAP1 POP PUSH0 PUSH2 0x3536 DUP4 PUSH1 0x9 PUSH2 0x1FB3 JUMP JUMPDEST SWAP1 POP PUSH2 0x355F PUSH2 0x3559 PUSH2 0x2E44 PUSH2 0x3552 DUP12 PUSH1 0xA0 ADD MLOAD DUP13 PUSH0 ADD MLOAD PUSH2 0x1FCC JUMP JUMPDEST DUP12 MLOAD PUSH2 0x1FCC JUMP JUMPDEST DUP3 PUSH2 0x1FE5 JUMP JUMPDEST PUSH1 0xC0 DUP10 ADD DUP2 SWAP1 MSTORE PUSH0 SWAP1 PUSH2 0x357A SWAP1 PUSH2 0x33E2 SWAP1 PUSH2 0x344F SWAP1 DUP14 PUSH2 0x1FB3 JUMP JUMPDEST SWAP1 POP PUSH2 0x358D DUP12 PUSH1 0xB PUSH1 0x20 MUL ADD MLOAD DUP3 PUSH2 0x1FCC JUMP JUMPDEST PUSH2 0x160 DUP13 ADD MSTORE POP POP DUP7 MLOAD PUSH0 SWAP3 POP PUSH2 0x35B4 SWAP2 POP PUSH2 0x3508 SWAP1 PUSH2 0x35AD SWAP1 DUP1 PUSH2 0x1FCC JUMP JUMPDEST DUP9 MLOAD PUSH2 0x1FCC JUMP JUMPDEST SWAP1 POP PUSH0 PUSH2 0x35F4 PUSH2 0x35CF DUP4 PUSH2 0x727 DUP11 PUSH0 ADD MLOAD DUP12 PUSH1 0xA0 ADD MLOAD PUSH2 0x1FE5 JUMP JUMPDEST PUSH1 0x20 DUP10 ADD MLOAD PUSH2 0x74A SWAP1 PUSH2 0x35E2 SWAP1 DUP1 PUSH2 0x1FCC JUMP JUMPDEST PUSH2 0x727 DUP12 PUSH1 0x20 ADD MLOAD DUP13 PUSH1 0x80 ADD MLOAD PUSH2 0x1FCC JUMP JUMPDEST SWAP1 POP PUSH2 0x3611 DUP10 PUSH1 0xC PUSH1 0x20 MUL ADD MLOAD PUSH2 0x72C PUSH2 0x33E2 PUSH2 0x344F DUP6 DUP14 PUSH2 0x1FB3 JUMP JUMPDEST DUP10 PUSH1 0xC PUSH1 0x20 MUL ADD MSTORE POP POP POP POP POP POP POP POP POP POP JUMP JUMPDEST PUSH2 0x368F PUSH1 0x40 MLOAD DUP1 PUSH2 0x1E0 ADD PUSH1 0x40 MSTORE DUP1 PUSH0 DUP2 MSTORE PUSH1 0x20 ADD PUSH0 DUP2 MSTORE PUSH1 0x20 ADD PUSH0 DUP2 MSTORE PUSH1 0x20 ADD PUSH0 DUP2 MSTORE PUSH1 0x20 ADD PUSH0 DUP2 MSTORE PUSH1 0x20 ADD PUSH0 DUP2 MSTORE PUSH1 0x20 ADD PUSH0 DUP2 MSTORE PUSH1 0x20 ADD PUSH0 DUP2 MSTORE PUSH1 0x20 ADD PUSH0 DUP2 MSTORE PUSH1 0x20 ADD PUSH0 DUP2 MSTORE PUSH1 0x20 ADD PUSH0 DUP2 MSTORE PUSH1 0x20 ADD PUSH0 DUP2 MSTORE PUSH1 0x20 ADD PUSH0 DUP2 MSTORE PUSH1 0x20 ADD PUSH0 DUP2 MSTORE PUSH1 0x20 ADD PUSH0 DUP2 MSTORE POP SWAP1 JUMP JUMPDEST PUSH2 0x36A7 PUSH2 0x369D DUP7 PUSH1 0x1E PUSH2 0x4657 JUMP JUMPDEST DUP6 PUSH1 0x40 ADD MLOAD PUSH2 0x1FB3 JUMP JUMPDEST DUP1 DUP3 MSTORE PUSH2 0x36C6 SWAP1 PUSH2 0x72C PUSH2 0x36BC DUP9 PUSH1 0x1D PUSH2 0x4657 JUMP JUMPDEST DUP8 PUSH1 0x20 ADD MLOAD PUSH2 0x1FB3 JUMP JUMPDEST DUP1 DUP3 MSTORE PUSH2 0x36DB SWAP1 PUSH2 0x72C PUSH2 0x3508 DUP9 PUSH1 0x1C PUSH2 0x4657 JUMP JUMPDEST DUP1 DUP3 MSTORE PUSH2 0x36ED SWAP1 PUSH2 0x72C DUP8 PUSH1 0x1 PUSH2 0x4657 JUMP JUMPDEST DUP1 DUP3 MSTORE PUSH1 0x20 DUP3 ADD DUP2 SWAP1 MSTORE PUSH2 0x3706 SWAP1 PUSH2 0x74A DUP8 PUSH1 0x1F PUSH2 0x4657 JUMP JUMPDEST DUP2 MSTORE PUSH2 0x3721 PUSH2 0x3716 DUP7 PUSH1 0x24 PUSH2 0x4657 JUMP JUMPDEST PUSH2 0x74A DUP8 PUSH1 0x1C PUSH2 0x4657 JUMP JUMPDEST PUSH1 0x80 DUP3 ADD MSTORE PUSH2 0x373F PUSH2 0x3734 DUP7 PUSH1 0x27 PUSH2 0x4657 JUMP JUMPDEST PUSH2 0x74A DUP8 PUSH1 0x1F PUSH2 0x4657 JUMP JUMPDEST PUSH1 0x60 DUP3 ADD MSTORE PUSH1 0x80 DUP2 ADD MLOAD PUSH2 0x3761 SWAP1 PUSH2 0x3757 SWAP1 DUP1 PUSH2 0x1FB3 JUMP JUMPDEST DUP3 PUSH1 0x80 ADD MLOAD PUSH2 0x1FE5 JUMP JUMPDEST PUSH2 0x1C0 DUP3 ADD MSTORE PUSH1 0x80 DUP2 ADD MLOAD PUSH2 0x37A1 SWAP1 PUSH2 0x3797 SWAP1 PUSH2 0x3790 SWAP1 PUSH2 0x727 PUSH1 0x1 PUSH0 MLOAD PUSH1 0x20 PUSH2 0x5650 PUSH0 CODECOPY PUSH0 MLOAD SWAP1 PUSH0 MSTORE PUSH2 0x4FF1 JUMP JUMPDEST PUSH1 0x1 PUSH2 0x1FCC JUMP JUMPDEST DUP3 PUSH1 0x60 ADD MLOAD PUSH2 0x1FB3 JUMP JUMPDEST PUSH1 0xA0 DUP3 ADD DUP2 SWAP1 MSTORE PUSH2 0x37D7 SWAP1 PUSH2 0x37C9 SWAP1 PUSH2 0x727 PUSH2 0x37BE DUP10 PUSH1 0x2 PUSH2 0x4657 JUMP JUMPDEST PUSH2 0x727 DUP11 PUSH1 0x3 PUSH2 0x4657 JUMP JUMPDEST PUSH2 0x727 PUSH2 0x2E79 DUP9 PUSH1 0xA PUSH2 0x4657 JUMP JUMPDEST DUP4 PUSH1 0xE PUSH1 0x20 MUL ADD MSTORE PUSH2 0x1C0 DUP2 ADD MLOAD PUSH2 0x37FB SWAP1 PUSH2 0x37C9 SWAP1 PUSH2 0x727 PUSH2 0x37BE DUP10 PUSH1 0x2 PUSH2 0x4657 JUMP JUMPDEST PUSH2 0x1E0 DUP5 ADD MSTORE DUP1 MLOAD PUSH2 0x3820 SWAP1 PUSH2 0x727 PUSH2 0x3815 DUP9 PUSH1 0x2 PUSH2 0x4657 JUMP JUMPDEST PUSH2 0x727 DUP10 PUSH1 0x3 PUSH2 0x4657 JUMP JUMPDEST PUSH2 0x120 DUP3 ADD MSTORE PUSH0 PUSH2 0x383F PUSH2 0x3835 DUP8 PUSH1 0x1F PUSH2 0x4657 JUMP JUMPDEST DUP4 PUSH1 0x20 ADD MLOAD PUSH2 0x1FE5 JUMP JUMPDEST SWAP1 POP PUSH2 0x384E PUSH2 0x3559 DUP3 DUP4 PUSH2 0x1FB3 JUMP JUMPDEST PUSH1 0xE0 DUP4 ADD MSTORE PUSH2 0x386B PUSH2 0x3861 DUP8 PUSH1 0x26 PUSH2 0x4657 JUMP JUMPDEST DUP7 PUSH1 0x40 ADD MLOAD PUSH2 0x1FB3 JUMP JUMPDEST PUSH1 0x40 DUP4 ADD DUP2 SWAP1 MSTORE PUSH2 0x388E SWAP1 PUSH2 0x72C PUSH2 0x3884 DUP10 PUSH1 0x25 PUSH2 0x4657 JUMP JUMPDEST DUP9 PUSH1 0x20 ADD MLOAD PUSH2 0x1FB3 JUMP JUMPDEST PUSH1 0x40 DUP4 ADD DUP2 SWAP1 MSTORE PUSH2 0x38AE SWAP1 PUSH2 0x72C PUSH2 0x38A7 DUP10 PUSH1 0x24 PUSH2 0x4657 JUMP JUMPDEST DUP9 MLOAD PUSH2 0x1FB3 JUMP JUMPDEST PUSH1 0x40 DUP4 ADD MSTORE PUSH2 0x38CB PUSH2 0x38C1 DUP8 PUSH1 0x27 PUSH2 0x4657 JUMP JUMPDEST DUP4 PUSH1 0x40 ADD MLOAD PUSH2 0x1FE5 JUMP JUMPDEST PUSH1 0x40 DUP4 ADD MSTORE PUSH0 PUSH2 0x38EA PUSH2 0x38DF DUP9 PUSH1 0x26 PUSH2 0x4657 JUMP JUMPDEST PUSH2 0x74A DUP10 PUSH1 0x1E PUSH2 0x4657 JUMP JUMPDEST SWAP1 POP PUSH2 0x393C PUSH2 0x3917 PUSH2 0x2B92 PUSH2 0x3790 DUP7 PUSH1 0x80 ADD MLOAD PUSH1 0x1 PUSH0 MLOAD PUSH1 0x20 PUSH2 0x5650 PUSH0 CODECOPY PUSH0 MLOAD SWAP1 PUSH0 MSTORE PUSH2 0x727 SWAP2 SWAP1 PUSH2 0x4FF1 JUMP JUMPDEST PUSH2 0x727 PUSH2 0x3790 DUP7 PUSH1 0x40 ADD MLOAD PUSH1 0x1 PUSH0 MLOAD PUSH1 0x20 PUSH2 0x5650 PUSH0 CODECOPY PUSH0 MLOAD SWAP1 PUSH0 MSTORE PUSH2 0x727 SWAP2 SWAP1 PUSH2 0x4FF1 JUMP JUMPDEST PUSH1 0xC0 DUP5 ADD MSTORE PUSH1 0x40 DUP4 ADD MLOAD PUSH2 0x395E SWAP1 PUSH2 0x3954 SWAP1 DUP1 PUSH2 0x1FB3 JUMP JUMPDEST DUP5 PUSH1 0x40 ADD MLOAD PUSH2 0x1FE5 JUMP JUMPDEST PUSH2 0x100 DUP5 ADD MSTORE PUSH1 0xC0 DUP4 ADD MLOAD PUSH2 0x398A SWAP1 PUSH2 0x397C SWAP1 PUSH2 0x727 DUP11 PUSH1 0x7 PUSH2 0x4657 JUMP JUMPDEST PUSH2 0x727 PUSH2 0x3085 DUP11 PUSH1 0xA PUSH2 0x4657 JUMP JUMPDEST PUSH2 0x200 DUP7 ADD MSTORE PUSH2 0x1C0 DUP4 ADD MLOAD PUSH2 0x39A9 SWAP1 PUSH2 0x397C SWAP1 PUSH2 0x727 DUP11 PUSH1 0x7 PUSH2 0x4657 JUMP JUMPDEST PUSH2 0x220 DUP7 ADD MSTORE PUSH2 0x100 DUP4 ADD MLOAD PUSH2 0x39C8 SWAP1 PUSH2 0x397C SWAP1 PUSH2 0x727 DUP11 PUSH1 0x7 PUSH2 0x4657 JUMP JUMPDEST PUSH2 0x240 DUP7 ADD MSTORE PUSH1 0xE0 DUP4 ADD MLOAD PUSH2 0x39E2 SWAP1 PUSH2 0x727 DUP10 PUSH1 0x7 PUSH2 0x4657 JUMP JUMPDEST PUSH2 0x140 DUP5 ADD MSTORE PUSH2 0x3A01 PUSH2 0x39F6 DUP9 PUSH1 0x25 PUSH2 0x4657 JUMP JUMPDEST PUSH2 0x74A DUP10 PUSH1 0x1D PUSH2 0x4657 JUMP JUMPDEST PUSH2 0x160 DUP5 ADD MSTORE PUSH1 0x80 DUP4 ADD MLOAD PUSH2 0x3A3F SWAP1 PUSH2 0x38DF SWAP1 PUSH2 0x3A34 SWAP1 PUSH2 0x3790 SWAP1 PUSH2 0x727 PUSH1 0x1 PUSH0 MLOAD PUSH1 0x20 PUSH2 0x5650 PUSH0 CODECOPY PUSH0 MLOAD SWAP1 PUSH0 MSTORE PUSH2 0x4FF1 JUMP JUMPDEST DUP6 PUSH2 0x160 ADD MLOAD PUSH2 0x1FB3 JUMP JUMPDEST PUSH2 0x180 DUP5 ADD DUP2 SWAP1 MSTORE PUSH2 0x120 DUP5 ADD MLOAD PUSH2 0x1A0 DUP6 ADD DUP2 SWAP1 MSTORE PUSH2 0x3A76 SWAP2 PUSH2 0x72C SWAP1 PUSH2 0x727 PUSH2 0x3A6B DUP13 PUSH1 0x5 PUSH2 0x4657 JUMP JUMPDEST PUSH2 0x727 DUP14 PUSH1 0x2 PUSH2 0x4657 JUMP JUMPDEST PUSH2 0x1A0 DUP5 ADD DUP2 SWAP1 MSTORE DUP4 MLOAD PUSH2 0x3A96 SWAP2 SWAP1 PUSH2 0x72C SWAP1 PUSH2 0x727 PUSH2 0x3A6B DUP13 PUSH0 PUSH2 0x4657 JUMP JUMPDEST PUSH2 0x1A0 DUP5 ADD DUP2 SWAP1 MSTORE PUSH2 0x140 DUP5 ADD MLOAD PUSH2 0x3AAE SWAP2 SWAP1 PUSH2 0x1FCC JUMP JUMPDEST PUSH2 0x1A0 DUP5 ADD DUP2 SWAP1 MSTORE PUSH2 0x3AC8 SWAP1 PUSH2 0x727 PUSH2 0x3085 DUP11 PUSH1 0xA PUSH2 0x4657 JUMP JUMPDEST PUSH2 0x1A0 DUP5 ADD DUP2 SWAP1 MSTORE DUP6 PUSH1 0xD PUSH2 0x2EB5 JUMP JUMPDEST PUSH2 0x3B11 PUSH1 0x40 MLOAD DUP1 PUSH1 0xE0 ADD PUSH1 0x40 MSTORE DUP1 PUSH0 DUP2 MSTORE PUSH1 0x20 ADD PUSH0 DUP2 MSTORE PUSH1 0x20 ADD PUSH0 DUP2 MSTORE PUSH1 0x20 ADD PUSH0 DUP2 MSTORE PUSH1 0x20 ADD PUSH0 DUP2 MSTORE PUSH1 0x20 ADD PUSH0 DUP2 MSTORE PUSH1 0x20 ADD PUSH0 DUP2 MSTORE POP SWAP1 JUMP JUMPDEST PUSH2 0x3B46 PUSH2 0x3B2D PUSH2 0x3B22 DUP8 PUSH1 0x1C PUSH2 0x4657 JUMP JUMPDEST PUSH2 0x727 DUP9 PUSH1 0x25 PUSH2 0x4657 JUMP JUMPDEST PUSH2 0x72C PUSH2 0x3B3B DUP9 PUSH1 0x24 PUSH2 0x4657 JUMP JUMPDEST PUSH2 0x727 DUP10 PUSH1 0x1D PUSH2 0x4657 JUMP JUMPDEST DUP2 MSTORE PUSH2 0x3B8B PUSH2 0x3B80 PUSH2 0x3B67 PUSH2 0x3B5C DUP9 PUSH1 0x1C PUSH2 0x4657 JUMP JUMPDEST PUSH2 0x727 DUP10 PUSH1 0x1F PUSH2 0x4657 JUMP JUMPDEST PUSH2 0x72C PUSH2 0x3B75 DUP10 PUSH1 0x1D PUSH2 0x4657 JUMP JUMPDEST PUSH2 0x727 DUP11 PUSH1 0x1E PUSH2 0x4657 JUMP JUMPDEST PUSH2 0x74A DUP8 PUSH1 0x26 PUSH2 0x4657 JUMP JUMPDEST PUSH1 0x40 DUP3 ADD DUP2 SWAP1 MSTORE PUSH2 0x3BA0 SWAP1 PUSH1 0x1 PUSH1 0x44 SHL PUSH2 0x1FB3 JUMP JUMPDEST PUSH1 0x40 DUP3 ADD DUP2 SWAP1 MSTORE PUSH2 0x3BB6 SWAP1 PUSH2 0x74A DUP8 PUSH1 0x27 PUSH2 0x4657 JUMP JUMPDEST PUSH1 0x40 DUP3 ADD DUP2 SWAP1 MSTORE DUP2 MLOAD PUSH2 0x3BC9 SWAP2 SWAP1 PUSH2 0x1FCC JUMP JUMPDEST PUSH1 0x40 DUP3 ADD DUP2 SWAP1 MSTORE PUSH2 0x3BDF SWAP1 PUSH2 0x727 DUP8 PUSH1 0x5 PUSH2 0x4657 JUMP JUMPDEST PUSH1 0x40 DUP3 ADD MSTORE DUP1 MLOAD PUSH2 0x3BF4 SWAP1 PUSH1 0x1 PUSH1 0x44 SHL PUSH2 0x1FB3 JUMP JUMPDEST DUP1 DUP3 MSTORE PUSH2 0x3C14 SWAP1 PUSH2 0x72C PUSH2 0x3C09 DUP9 PUSH1 0x24 PUSH2 0x4657 JUMP JUMPDEST PUSH2 0x727 DUP10 PUSH1 0x25 PUSH2 0x4657 JUMP JUMPDEST DUP1 DUP3 MSTORE PUSH1 0x20 DUP3 ADD DUP2 SWAP1 MSTORE PUSH2 0x3C30 SWAP1 PUSH2 0x74A PUSH2 0x2C6A DUP9 PUSH1 0x1E PUSH2 0x4657 JUMP JUMPDEST PUSH1 0x20 DUP3 ADD DUP2 SWAP1 MSTORE PUSH2 0x3C46 SWAP1 PUSH2 0x727 DUP8 PUSH1 0x4 PUSH2 0x4657 JUMP JUMPDEST PUSH1 0x20 DUP3 ADD MSTORE DUP1 MLOAD PUSH1 0x60 DUP3 ADD DUP2 SWAP1 MSTORE PUSH2 0x3C63 SWAP1 PUSH2 0x72C DUP8 PUSH1 0x1F PUSH2 0x4657 JUMP JUMPDEST PUSH1 0x60 DUP3 ADD DUP2 SWAP1 MSTORE PUSH2 0x3C87 SWAP1 PUSH2 0x74A PUSH2 0x3C7C DUP9 PUSH1 0x26 PUSH2 0x4657 JUMP JUMPDEST PUSH2 0x72C DUP10 PUSH1 0x27 PUSH2 0x4657 JUMP JUMPDEST PUSH1 0x60 DUP3 ADD DUP2 SWAP1 MSTORE PUSH2 0x3C9C SWAP1 PUSH2 0x727 DUP8 PUSH0 PUSH2 0x4657 JUMP JUMPDEST DUP2 PUSH1 0x60 ADD DUP2 DUP2 MSTORE POP POP PUSH0 PUSH2 0x3CC5 PUSH2 0x3CBB DUP4 PUSH1 0x20 ADD MLOAD DUP5 PUSH1 0x40 ADD MLOAD PUSH2 0x1FCC JUMP JUMPDEST DUP4 PUSH1 0x60 ADD MLOAD PUSH2 0x1FCC JUMP JUMPDEST SWAP1 POP PUSH2 0x3CD6 DUP2 PUSH2 0x727 DUP9 PUSH1 0x3 PUSH2 0x4657 JUMP JUMPDEST SWAP1 POP PUSH2 0x3CEE PUSH2 0x3CE6 DUP8 PUSH1 0x25 PUSH2 0x4657 JUMP JUMPDEST PUSH2 0x4000 PUSH2 0x1FB3 JUMP JUMPDEST PUSH1 0x80 DUP4 ADD DUP2 SWAP1 MSTORE PUSH2 0x3D04 SWAP1 PUSH2 0x72C DUP9 PUSH1 0x24 PUSH2 0x4657 JUMP JUMPDEST PUSH1 0x80 DUP4 ADD DUP2 SWAP1 MSTORE PUSH2 0x3D17 SWAP1 PUSH2 0x4000 PUSH2 0x1FB3 JUMP JUMPDEST PUSH1 0x80 DUP4 ADD DUP2 SWAP1 MSTORE PUSH2 0x3D2D SWAP1 PUSH2 0x72C DUP9 PUSH1 0x1E PUSH2 0x4657 JUMP JUMPDEST PUSH1 0x80 DUP4 ADD DUP2 SWAP1 MSTORE PUSH2 0x3D40 SWAP1 PUSH2 0x4000 PUSH2 0x1FB3 JUMP JUMPDEST PUSH1 0x80 DUP4 ADD DUP2 SWAP1 MSTORE PUSH2 0x3D56 SWAP1 PUSH2 0x72C DUP9 PUSH1 0x1D PUSH2 0x4657 JUMP JUMPDEST PUSH1 0x80 DUP4 ADD DUP2 SWAP1 MSTORE PUSH2 0x3D69 SWAP1 PUSH2 0x4000 PUSH2 0x1FB3 JUMP JUMPDEST PUSH1 0x80 DUP4 ADD DUP2 SWAP1 MSTORE PUSH2 0x3D7F SWAP1 PUSH2 0x72C DUP9 PUSH1 0x1C PUSH2 0x4657 JUMP JUMPDEST PUSH1 0x80 DUP4 ADD DUP2 SWAP1 MSTORE PUSH2 0x3D95 SWAP1 PUSH2 0x74A DUP9 PUSH1 0x1F PUSH2 0x4657 JUMP JUMPDEST PUSH1 0x80 DUP4 ADD DUP2 SWAP1 MSTORE PUSH2 0x3DAB SWAP1 PUSH2 0x727 DUP9 PUSH1 0x5 PUSH2 0x4657 JUMP JUMPDEST PUSH1 0x80 DUP4 ADD MSTORE PUSH2 0x3DBE PUSH2 0x3CE6 DUP8 PUSH1 0x26 PUSH2 0x4657 JUMP JUMPDEST PUSH1 0xA0 DUP4 ADD DUP2 SWAP1 MSTORE PUSH2 0x3DD4 SWAP1 PUSH2 0x72C DUP9 PUSH1 0x25 PUSH2 0x4657 JUMP JUMPDEST PUSH1 0xA0 DUP4 ADD DUP2 SWAP1 MSTORE PUSH2 0x3DE7 SWAP1 PUSH2 0x4000 PUSH2 0x1FB3 JUMP JUMPDEST PUSH1 0xA0 DUP4 ADD DUP2 SWAP1 MSTORE PUSH2 0x3DFD SWAP1 PUSH2 0x72C DUP9 PUSH1 0x24 PUSH2 0x4657 JUMP JUMPDEST PUSH1 0xA0 DUP4 ADD DUP2 SWAP1 MSTORE PUSH2 0x3E10 SWAP1 PUSH2 0x4000 PUSH2 0x1FB3 JUMP JUMPDEST PUSH1 0xA0 DUP4 ADD DUP2 SWAP1 MSTORE PUSH2 0x3E26 SWAP1 PUSH2 0x72C DUP9 PUSH1 0x1F PUSH2 0x4657 JUMP JUMPDEST PUSH1 0xA0 DUP4 ADD DUP2 SWAP1 MSTORE PUSH2 0x3E39 SWAP1 PUSH2 0x4000 PUSH2 0x1FB3 JUMP JUMPDEST PUSH1 0xA0 DUP4 ADD DUP2 SWAP1 MSTORE PUSH2 0x3E4F SWAP1 PUSH2 0x72C DUP9 PUSH1 0x1E PUSH2 0x4657 JUMP JUMPDEST PUSH1 0xA0 DUP4 ADD DUP2 SWAP1 MSTORE PUSH2 0x3E65 SWAP1 PUSH2 0x74A DUP9 PUSH1 0x27 PUSH2 0x4657 JUMP JUMPDEST PUSH1 0xA0 DUP4 ADD DUP2 SWAP1 MSTORE PUSH2 0x3E7A SWAP1 PUSH2 0x727 DUP9 PUSH0 PUSH2 0x4657 JUMP JUMPDEST PUSH1 0xA0 DUP4 ADD DUP2 SWAP1 MSTORE PUSH1 0x80 DUP4 ADD MLOAD PUSH0 SWAP2 PUSH2 0x3E92 SWAP2 SWAP1 PUSH2 0x1FCC JUMP JUMPDEST SWAP1 POP PUSH2 0x3EA3 DUP2 PUSH2 0x727 DUP10 PUSH1 0x4 PUSH2 0x4657 JUMP JUMPDEST SWAP1 POP PUSH2 0x3EAF DUP3 DUP3 PUSH2 0x1FCC JUMP JUMPDEST PUSH1 0xC0 DUP5 ADD DUP2 SWAP1 MSTORE PUSH2 0x3EC8 SWAP1 PUSH2 0x727 PUSH2 0x3085 DUP11 PUSH1 0xB PUSH2 0x4657 JUMP JUMPDEST PUSH1 0xC0 DUP5 ADD DUP2 SWAP1 MSTORE DUP6 PUSH1 0x13 PUSH2 0x2EB5 JUMP JUMPDEST PUSH2 0x3F4D PUSH1 0x40 MLOAD DUP1 PUSH2 0x220 ADD PUSH1 0x40 MSTORE DUP1 PUSH0 DUP2 MSTORE PUSH1 0x20 ADD PUSH0 DUP2 MSTORE PUSH1 0x20 ADD PUSH0 DUP2 MSTORE PUSH1 0x20 ADD PUSH0 DUP2 MSTORE PUSH1 0x20 ADD PUSH0 DUP2 MSTORE PUSH1 0x20 ADD PUSH0 DUP2 MSTORE PUSH1 0x20 ADD PUSH0 DUP2 MSTORE PUSH1 0x20 ADD PUSH0 DUP2 MSTORE PUSH1 0x20 ADD PUSH0 DUP2 MSTORE PUSH1 0x20 ADD PUSH0 DUP2 MSTORE PUSH1 0x20 ADD PUSH0 DUP2 MSTORE PUSH1 0x20 ADD PUSH0 DUP2 MSTORE PUSH1 0x20 ADD PUSH0 DUP2 MSTORE PUSH1 0x20 ADD PUSH0 DUP2 MSTORE PUSH1 0x20 ADD PUSH0 DUP2 MSTORE PUSH1 0x20 ADD PUSH0 DUP2 MSTORE PUSH1 0x20 ADD PUSH0 DUP2 MSTORE POP SWAP1 JUMP JUMPDEST PUSH2 0x3F66 PUSH2 0x3F5B DUP6 PUSH1 0x1C PUSH2 0x4657 JUMP JUMPDEST PUSH2 0x72C DUP7 PUSH1 0x2 PUSH2 0x4657 JUMP JUMPDEST DUP2 MSTORE PUSH2 0x3F81 PUSH2 0x3F76 DUP6 PUSH1 0x1D PUSH2 0x4657 JUMP JUMPDEST PUSH2 0x72C DUP7 PUSH1 0x3 PUSH2 0x4657 JUMP JUMPDEST PUSH1 0x20 DUP3 ADD MSTORE PUSH2 0x3F9F PUSH2 0x3F94 DUP6 PUSH1 0x1E PUSH2 0x4657 JUMP JUMPDEST PUSH2 0x72C DUP7 PUSH1 0x4 PUSH2 0x4657 JUMP JUMPDEST PUSH1 0x40 DUP3 ADD MSTORE PUSH2 0x3FBD PUSH2 0x3FB2 DUP6 PUSH1 0x1F PUSH2 0x4657 JUMP JUMPDEST PUSH2 0x72C DUP7 PUSH1 0x5 PUSH2 0x4657 JUMP JUMPDEST PUSH1 0x60 DUP3 ADD MSTORE DUP1 MLOAD PUSH2 0x3FEF SWAP1 PUSH2 0x3FE8 SWAP1 PUSH2 0x3FE1 SWAP1 PUSH2 0x3FDA SWAP1 DUP1 PUSH2 0x1FB3 JUMP JUMPDEST DUP5 MLOAD PUSH2 0x1FB3 JUMP JUMPDEST DUP4 MLOAD PUSH2 0x1FB3 JUMP JUMPDEST DUP3 MLOAD PUSH2 0x1FB3 JUMP JUMPDEST PUSH1 0x80 DUP3 ADD MSTORE PUSH1 0x20 DUP2 ADD MLOAD PUSH2 0x402D SWAP1 PUSH2 0x4023 SWAP1 PUSH2 0x4019 SWAP1 PUSH2 0x400F SWAP1 DUP1 PUSH2 0x1FB3 JUMP JUMPDEST DUP5 PUSH1 0x20 ADD MLOAD PUSH2 0x1FB3 JUMP JUMPDEST DUP4 PUSH1 0x20 ADD MLOAD PUSH2 0x1FB3 JUMP JUMPDEST DUP3 PUSH1 0x20 ADD MLOAD PUSH2 0x1FB3 JUMP JUMPDEST PUSH1 0xA0 DUP3 ADD MSTORE PUSH1 0x40 DUP2 ADD MLOAD PUSH2 0x406B SWAP1 PUSH2 0x4061 SWAP1 PUSH2 0x4057 SWAP1 PUSH2 0x404D SWAP1 DUP1 PUSH2 0x1FB3 JUMP JUMPDEST DUP5 PUSH1 0x40 ADD MLOAD PUSH2 0x1FB3 JUMP JUMPDEST DUP4 PUSH1 0x40 ADD MLOAD PUSH2 0x1FB3 JUMP JUMPDEST DUP3 PUSH1 0x40 ADD MLOAD PUSH2 0x1FB3 JUMP JUMPDEST PUSH1 0xC0 DUP3 ADD MSTORE PUSH1 0x60 DUP2 ADD MLOAD PUSH2 0x409F SWAP1 PUSH2 0x3797 SWAP1 PUSH2 0x4095 SWAP1 PUSH2 0x408B SWAP1 DUP1 PUSH2 0x1FB3 JUMP JUMPDEST DUP5 PUSH1 0x60 ADD MLOAD PUSH2 0x1FB3 JUMP JUMPDEST DUP4 PUSH1 0x60 ADD MLOAD PUSH2 0x1FB3 JUMP JUMPDEST PUSH1 0xE0 DUP3 ADD MSTORE PUSH1 0x80 DUP2 ADD MLOAD PUSH1 0xA0 DUP3 ADD MLOAD PUSH2 0x40B8 SWAP2 SWAP1 PUSH2 0x1FCC JUMP JUMPDEST PUSH2 0x100 DUP3 ADD MSTORE PUSH1 0xC0 DUP2 ADD MLOAD PUSH1 0xE0 DUP3 ADD MLOAD PUSH2 0x40D2 SWAP2 SWAP1 PUSH2 0x1FCC JUMP JUMPDEST PUSH2 0x120 DUP3 ADD MSTORE PUSH1 0xA0 DUP2 ADD MLOAD PUSH2 0x40F6 SWAP1 PUSH2 0x40EB SWAP1 DUP1 PUSH2 0x1FCC JUMP JUMPDEST DUP3 PUSH2 0x120 ADD MLOAD PUSH2 0x1FCC JUMP JUMPDEST PUSH2 0x140 DUP3 ADD MSTORE PUSH1 0xE0 DUP2 ADD MLOAD PUSH2 0x411A SWAP1 PUSH2 0x410F SWAP1 DUP1 PUSH2 0x1FCC JUMP JUMPDEST DUP3 PUSH2 0x100 ADD MLOAD PUSH2 0x1FCC JUMP JUMPDEST PUSH2 0x160 DUP3 ADD MSTORE PUSH2 0x120 DUP2 ADD MLOAD PUSH2 0x4130 SWAP1 DUP1 PUSH2 0x1FCC JUMP JUMPDEST PUSH2 0x1E0 DUP3 ADD DUP2 SWAP1 MSTORE PUSH2 0x4151 SWAP1 PUSH2 0x4146 SWAP1 DUP1 PUSH2 0x1FCC JUMP JUMPDEST DUP3 PUSH2 0x160 ADD MLOAD PUSH2 0x1FCC JUMP JUMPDEST PUSH2 0x1E0 DUP3 ADD MSTORE PUSH2 0x100 DUP2 ADD MLOAD PUSH2 0x4167 SWAP1 DUP1 PUSH2 0x1FCC JUMP JUMPDEST PUSH2 0x1A0 DUP3 ADD DUP2 SWAP1 MSTORE PUSH2 0x4188 SWAP1 PUSH2 0x417D SWAP1 DUP1 PUSH2 0x1FCC JUMP JUMPDEST DUP3 PUSH2 0x140 ADD MLOAD PUSH2 0x1FCC JUMP JUMPDEST PUSH2 0x1A0 DUP3 ADD DUP2 SWAP1 MSTORE PUSH2 0x160 DUP3 ADD MLOAD PUSH2 0x419F SWAP2 PUSH2 0x1FCC JUMP JUMPDEST PUSH2 0x180 DUP3 ADD MSTORE PUSH2 0x140 DUP2 ADD MLOAD PUSH2 0x1E0 DUP3 ADD MLOAD PUSH2 0x41BB SWAP2 SWAP1 PUSH2 0x1FCC JUMP JUMPDEST PUSH2 0x1C0 DUP3 ADD MSTORE PUSH2 0x41CF PUSH2 0x2B92 DUP6 PUSH1 0xC PUSH2 0x4657 JUMP JUMPDEST PUSH2 0x200 DUP3 ADD DUP2 SWAP1 MSTORE PUSH2 0x280 DUP5 ADD MLOAD PUSH2 0x180 DUP4 ADD MLOAD PUSH2 0x41FA SWAP3 PUSH2 0x72C SWAP2 PUSH2 0x727 SWAP1 PUSH2 0x74A DUP11 PUSH1 0x24 PUSH2 0x4657 JUMP JUMPDEST DUP4 PUSH1 0x14 PUSH1 0x20 MUL ADD MSTORE PUSH2 0x422A DUP4 PUSH1 0x15 PUSH1 0x20 MUL ADD MLOAD PUSH2 0x72C DUP4 PUSH2 0x200 ADD MLOAD PUSH2 0x727 DUP6 PUSH2 0x1A0 ADD MLOAD PUSH2 0x74A DUP11 PUSH1 0x25 PUSH2 0x4657 JUMP JUMPDEST DUP4 PUSH1 0x15 PUSH1 0x20 MUL ADD MSTORE PUSH2 0x425A DUP4 PUSH1 0x16 PUSH1 0x20 MUL ADD MLOAD PUSH2 0x72C DUP4 PUSH2 0x200 ADD MLOAD PUSH2 0x727 DUP6 PUSH2 0x1C0 ADD MLOAD PUSH2 0x74A DUP11 PUSH1 0x26 PUSH2 0x4657 JUMP JUMPDEST DUP4 PUSH1 0x16 PUSH1 0x20 MUL ADD MSTORE PUSH2 0x428A DUP4 PUSH1 0x17 PUSH1 0x20 MUL ADD MLOAD PUSH2 0x72C DUP4 PUSH2 0x200 ADD MLOAD PUSH2 0x727 DUP6 PUSH2 0x1E0 ADD MLOAD PUSH2 0x74A DUP11 PUSH1 0x27 PUSH2 0x4657 JUMP JUMPDEST DUP4 PUSH1 0x17 PUSH1 0x20 MUL ADD MSTORE POP POP POP POP JUMP JUMPDEST PUSH2 0x42EA PUSH1 0x40 MLOAD DUP1 PUSH2 0x160 ADD PUSH1 0x40 MSTORE DUP1 PUSH0 DUP2 MSTORE PUSH1 0x20 ADD PUSH0 DUP2 MSTORE PUSH1 0x20 ADD PUSH0 DUP2 MSTORE PUSH1 0x20 ADD PUSH0 DUP2 MSTORE PUSH1 0x20 ADD PUSH0 DUP2 MSTORE PUSH1 0x20 ADD PUSH0 DUP2 MSTORE PUSH1 0x20 ADD PUSH0 DUP2 MSTORE PUSH1 0x20 ADD PUSH0 DUP2 MSTORE PUSH1 0x20 ADD PUSH0 DUP2 MSTORE PUSH1 0x20 ADD PUSH0 DUP2 MSTORE PUSH1 0x20 ADD PUSH0 DUP2 MSTORE POP SWAP1 JUMP JUMPDEST PUSH0 PUSH1 0x40 MLOAD DUP1 PUSH1 0x80 ADD PUSH1 0x40 MSTORE DUP1 PUSH2 0x431F PUSH32 0x10DC6E9C006EA38B04B1E03B4BD9490C0D03F98929CA1D7FB56821FD19D3B6E7 PUSH2 0x1F95 JUMP JUMPDEST DUP2 MSTORE PUSH1 0x20 ADD PUSH2 0x434D PUSH32 0xC28145B6A44DF3E0149B3D0A30B3BB599DF9756D4DD9B84A86B38CFB45A740B PUSH2 0x1F95 JUMP JUMPDEST DUP2 MSTORE PUSH1 0x20 ADD PUSH2 0x437A PUSH31 0x544B8338791518B2C7645A50392798B21F75BB60E3596170067D00141CAC15 PUSH2 0x1F95 JUMP JUMPDEST DUP2 MSTORE PUSH1 0x20 ADD PUSH2 0x43A8 PUSH32 0x222C01175718386F2E2E82EB122789E352E105A3B8FA852613BC534433EE428B PUSH2 0x1F95 JUMP JUMPDEST SWAP1 MSTORE SWAP1 POP PUSH2 0x43C5 PUSH2 0x43BA DUP7 PUSH1 0x1C PUSH2 0x4657 JUMP JUMPDEST PUSH2 0x72C DUP8 PUSH1 0x2 PUSH2 0x4657 JUMP JUMPDEST PUSH2 0x120 DUP4 ADD DUP2 SWAP1 MSTORE PUSH2 0x4404 SWAP1 PUSH2 0x43F9 SWAP1 PUSH2 0x43EE SWAP1 PUSH2 0x43E3 SWAP1 DUP1 PUSH2 0x1FB3 JUMP JUMPDEST DUP6 PUSH2 0x120 ADD MLOAD PUSH2 0x1FB3 JUMP JUMPDEST DUP5 PUSH2 0x120 ADD MLOAD PUSH2 0x1FB3 JUMP JUMPDEST DUP4 PUSH2 0x120 ADD MLOAD PUSH2 0x1FB3 JUMP JUMPDEST DUP3 MSTORE PUSH2 0x4411 DUP6 PUSH1 0x1D PUSH2 0x4657 JUMP JUMPDEST PUSH1 0x20 DUP4 ADD MSTORE PUSH2 0x4421 DUP6 PUSH1 0x1E PUSH2 0x4657 JUMP JUMPDEST PUSH1 0x40 DUP4 ADD MSTORE PUSH2 0x4431 DUP6 PUSH1 0x1F PUSH2 0x4657 JUMP JUMPDEST PUSH1 0x60 DUP4 ADD MSTORE DUP2 MLOAD PUSH1 0x20 DUP4 ADD MLOAD PUSH2 0x4459 SWAP2 PUSH2 0x3CBB SWAP2 PUSH2 0x444F SWAP2 SWAP1 PUSH2 0x1FCC JUMP JUMPDEST DUP5 PUSH1 0x40 ADD MLOAD PUSH2 0x1FCC JUMP JUMPDEST PUSH1 0x80 DUP4 ADD MSTORE PUSH2 0x446C PUSH2 0x2E44 DUP7 PUSH1 0xD PUSH2 0x4657 JUMP JUMPDEST PUSH2 0x140 DUP4 ADD MSTORE DUP2 MLOAD PUSH2 0x448D SWAP1 PUSH2 0x4483 SWAP1 DUP4 PUSH0 PUSH2 0x9D5 JUMP JUMPDEST DUP4 PUSH1 0x80 ADD MLOAD PUSH2 0x1FCC JUMP JUMPDEST PUSH1 0xA0 DUP4 ADD MSTORE PUSH2 0x44B9 DUP5 PUSH1 0x18 PUSH1 0x20 MUL ADD MLOAD PUSH2 0x72C DUP5 PUSH2 0x140 ADD MLOAD PUSH2 0x727 DUP7 PUSH1 0xA0 ADD MLOAD PUSH2 0x74A DUP12 PUSH1 0x24 PUSH2 0x4657 JUMP JUMPDEST PUSH2 0x300 DUP6 ADD MSTORE PUSH1 0x20 DUP3 ADD MLOAD PUSH2 0x44D4 SWAP1 PUSH2 0x4483 SWAP1 DUP4 PUSH1 0x1 PUSH2 0x9D5 JUMP JUMPDEST PUSH1 0xC0 DUP4 ADD MSTORE PUSH2 0x4500 DUP5 PUSH1 0x19 PUSH1 0x20 MUL ADD MLOAD PUSH2 0x72C DUP5 PUSH2 0x140 ADD MLOAD PUSH2 0x727 DUP7 PUSH1 0xC0 ADD MLOAD PUSH2 0x74A DUP12 PUSH1 0x25 PUSH2 0x4657 JUMP JUMPDEST PUSH2 0x320 DUP6 ADD MSTORE PUSH1 0x40 DUP3 ADD MLOAD PUSH2 0x451B SWAP1 PUSH2 0x4483 SWAP1 DUP4 PUSH1 0x2 PUSH2 0x9D5 JUMP JUMPDEST PUSH1 0xE0 DUP4 ADD MSTORE PUSH2 0x4547 DUP5 PUSH1 0x1A PUSH1 0x20 MUL ADD MLOAD PUSH2 0x72C DUP5 PUSH2 0x140 ADD MLOAD PUSH2 0x727 DUP7 PUSH1 0xE0 ADD MLOAD PUSH2 0x74A DUP12 PUSH1 0x26 PUSH2 0x4657 JUMP JUMPDEST PUSH2 0x340 DUP6 ADD MSTORE PUSH1 0x60 DUP3 ADD MLOAD PUSH2 0x4562 SWAP1 PUSH2 0x4483 SWAP1 DUP4 PUSH1 0x3 PUSH2 0x9D5 JUMP JUMPDEST PUSH2 0x100 DUP4 ADD MSTORE PUSH2 0x4590 DUP5 PUSH1 0x1B PUSH1 0x20 MUL ADD MLOAD PUSH2 0x72C DUP5 PUSH2 0x140 ADD MLOAD PUSH2 0x727 DUP7 PUSH2 0x100 ADD MLOAD PUSH2 0x74A DUP12 PUSH1 0x27 PUSH2 0x4657 JUMP JUMPDEST DUP5 PUSH1 0x1B PUSH2 0x2CCB JUMP JUMPDEST PUSH0 PUSH2 0x45A4 DUP2 DUP5 DUP2 PUSH2 0x8DA JUMP JUMPDEST SWAP1 POP PUSH1 0x1 JUMPDEST PUSH1 0x1C DUP2 LT ISZERO PUSH2 0x45F6 JUMPI PUSH2 0x45EC DUP3 PUSH2 0x72C DUP7 DUP5 PUSH1 0x1C DUP2 LT PUSH2 0x45CB JUMPI PUSH2 0x45CB PUSH2 0x5589 JUMP JUMPDEST PUSH1 0x20 MUL ADD MLOAD DUP7 PUSH2 0x45DC PUSH1 0x1 DUP8 PUSH2 0x4FF1 JUMP JUMPDEST PUSH1 0x1B DUP2 LT PUSH2 0x9D5 JUMPI PUSH2 0x9D5 PUSH2 0x5589 JUMP JUMPDEST SWAP2 POP PUSH1 0x1 ADD PUSH2 0x45A9 JUMP JUMPDEST POP SWAP3 SWAP2 POP POP JUMP JUMPDEST PUSH0 PUSH0 DUP4 SWAP1 POP PUSH0 PUSH1 0x40 MLOAD PUSH1 0x20 DUP2 MSTORE PUSH1 0x20 DUP1 DUP3 ADD MSTORE PUSH1 0x20 PUSH1 0x40 DUP3 ADD MSTORE DUP3 PUSH1 0x60 DUP3 ADD MSTORE DUP5 PUSH1 0x80 DUP3 ADD MSTORE PUSH0 MLOAD PUSH1 0x20 PUSH2 0x5650 PUSH0 CODECOPY PUSH0 MLOAD SWAP1 PUSH0 MSTORE PUSH1 0xA0 DUP3 ADD MSTORE PUSH1 0x20 PUSH0 PUSH1 0xC0 DUP4 PUSH1 0x5 GAS STATICCALL SWAP1 POP DUP1 PUSH2 0x464B JUMPI PUSH0 PUSH0 REVERT JUMPDEST POP POP PUSH0 MLOAD SWAP5 SWAP4 POP POP POP POP JUMP JUMPDEST PUSH0 DUP3 DUP3 PUSH1 0x28 DUP2 GT ISZERO PUSH2 0x466B JUMPI PUSH2 0x466B PUSH2 0x563B JUMP JUMPDEST PUSH1 0x29 DUP2 LT PUSH2 0x467B JUMPI PUSH2 0x467B PUSH2 0x5589 JUMP JUMPDEST PUSH1 0x20 MUL ADD MLOAD SWAP4 SWAP3 POP POP POP JUMP JUMPDEST PUSH1 0x40 MLOAD DUP1 PUSH2 0x3E0 ADD PUSH1 0x40 MSTORE DUP1 PUSH0 DUP2 MSTORE PUSH1 0x20 ADD PUSH0 DUP2 MSTORE PUSH1 0x20 ADD PUSH0 DUP2 MSTORE PUSH1 0x20 ADD PUSH2 0x46C0 PUSH1 0x40 MLOAD DUP1 PUSH1 0x40 ADD PUSH1 0x40 MSTORE DUP1 PUSH0 DUP2 MSTORE PUSH1 0x20 ADD PUSH0 DUP2 MSTORE POP SWAP1 JUMP JUMPDEST DUP2 MSTORE PUSH1 0x20 ADD PUSH2 0x46E0 PUSH1 0x40 MLOAD DUP1 PUSH1 0x40 ADD PUSH1 0x40 MSTORE DUP1 PUSH0 DUP2 MSTORE PUSH1 0x20 ADD PUSH0 DUP2 MSTORE POP SWAP1 JUMP JUMPDEST DUP2 MSTORE PUSH1 0x20 ADD PUSH2 0x4700 PUSH1 0x40 MLOAD DUP1 PUSH1 0x40 ADD PUSH1 0x40 MSTORE DUP1 PUSH0 DUP2 MSTORE PUSH1 0x20 ADD PUSH0 DUP2 MSTORE POP SWAP1 JUMP JUMPDEST DUP2 MSTORE PUSH1 0x20 ADD PUSH2 0x4720 PUSH1 0x40 MLOAD DUP1 PUSH1 0x40 ADD PUSH1 0x40 MSTORE DUP1 PUSH0 DUP2 MSTORE PUSH1 0x20 ADD PUSH0 DUP2 MSTORE POP SWAP1 JUMP JUMPDEST DUP2 MSTORE PUSH1 0x20 ADD PUSH2 0x4740 PUSH1 0x40 MLOAD DUP1 PUSH1 0x40 ADD PUSH1 0x40 MSTORE DUP1 PUSH0 DUP2 MSTORE PUSH1 0x20 ADD PUSH0 DUP2 MSTORE POP SWAP1 JUMP JUMPDEST DUP2 MSTORE PUSH1 0x20 ADD PUSH2 0x4760 PUSH1 0x40 MLOAD DUP1 PUSH1 0x40 ADD PUSH1 0x40 MSTORE DUP1 PUSH0 DUP2 MSTORE PUSH1 0x20 ADD PUSH0 DUP2 MSTORE POP SWAP1 JUMP JUMPDEST DUP2 MSTORE PUSH1 0x20 ADD PUSH2 0x4780 PUSH1 0x40 MLOAD DUP1 PUSH1 0x40 ADD PUSH1 0x40 MSTORE DUP1 PUSH0 DUP2 MSTORE PUSH1 0x20 ADD PUSH0 DUP2 MSTORE POP SWAP1 JUMP JUMPDEST DUP2 MSTORE PUSH1 0x20 ADD PUSH2 0x47A0 PUSH1 0x40 MLOAD DUP1 PUSH1 0x40 ADD PUSH1 0x40 MSTORE DUP1 PUSH0 DUP2 MSTORE PUSH1 0x20 ADD PUSH0 DUP2 MSTORE POP SWAP1 JUMP JUMPDEST DUP2 MSTORE PUSH1 0x20 ADD PUSH2 0x47C0 PUSH1 0x40 MLOAD DUP1 PUSH1 0x40 ADD PUSH1 0x40 MSTORE DUP1 PUSH0 DUP2 MSTORE PUSH1 0x20 ADD PUSH0 DUP2 MSTORE POP SWAP1 JUMP JUMPDEST DUP2 MSTORE PUSH1 0x20 ADD PUSH2 0x47E0 PUSH1 0x40 MLOAD DUP1 PUSH1 0x40 ADD PUSH1 0x40 MSTORE DUP1 PUSH0 DUP2 MSTORE PUSH1 0x20 ADD PUSH0 DUP2 MSTORE POP SWAP1 JUMP JUMPDEST DUP2 MSTORE PUSH1 0x20 ADD PUSH2 0x4800 PUSH1 0x40 MLOAD DUP1 PUSH1 0x40 ADD PUSH1 0x40 MSTORE DUP1 PUSH0 DUP2 MSTORE PUSH1 0x20 ADD PUSH0 DUP2 MSTORE POP SWAP1 JUMP JUMPDEST DUP2 MSTORE PUSH1 0x20 ADD PUSH2 0x4820 PUSH1 0x40 MLOAD DUP1 PUSH1 0x40 ADD PUSH1 0x40 MSTORE DUP1 PUSH0 DUP2 MSTORE PUSH1 0x20 ADD PUSH0 DUP2 MSTORE POP SWAP1 JUMP JUMPDEST DUP2 MSTORE PUSH1 0x20 ADD PUSH2 0x4840 PUSH1 0x40 MLOAD DUP1 PUSH1 0x40 ADD PUSH1 0x40 MSTORE DUP1 PUSH0 DUP2 MSTORE PUSH1 0x20 ADD PUSH0 DUP2 MSTORE POP SWAP1 JUMP JUMPDEST DUP2 MSTORE PUSH1 0x20 ADD PUSH2 0x4860 PUSH1 0x40 MLOAD DUP1 PUSH1 0x40 ADD PUSH1 0x40 MSTORE DUP1 PUSH0 DUP2 MSTORE PUSH1 0x20 ADD PUSH0 DUP2 MSTORE POP SWAP1 JUMP JUMPDEST DUP2 MSTORE PUSH1 0x20 ADD PUSH2 0x4880 PUSH1 0x40 MLOAD DUP1 PUSH1 0x40 ADD PUSH1 0x40 MSTORE DUP1 PUSH0 DUP2 MSTORE PUSH1 0x20 ADD PUSH0 DUP2 MSTORE POP SWAP1 JUMP JUMPDEST DUP2 MSTORE PUSH1 0x20 ADD PUSH2 0x48A0 PUSH1 0x40 MLOAD DUP1 PUSH1 0x40 ADD PUSH1 0x40 MSTORE DUP1 PUSH0 DUP2 MSTORE PUSH1 0x20 ADD PUSH0 DUP2 MSTORE POP SWAP1 JUMP JUMPDEST DUP2 MSTORE PUSH1 0x20 ADD PUSH2 0x48C0 PUSH1 0x40 MLOAD DUP1 PUSH1 0x40 ADD PUSH1 0x40 MSTORE DUP1 PUSH0 DUP2 MSTORE PUSH1 0x20 ADD PUSH0 DUP2 MSTORE POP SWAP1 JUMP JUMPDEST DUP2 MSTORE PUSH1 0x20 ADD PUSH2 0x48E0 PUSH1 0x40 MLOAD DUP1 PUSH1 0x40 ADD PUSH1 0x40 MSTORE DUP1 PUSH0 DUP2 MSTORE PUSH1 0x20 ADD PUSH0 DUP2 MSTORE POP SWAP1 JUMP JUMPDEST DUP2 MSTORE PUSH1 0x20 ADD PUSH2 0x4900 PUSH1 0x40 MLOAD DUP1 PUSH1 0x40 ADD PUSH1 0x40 MSTORE DUP1 PUSH0 DUP2 MSTORE PUSH1 0x20 ADD PUSH0 DUP2 MSTORE POP SWAP1 JUMP JUMPDEST DUP2 MSTORE PUSH1 0x20 ADD PUSH2 0x4920 PUSH1 0x40 MLOAD DUP1 PUSH1 0x40 ADD PUSH1 0x40 MSTORE DUP1 PUSH0 DUP2 MSTORE PUSH1 0x20 ADD PUSH0 DUP2 MSTORE POP SWAP1 JUMP JUMPDEST DUP2 MSTORE PUSH1 0x20 ADD PUSH2 0x4940 PUSH1 0x40 MLOAD DUP1 PUSH1 0x40 ADD PUSH1 0x40 MSTORE DUP1 PUSH0 DUP2 MSTORE PUSH1 0x20 ADD PUSH0 DUP2 MSTORE POP SWAP1 JUMP JUMPDEST DUP2 MSTORE PUSH1 0x20 ADD PUSH2 0x4960 PUSH1 0x40 MLOAD DUP1 PUSH1 0x40 ADD PUSH1 0x40 MSTORE DUP1 PUSH0 DUP2 MSTORE PUSH1 0x20 ADD PUSH0 DUP2 MSTORE POP SWAP1 JUMP JUMPDEST DUP2 MSTORE PUSH1 0x20 ADD PUSH2 0x4980 PUSH1 0x40 MLOAD DUP1 PUSH1 0x40 ADD PUSH1 0x40 MSTORE DUP1 PUSH0 DUP2 MSTORE PUSH1 0x20 ADD PUSH0 DUP2 MSTORE POP SWAP1 JUMP JUMPDEST DUP2 MSTORE PUSH1 0x20 ADD PUSH2 0x49A0 PUSH1 0x40 MLOAD DUP1 PUSH1 0x40 ADD PUSH1 0x40 MSTORE DUP1 PUSH0 DUP2 MSTORE PUSH1 0x20 ADD PUSH0 DUP2 MSTORE POP SWAP1 JUMP JUMPDEST DUP2 MSTORE PUSH1 0x20 ADD PUSH2 0x49C0 PUSH1 0x40 MLOAD DUP1 PUSH1 0x40 ADD PUSH1 0x40 MSTORE DUP1 PUSH0 DUP2 MSTORE PUSH1 0x20 ADD PUSH0 DUP2 MSTORE POP SWAP1 JUMP JUMPDEST DUP2 MSTORE PUSH1 0x20 ADD PUSH2 0x49E0 PUSH1 0x40 MLOAD DUP1 PUSH1 0x40 ADD PUSH1 0x40 MSTORE DUP1 PUSH0 DUP2 MSTORE PUSH1 0x20 ADD PUSH0 DUP2 MSTORE POP SWAP1 JUMP JUMPDEST DUP2 MSTORE PUSH1 0x20 ADD PUSH2 0x4A00 PUSH1 0x40 MLOAD DUP1 PUSH1 0x40 ADD PUSH1 0x40 MSTORE DUP1 PUSH0 DUP2 MSTORE PUSH1 0x20 ADD PUSH0 DUP2 MSTORE POP SWAP1 JUMP JUMPDEST DUP2 MSTORE PUSH1 0x20 ADD PUSH2 0x4A20 PUSH1 0x40 MLOAD DUP1 PUSH1 0x40 ADD PUSH1 0x40 MSTORE DUP1 PUSH0 DUP2 MSTORE PUSH1 0x20 ADD PUSH0 DUP2 MSTORE POP SWAP1 JUMP JUMPDEST SWAP1 MSTORE SWAP1 JUMP JUMPDEST PUSH1 0x40 MLOAD DUP1 PUSH2 0x2A0 ADD PUSH1 0x40 MSTORE DUP1 PUSH2 0x4A39 PUSH2 0x4DBB JUMP JUMPDEST DUP2 MSTORE PUSH1 0x20 ADD PUSH2 0x4A65 PUSH1 0x40 MLOAD DUP1 PUSH1 0x80 ADD PUSH1 0x40 MSTORE DUP1 PUSH0 DUP2 MSTORE PUSH1 0x20 ADD PUSH0 DUP2 MSTORE PUSH1 0x20 ADD PUSH0 DUP2 MSTORE PUSH1 0x20 ADD PUSH0 DUP2 MSTORE POP SWAP1 JUMP JUMPDEST DUP2 MSTORE PUSH1 0x20 ADD PUSH2 0x4A91 PUSH1 0x40 MLOAD DUP1 PUSH1 0x80 ADD PUSH1 0x40 MSTORE DUP1 PUSH0 DUP2 MSTORE PUSH1 0x20 ADD PUSH0 DUP2 MSTORE PUSH1 0x20 ADD PUSH0 DUP2 MSTORE PUSH1 0x20 ADD PUSH0 DUP2 MSTORE POP SWAP1 JUMP JUMPDEST DUP2 MSTORE PUSH1 0x20 ADD PUSH2 0x4ABD PUSH1 0x40 MLOAD DUP1 PUSH1 0x80 ADD PUSH1 0x40 MSTORE DUP1 PUSH0 DUP2 MSTORE PUSH1 0x20 ADD PUSH0 DUP2 MSTORE PUSH1 0x20 ADD PUSH0 DUP2 MSTORE PUSH1 0x20 ADD PUSH0 DUP2 MSTORE POP SWAP1 JUMP JUMPDEST DUP2 MSTORE PUSH1 0x20 ADD PUSH2 0x4AE9 PUSH1 0x40 MLOAD DUP1 PUSH1 0x80 ADD PUSH1 0x40 MSTORE DUP1 PUSH0 DUP2 MSTORE PUSH1 0x20 ADD PUSH0 DUP2 MSTORE PUSH1 0x20 ADD PUSH0 DUP2 MSTORE PUSH1 0x20 ADD PUSH0 DUP2 MSTORE POP SWAP1 JUMP JUMPDEST DUP2 MSTORE PUSH1 0x20 ADD PUSH2 0x4B15 PUSH1 0x40 MLOAD DUP1 PUSH1 0x80 ADD PUSH1 0x40 MSTORE DUP1 PUSH0 DUP2 MSTORE PUSH1 0x20 ADD PUSH0 DUP2 MSTORE PUSH1 0x20 ADD PUSH0 DUP2 MSTORE PUSH1 0x20 ADD PUSH0 DUP2 MSTORE POP SWAP1 JUMP JUMPDEST DUP2 MSTORE PUSH1 0x20 ADD PUSH2 0x4B41 PUSH1 0x40 MLOAD DUP1 PUSH1 0x80 ADD PUSH1 0x40 MSTORE DUP1 PUSH0 DUP2 MSTORE PUSH1 0x20 ADD PUSH0 DUP2 MSTORE PUSH1 0x20 ADD PUSH0 DUP2 MSTORE PUSH1 0x20 ADD PUSH0 DUP2 MSTORE POP SWAP1 JUMP JUMPDEST DUP2 MSTORE PUSH1 0x20 ADD PUSH2 0x4B6D PUSH1 0x40 MLOAD DUP1 PUSH1 0x80 ADD PUSH1 0x40 MSTORE DUP1 PUSH0 DUP2 MSTORE PUSH1 0x20 ADD PUSH0 DUP2 MSTORE PUSH1 0x20 ADD PUSH0 DUP2 MSTORE PUSH1 0x20 ADD PUSH0 DUP2 MSTORE POP SWAP1 JUMP JUMPDEST DUP2 MSTORE PUSH1 0x20 ADD PUSH2 0x4B99 PUSH1 0x40 MLOAD DUP1 PUSH1 0x80 ADD PUSH1 0x40 MSTORE DUP1 PUSH0 DUP2 MSTORE PUSH1 0x20 ADD PUSH0 DUP2 MSTORE PUSH1 0x20 ADD PUSH0 DUP2 MSTORE PUSH1 0x20 ADD PUSH0 DUP2 MSTORE POP SWAP1 JUMP JUMPDEST DUP2 MSTORE PUSH1 0x20 ADD PUSH2 0x4BA6 PUSH2 0x4DDA JUMP JUMPDEST DUP2 MSTORE PUSH1 0x20 ADD PUSH0 DUP2 MSTORE PUSH1 0x20 ADD PUSH2 0x4BB9 PUSH2 0x4E26 JUMP JUMPDEST DUP2 MSTORE PUSH1 0x20 ADD PUSH2 0x4BC6 PUSH2 0x4E54 JUMP JUMPDEST DUP2 MSTORE PUSH1 0x20 ADD PUSH0 DUP2 MSTORE PUSH1 0x20 ADD PUSH2 0x4BF8 PUSH1 0x40 MLOAD DUP1 PUSH1 0x80 ADD PUSH1 0x40 MSTORE DUP1 PUSH0 DUP2 MSTORE PUSH1 0x20 ADD PUSH0 DUP2 MSTORE PUSH1 0x20 ADD PUSH0 DUP2 MSTORE PUSH1 0x20 ADD PUSH0 DUP2 MSTORE POP SWAP1 JUMP JUMPDEST DUP2 MSTORE PUSH1 0x20 ADD PUSH0 DUP2 MSTORE PUSH1 0x20 ADD PUSH2 0x4C0B PUSH2 0x4E73 JUMP JUMPDEST DUP2 MSTORE PUSH1 0x20 ADD PUSH2 0x4C18 PUSH2 0x4D58 JUMP JUMPDEST DUP2 MSTORE PUSH1 0x20 ADD PUSH2 0x4C25 PUSH2 0x4EC0 JUMP JUMPDEST DUP2 MSTORE PUSH1 0x20 ADD PUSH2 0x4C51 PUSH1 0x40 MLOAD DUP1 PUSH1 0x80 ADD PUSH1 0x40 MSTORE DUP1 PUSH0 DUP2 MSTORE PUSH1 0x20 ADD PUSH0 DUP2 MSTORE PUSH1 0x20 ADD PUSH0 DUP2 MSTORE PUSH1 0x20 ADD PUSH0 DUP2 MSTORE POP SWAP1 JUMP JUMPDEST DUP2 MSTORE PUSH1 0x20 ADD PUSH2 0x4A20 PUSH1 0x40 MLOAD DUP1 PUSH1 0x80 ADD PUSH1 0x40 MSTORE DUP1 PUSH0 DUP2 MSTORE PUSH1 0x20 ADD PUSH0 DUP2 MSTORE PUSH1 0x20 ADD PUSH0 DUP2 MSTORE PUSH1 0x20 ADD PUSH0 DUP2 MSTORE POP SWAP1 JUMP JUMPDEST PUSH1 0x40 MLOAD DUP1 PUSH2 0x180 ADD PUSH1 0x40 MSTORE DUP1 PUSH0 DUP2 MSTORE PUSH1 0x20 ADD PUSH0 DUP2 MSTORE PUSH1 0x20 ADD PUSH0 DUP2 MSTORE PUSH1 0x20 ADD PUSH0 DUP2 MSTORE PUSH1 0x20 ADD PUSH0 DUP2 MSTORE PUSH1 0x20 ADD PUSH2 0x4CAF PUSH2 0x4EC0 JUMP JUMPDEST DUP2 MSTORE PUSH1 0x20 ADD PUSH2 0x4CBC PUSH2 0x4EC0 JUMP JUMPDEST DUP2 MSTORE PUSH1 0x20 ADD PUSH0 DUP2 MSTORE PUSH1 0x20 ADD PUSH0 DUP2 MSTORE PUSH1 0x20 ADD PUSH0 DUP2 MSTORE PUSH1 0x20 ADD PUSH0 DUP2 MSTORE PUSH1 0x20 ADD PUSH2 0x4A20 PUSH2 0x4D58 JUMP JUMPDEST PUSH1 0x40 MLOAD DUP1 PUSH2 0x960 ADD PUSH1 0x40 MSTORE DUP1 PUSH1 0x4B SWAP1 PUSH1 0x20 DUP3 MUL DUP1 CALLDATASIZE DUP4 CALLDATACOPY POP SWAP2 SWAP3 SWAP2 POP POP JUMP JUMPDEST PUSH1 0x40 MLOAD DUP1 PUSH2 0x960 ADD PUSH1 0x40 MSTORE DUP1 PUSH1 0x4B SWAP1 JUMPDEST PUSH1 0x40 DUP1 MLOAD DUP1 DUP3 ADD SWAP1 SWAP2 MSTORE PUSH0 DUP1 DUP3 MSTORE PUSH1 0x20 DUP3 ADD MSTORE DUP2 MSTORE PUSH1 0x20 ADD SWAP1 PUSH1 0x1 SWAP1 SUB SWAP1 DUP2 PUSH2 0x4D10 JUMPI SWAP1 POP POP SWAP1 JUMP JUMPDEST PUSH1 0x40 MLOAD DUP1 PUSH2 0x120 ADD PUSH1 0x40 MSTORE DUP1 PUSH1 0x9 SWAP1 PUSH1 0x20 DUP3 MUL DUP1 CALLDATASIZE DUP4 CALLDATACOPY POP SWAP2 SWAP3 SWAP2 POP POP JUMP JUMPDEST PUSH1 0x40 MLOAD DUP1 PUSH2 0x380 ADD PUSH1 0x40 MSTORE DUP1 PUSH1 0x1C SWAP1 PUSH1 0x20 DUP3 MUL DUP1 CALLDATASIZE DUP4 CALLDATACOPY POP SWAP2 SWAP3 SWAP2 POP POP JUMP JUMPDEST PUSH1 0x40 MLOAD DUP1 PUSH1 0xE0 ADD PUSH1 0x40 MSTORE DUP1 PUSH2 0x4D8A PUSH2 0x4EDE JUMP JUMPDEST DUP2 MSTORE PUSH1 0x20 ADD PUSH0 DUP2 MSTORE PUSH1 0x20 ADD PUSH0 DUP2 MSTORE PUSH1 0x20 ADD PUSH0 DUP2 MSTORE PUSH1 0x20 ADD PUSH0 DUP2 MSTORE PUSH1 0x20 ADD PUSH2 0x4DAF PUSH2 0x4EDE JUMP JUMPDEST DUP2 MSTORE PUSH1 0x20 ADD PUSH0 DUP2 MSTORE POP SWAP1 JUMP JUMPDEST PUSH1 0x40 MLOAD DUP1 PUSH2 0x200 ADD PUSH1 0x40 MSTORE DUP1 PUSH1 0x10 SWAP1 PUSH1 0x20 DUP3 MUL DUP1 CALLDATASIZE DUP4 CALLDATACOPY POP SWAP2 SWAP3 SWAP2 POP POP JUMP JUMPDEST PUSH1 0x40 MLOAD DUP1 PUSH1 0x60 ADD PUSH1 0x40 MSTORE DUP1 PUSH1 0x3 SWAP1 JUMPDEST PUSH2 0x4E10 PUSH1 0x40 MLOAD DUP1 PUSH1 0x80 ADD PUSH1 0x40 MSTORE DUP1 PUSH0 DUP2 MSTORE PUSH1 0x20 ADD PUSH0 DUP2 MSTORE PUSH1 0x20 ADD PUSH0 DUP2 MSTORE PUSH1 0x20 ADD PUSH0 DUP2 MSTORE POP SWAP1 JUMP JUMPDEST DUP2 MSTORE PUSH1 0x20 ADD SWAP1 PUSH1 0x1 SWAP1 SUB SWAP1 DUP2 PUSH2 0x4DE9 JUMPI SWAP1 POP POP SWAP1 JUMP JUMPDEST PUSH1 0x40 MLOAD DUP1 PUSH2 0x380 ADD PUSH1 0x40 MSTORE DUP1 PUSH1 0x1C SWAP1 JUMPDEST PUSH2 0x4E3E PUSH2 0x4D39 JUMP JUMPDEST DUP2 MSTORE PUSH1 0x20 ADD SWAP1 PUSH1 0x1 SWAP1 SUB SWAP1 DUP2 PUSH2 0x4E36 JUMPI SWAP1 POP POP SWAP1 JUMP JUMPDEST PUSH1 0x40 MLOAD DUP1 PUSH2 0x520 ADD PUSH1 0x40 MSTORE DUP1 PUSH1 0x29 SWAP1 PUSH1 0x20 DUP3 MUL DUP1 CALLDATASIZE DUP4 CALLDATACOPY POP SWAP2 SWAP3 SWAP2 POP POP JUMP JUMPDEST PUSH1 0x40 MLOAD DUP1 PUSH2 0x360 ADD PUSH1 0x40 MSTORE DUP1 PUSH1 0x1B SWAP1 JUMPDEST PUSH2 0x4EAA PUSH1 0x40 MLOAD DUP1 PUSH1 0x80 ADD PUSH1 0x40 MSTORE DUP1 PUSH0 DUP2 MSTORE PUSH1 0x20 ADD PUSH0 DUP2 MSTORE PUSH1 0x20 ADD PUSH0 DUP2 MSTORE PUSH1 0x20 ADD PUSH0 DUP2 MSTORE POP SWAP1 JUMP JUMPDEST DUP2 MSTORE PUSH1 0x20 ADD SWAP1 PUSH1 0x1 SWAP1 SUB SWAP1 DUP2 PUSH2 0x4E83 JUMPI SWAP1 POP POP SWAP1 JUMP JUMPDEST PUSH1 0x40 MLOAD DUP1 PUSH1 0x80 ADD PUSH1 0x40 MSTORE DUP1 PUSH1 0x4 SWAP1 PUSH1 0x20 DUP3 MUL DUP1 CALLDATASIZE DUP4 CALLDATACOPY POP SWAP2 SWAP3 SWAP2 POP POP JUMP JUMPDEST PUSH1 0x40 MLOAD DUP1 PUSH2 0x2000 ADD PUSH1 0x40 MSTORE DUP1 PUSH2 0x100 SWAP1 PUSH1 0x20 DUP3 MUL DUP1 CALLDATASIZE DUP4 CALLDATACOPY POP SWAP2 SWAP3 SWAP2 POP POP JUMP JUMPDEST PUSH0 PUSH0 PUSH0 PUSH0 PUSH1 0x40 DUP6 DUP8 SUB SLT ISZERO PUSH2 0x4F11 JUMPI PUSH0 PUSH0 REVERT JUMPDEST DUP5 CALLDATALOAD PUSH8 0xFFFFFFFFFFFFFFFF DUP2 GT ISZERO PUSH2 0x4F27 JUMPI PUSH0 PUSH0 REVERT JUMPDEST DUP6 ADD PUSH1 0x1F DUP2 ADD DUP8 SGT PUSH2 0x4F37 JUMPI PUSH0 PUSH0 REVERT JUMPDEST DUP1 CALLDATALOAD PUSH8 0xFFFFFFFFFFFFFFFF DUP2 GT ISZERO PUSH2 0x4F4D JUMPI PUSH0 PUSH0 REVERT JUMPDEST DUP8 PUSH1 0x20 DUP3 DUP5 ADD ADD GT ISZERO PUSH2 0x4F5E JUMPI PUSH0 PUSH0 REVERT JUMPDEST PUSH1 0x20 SWAP2 DUP3 ADD SWAP6 POP SWAP4 POP DUP6 ADD CALLDATALOAD PUSH8 0xFFFFFFFFFFFFFFFF DUP2 GT ISZERO PUSH2 0x4F7E JUMPI PUSH0 PUSH0 REVERT JUMPDEST DUP6 ADD PUSH1 0x1F DUP2 ADD DUP8 SGT PUSH2 0x4F8E JUMPI PUSH0 PUSH0 REVERT JUMPDEST DUP1 CALLDATALOAD PUSH8 0xFFFFFFFFFFFFFFFF DUP2 GT ISZERO PUSH2 0x4FA4 JUMPI PUSH0 PUSH0 REVERT JUMPDEST DUP8 PUSH1 0x20 DUP3 PUSH1 0x5 SHL DUP5 ADD ADD GT ISZERO PUSH2 0x4FB8 JUMPI PUSH0 PUSH0 REVERT JUMPDEST SWAP5 SWAP8 SWAP4 SWAP7 POP PUSH1 0x20 ADD SWAP5 POP POP POP JUMP JUMPDEST PUSH4 0x4E487B71 PUSH1 0xE0 SHL PUSH0 MSTORE PUSH1 0x11 PUSH1 0x4 MSTORE PUSH1 0x24 PUSH0 REVERT JUMPDEST DUP1 DUP3 MUL DUP2 ISZERO DUP3 DUP3 DIV DUP5 EQ OR PUSH2 0x1FAD JUMPI PUSH2 0x1FAD PUSH2 0x4FC6 JUMP JUMPDEST DUP2 DUP2 SUB DUP2 DUP2 GT ISZERO PUSH2 0x1FAD JUMPI PUSH2 0x1FAD PUSH2 0x4FC6 JUMP JUMPDEST DUP1 PUSH0 JUMPDEST PUSH1 0x10 DUP2 LT ISZERO PUSH2 0x5026 JUMPI DUP2 MLOAD DUP5 MSTORE PUSH1 0x20 SWAP4 DUP5 ADD SWAP4 SWAP1 SWAP2 ADD SWAP1 PUSH1 0x1 ADD PUSH2 0x5007 JUMP JUMPDEST POP POP POP POP JUMP JUMPDEST DUP1 MLOAD DUP3 MSTORE PUSH1 0x20 DUP2 ADD MLOAD PUSH1 0x20 DUP4 ADD MSTORE PUSH1 0x40 DUP2 ADD MLOAD PUSH1 0x40 DUP4 ADD MSTORE PUSH1 0x60 DUP2 ADD MLOAD PUSH1 0x60 DUP4 ADD MSTORE POP POP JUMP JUMPDEST DUP1 PUSH0 JUMPDEST PUSH1 0x3 DUP2 LT ISZERO PUSH2 0x5026 JUMPI PUSH2 0x5069 DUP5 DUP4 MLOAD PUSH2 0x502C JUMP JUMPDEST PUSH1 0x80 SWAP4 SWAP1 SWAP4 ADD SWAP3 PUSH1 0x20 SWAP2 SWAP1 SWAP2 ADD SWAP1 PUSH1 0x1 ADD PUSH2 0x5055 JUMP JUMPDEST DUP1 PUSH0 JUMPDEST PUSH1 0x1C DUP2 LT ISZERO PUSH2 0x5026 JUMPI DUP2 MLOAD DUP5 PUSH0 JUMPDEST PUSH1 0x9 DUP2 LT ISZERO PUSH2 0x50AF JUMPI DUP3 MLOAD DUP3 MSTORE PUSH1 0x20 SWAP3 DUP4 ADD SWAP3 SWAP1 SWAP2 ADD SWAP1 PUSH1 0x1 ADD PUSH2 0x5090 JUMP JUMPDEST POP POP POP PUSH2 0x120 SWAP4 SWAP1 SWAP4 ADD SWAP3 PUSH1 0x20 SWAP2 SWAP1 SWAP2 ADD SWAP1 PUSH1 0x1 ADD PUSH2 0x5082 JUMP JUMPDEST DUP1 PUSH0 JUMPDEST PUSH1 0x29 DUP2 LT ISZERO PUSH2 0x5026 JUMPI DUP2 MLOAD DUP5 MSTORE PUSH1 0x20 SWAP4 DUP5 ADD SWAP4 SWAP1 SWAP2 ADD SWAP1 PUSH1 0x1 ADD PUSH2 0x50CC JUMP JUMPDEST DUP1 PUSH0 JUMPDEST PUSH1 0x1B DUP2 LT ISZERO PUSH2 0x5026 JUMPI PUSH2 0x5102 DUP5 DUP4 MLOAD PUSH2 0x502C JUMP JUMPDEST PUSH1 0x80 SWAP4 SWAP1 SWAP4 ADD SWAP3 PUSH1 0x20 SWAP2 SWAP1 SWAP2 ADD SWAP1 PUSH1 0x1 ADD PUSH2 0x50EE JUMP JUMPDEST DUP1 PUSH0 JUMPDEST PUSH1 0x1C DUP2 LT ISZERO PUSH2 0x5026 JUMPI DUP2 MLOAD DUP5 MSTORE PUSH1 0x20 SWAP4 DUP5 ADD SWAP4 SWAP1 SWAP2 ADD SWAP1 PUSH1 0x1 ADD PUSH2 0x511B JUMP JUMPDEST DUP1 PUSH0 JUMPDEST PUSH1 0x4 DUP2 LT ISZERO PUSH2 0x5026 JUMPI DUP2 MLOAD DUP5 MSTORE PUSH1 0x20 SWAP4 DUP5 ADD SWAP4 SWAP1 SWAP2 ADD SWAP1 PUSH1 0x1 ADD PUSH2 0x513D JUMP JUMPDEST DUP2 DUP4 MSTORE PUSH0 PUSH1 0x1 PUSH1 0x1 PUSH1 0xFB SHL SUB DUP4 GT ISZERO PUSH2 0x5173 JUMPI PUSH0 PUSH0 REVERT JUMPDEST DUP3 PUSH1 0x5 SHL DUP1 DUP4 PUSH1 0x20 DUP8 ADD CALLDATACOPY SWAP4 SWAP1 SWAP4 ADD PUSH1 0x20 ADD SWAP4 SWAP3 POP POP POP JUMP JUMPDEST PUSH2 0x5197 DUP2 DUP9 MLOAD PUSH2 0x5004 JUMP JUMPDEST PUSH0 PUSH1 0x20 DUP9 ADD MLOAD PUSH2 0x51AB PUSH2 0x200 DUP5 ADD DUP3 PUSH2 0x502C JUMP JUMPDEST POP PUSH1 0x40 DUP9 ADD MLOAD PUSH2 0x51BF PUSH2 0x280 DUP5 ADD DUP3 PUSH2 0x502C JUMP JUMPDEST POP PUSH1 0x60 DUP9 ADD MLOAD PUSH2 0x51D3 PUSH2 0x300 DUP5 ADD DUP3 PUSH2 0x502C JUMP JUMPDEST POP PUSH1 0x80 DUP9 ADD MLOAD PUSH2 0x51E7 PUSH2 0x380 DUP5 ADD DUP3 PUSH2 0x502C JUMP JUMPDEST POP PUSH1 0xA0 DUP9 ADD MLOAD PUSH2 0x51FB PUSH2 0x400 DUP5 ADD DUP3 PUSH2 0x502C JUMP JUMPDEST POP PUSH1 0xC0 DUP9 ADD MLOAD PUSH2 0x520F PUSH2 0x480 DUP5 ADD DUP3 PUSH2 0x502C JUMP JUMPDEST POP PUSH1 0xE0 DUP9 ADD MLOAD PUSH2 0x5223 PUSH2 0x500 DUP5 ADD DUP3 PUSH2 0x502C JUMP JUMPDEST POP PUSH2 0x100 DUP9 ADD MLOAD PUSH2 0x5238 PUSH2 0x580 DUP5 ADD DUP3 PUSH2 0x502C JUMP JUMPDEST POP PUSH2 0x120 DUP9 ADD MLOAD PUSH2 0x524D PUSH2 0x600 DUP5 ADD DUP3 PUSH2 0x5052 JUMP JUMPDEST POP PUSH2 0x140 DUP9 ADD MLOAD PUSH2 0x780 DUP4 ADD MSTORE PUSH2 0x160 DUP9 ADD MLOAD PUSH2 0x526E PUSH2 0x7A0 DUP5 ADD DUP3 PUSH2 0x507F JUMP JUMPDEST POP PUSH2 0x180 DUP9 ADD MLOAD PUSH2 0x5283 PUSH2 0x2720 DUP5 ADD DUP3 PUSH2 0x50C9 JUMP JUMPDEST POP PUSH2 0x1A0 DUP9 ADD MLOAD PUSH2 0x2C40 DUP4 ADD MSTORE PUSH2 0x1C0 DUP9 ADD MLOAD PUSH2 0x52A4 PUSH2 0x2C60 DUP5 ADD DUP3 PUSH2 0x502C JUMP JUMPDEST POP PUSH2 0x1E0 DUP9 ADD MLOAD PUSH2 0x2CE0 DUP4 ADD MSTORE PUSH2 0x200 DUP9 ADD MLOAD PUSH2 0x52C5 PUSH2 0x2D00 DUP5 ADD DUP3 PUSH2 0x50EB JUMP JUMPDEST POP PUSH2 0x220 DUP9 ADD MLOAD PUSH2 0x52DA PUSH2 0x3A80 DUP5 ADD DUP3 PUSH2 0x5118 JUMP JUMPDEST POP PUSH2 0x240 DUP9 ADD MLOAD PUSH2 0x52EF PUSH2 0x3E00 DUP5 ADD DUP3 PUSH2 0x513A JUMP JUMPDEST POP PUSH2 0x260 DUP9 ADD MLOAD PUSH2 0x5304 PUSH2 0x3E80 DUP5 ADD DUP3 PUSH2 0x502C JUMP JUMPDEST POP PUSH2 0x280 DUP9 ADD MLOAD PUSH2 0x5319 PUSH2 0x3F00 DUP5 ADD DUP3 PUSH2 0x502C JUMP JUMPDEST POP PUSH2 0x4000 PUSH2 0x3F80 DUP4 ADD MSTORE PUSH2 0x5332 PUSH2 0x4000 DUP4 ADD DUP8 DUP10 PUSH2 0x515C JUMP JUMPDEST PUSH2 0x3FA0 DUP4 ADD SWAP6 SWAP1 SWAP6 MSTORE POP PUSH2 0x3FC0 DUP2 ADD SWAP3 SWAP1 SWAP3 MSTORE PUSH2 0x3FE0 SWAP1 SWAP2 ADD MSTORE SWAP4 SWAP3 POP POP POP JUMP JUMPDEST PUSH4 0x4E487B71 PUSH1 0xE0 SHL PUSH0 MSTORE PUSH1 0x41 PUSH1 0x4 MSTORE PUSH1 0x24 PUSH0 REVERT JUMPDEST PUSH1 0x40 MLOAD PUSH2 0x140 DUP2 ADD PUSH8 0xFFFFFFFFFFFFFFFF DUP2 GT DUP3 DUP3 LT OR ISZERO PUSH2 0x538B JUMPI PUSH2 0x538B PUSH2 0x5353 JUMP JUMPDEST PUSH1 0x40 MSTORE SWAP1 JUMP JUMPDEST PUSH1 0x40 MLOAD PUSH1 0x1F DUP3 ADD PUSH1 0x1F NOT AND DUP2 ADD PUSH8 0xFFFFFFFFFFFFFFFF DUP2 GT DUP3 DUP3 LT OR ISZERO PUSH2 0x53BA JUMPI PUSH2 0x53BA PUSH2 0x5353 JUMP JUMPDEST PUSH1 0x40 MSTORE SWAP2 SWAP1 POP JUMP JUMPDEST PUSH0 PUSH1 0xC0 DUP3 DUP5 SUB SLT ISZERO PUSH2 0x53D2 JUMPI PUSH0 PUSH0 REVERT JUMPDEST PUSH1 0x40 MLOAD PUSH1 0xC0 DUP2 ADD PUSH8 0xFFFFFFFFFFFFFFFF DUP2 GT DUP3 DUP3 LT OR ISZERO PUSH2 0x53F5 JUMPI PUSH2 0x53F5 PUSH2 0x5353 JUMP JUMPDEST PUSH1 0x40 SWAP1 DUP2 MSTORE DUP4 MLOAD DUP3 MSTORE PUSH1 0x20 DUP1 DUP6 ADD MLOAD SWAP1 DUP4 ADD MSTORE DUP4 DUP2 ADD MLOAD SWAP1 DUP3 ADD MSTORE PUSH1 0x60 DUP1 DUP5 ADD MLOAD SWAP1 DUP3 ADD MSTORE PUSH1 0x80 DUP1 DUP5 ADD MLOAD SWAP1 DUP3 ADD MSTORE PUSH1 0xA0 SWAP3 DUP4 ADD MLOAD SWAP3 DUP2 ADD SWAP3 SWAP1 SWAP3 MSTORE POP SWAP2 SWAP1 POP JUMP JUMPDEST PUSH0 DUP3 PUSH1 0x1F DUP4 ADD SLT PUSH2 0x5446 JUMPI PUSH0 PUSH0 REVERT JUMPDEST PUSH0 PUSH2 0x360 PUSH2 0x5453 DUP2 PUSH2 0x5391 JUMP JUMPDEST SWAP2 POP DUP4 ADD DUP2 DUP6 DUP3 GT ISZERO PUSH2 0x5464 JUMPI PUSH0 PUSH0 REVERT JUMPDEST DUP5 JUMPDEST DUP3 DUP2 LT ISZERO PUSH2 0x547E JUMPI DUP1 MLOAD DUP3 MSTORE PUSH1 0x20 SWAP2 DUP3 ADD SWAP2 ADD PUSH2 0x5466 JUMP JUMPDEST POP SWAP2 SWAP6 SWAP5 POP POP POP POP POP JUMP JUMPDEST PUSH0 DUP3 PUSH1 0x1F DUP4 ADD SLT PUSH2 0x5498 JUMPI PUSH0 PUSH0 REVERT JUMPDEST PUSH0 PUSH2 0x380 PUSH2 0x5453 DUP2 PUSH2 0x5391 JUMP JUMPDEST PUSH0 PUSH2 0xBE0 DUP3 DUP5 SUB SLT DUP1 ISZERO PUSH2 0x54B7 JUMPI PUSH0 PUSH0 REVERT JUMPDEST POP PUSH2 0x54C0 PUSH2 0x5367 JUMP JUMPDEST PUSH2 0x54CA DUP5 DUP5 PUSH2 0x53C2 JUMP JUMPDEST DUP2 MSTORE PUSH2 0x54D9 DUP5 PUSH1 0xC0 DUP6 ADD PUSH2 0x5437 JUMP JUMPDEST PUSH1 0x20 DUP3 ADD MSTORE PUSH2 0x54EC DUP5 PUSH2 0x420 DUP6 ADD PUSH2 0x5489 JUMP JUMPDEST PUSH1 0x40 DUP3 ADD MSTORE PUSH2 0x7A0 DUP4 ADD MLOAD PUSH1 0x60 DUP3 ADD MSTORE PUSH2 0x550A DUP5 PUSH2 0x7C0 DUP6 ADD PUSH2 0x5489 JUMP JUMPDEST PUSH1 0x80 DUP3 ADD MSTORE PUSH2 0xB40 DUP4 ADD MLOAD PUSH1 0xA0 DUP3 ADD MSTORE PUSH2 0xB60 DUP4 ADD MLOAD PUSH1 0xC0 DUP3 ADD MSTORE PUSH2 0xB80 DUP4 ADD MLOAD PUSH1 0xE0 DUP3 ADD MSTORE PUSH2 0xBA0 DUP4 ADD MLOAD PUSH2 0x100 DUP3 ADD MSTORE PUSH2 0xBC0 SWAP1 SWAP3 ADD MLOAD PUSH2 0x120 DUP4 ADD MSTORE POP SWAP2 SWAP1 POP JUMP JUMPDEST DUP1 DUP3 ADD DUP1 DUP3 GT ISZERO PUSH2 0x1FAD JUMPI PUSH2 0x1FAD PUSH2 0x4FC6 JUMP JUMPDEST PUSH0 PUSH0 DUP6 DUP6 GT ISZERO PUSH2 0x5570 JUMPI PUSH0 PUSH0 REVERT JUMPDEST DUP4 DUP7 GT ISZERO PUSH2 0x557C JUMPI PUSH0 PUSH0 REVERT JUMPDEST POP POP DUP3 ADD SWAP4 SWAP2 SWAP1 SWAP3 SUB SWAP2 POP JUMP JUMPDEST PUSH4 0x4E487B71 PUSH1 0xE0 SHL PUSH0 MSTORE PUSH1 0x32 PUSH1 0x4 MSTORE PUSH1 0x24 PUSH0 REVERT JUMPDEST PUSH0 PUSH1 0x1 DUP3 ADD PUSH2 0x55AE JUMPI PUSH2 0x55AE PUSH2 0x4FC6 JUMP JUMPDEST POP PUSH1 0x1 ADD SWAP1 JUMP JUMPDEST DUP1 CALLDATALOAD PUSH1 0x20 DUP4 LT ISZERO PUSH2 0x1FAD JUMPI PUSH0 NOT PUSH1 0x20 DUP5 SWAP1 SUB PUSH1 0x3 SHL SHL AND SWAP3 SWAP2 POP POP JUMP JUMPDEST PUSH0 DUP3 PUSH2 0x55EC JUMPI PUSH4 0x4E487B71 PUSH1 0xE0 SHL PUSH0 MSTORE PUSH1 0x12 PUSH1 0x4 MSTORE PUSH1 0x24 PUSH0 REVERT JUMPDEST POP MOD SWAP1 JUMP JUMPDEST PUSH0 DUP2 PUSH2 0x55FF JUMPI PUSH2 0x55FF PUSH2 0x4FC6 JUMP JUMPDEST POP PUSH0 NOT ADD SWAP1 JUMP JUMPDEST PUSH0 DUP3 MLOAD DUP1 PUSH1 0x20 DUP6 ADD DUP5 MCOPY PUSH0 SWAP3 ADD SWAP2 DUP3 MSTORE POP SWAP2 SWAP1 POP JUMP JUMPDEST PUSH0 PUSH1 0x20 DUP3 DUP5 SUB SLT ISZERO PUSH2 0x562C JUMPI PUSH0 PUSH0 REVERT JUMPDEST DUP2 MLOAD DUP1 ISZERO ISZERO DUP2 EQ PUSH2 0x1E7D JUMPI PUSH0 PUSH0 REVERT JUMPDEST PUSH4 0x4E487B71 PUSH1 0xE0 SHL PUSH0 MSTORE PUSH1 0x21 PUSH1 0x4 MSTORE PUSH1 0x24 PUSH0 REVERT INVALID ADDRESS PUSH5 0x4E72E131A0 0x29 0xB8 POP GASLIMIT 0xB6 DUP2 DUP2 PC TSTORE 0x28 CALLER 0xE8 BASEFEE PUSH26 0xB9709143E1F593F0000001A2646970667358221220A18939F362 0xAA LOG0 0x24 JUMPF 0x446B 0xA9 DUPN 0xC8 0xD5 SMOD 0xCD 0xC OR SLT PUSH16 0x5969016070C60190877B5A64736F6C63 NUMBER STOP ADDMOD 0x1E STOP CALLER "
		},
		"gasEstimates": {
			"creation": {
				"codeDepositCost": "4436200",
				"executionCost": "infinite",
				"totalCost": "infinite"
			},
			"external": {
				"verify(bytes,bytes32[])": "infinite"
			},
			"internal": {
				"loadVerificationKey()": "infinite"
			}
		},
		"methodIdentifiers": {
			"verify(bytes,bytes32[])": "ea50d0e4"
		}
	},
	"abi": [
		{
			"inputs": [],
			"name": "ConsistencyCheckFailed",
			"type": "error"
		},
		{
			"inputs": [],
			"name": "GeminiChallengeInSubgroup",
			"type": "error"
		},
		{
			"inputs": [],
			"name": "ProofLengthWrong",
			"type": "error"
		},
		{
			"inputs": [],
			"name": "PublicInputsLengthWrong",
			"type": "error"
		},
		{
			"inputs": [],
			"name": "ShpleminiFailed",
			"type": "error"
		},
		{
			"inputs": [],
			"name": "SumcheckFailed",
			"type": "error"
		},
		{
			"inputs": [
				{
					"internalType": "bytes",
					"name": "proof",
					"type": "bytes"
				},
				{
					"internalType": "bytes32[]",
					"name": "publicInputs",
					"type": "bytes32[]"
				}
			],
			"name": "verify",
			"outputs": [
				{
					"internalType": "bool",
					"name": "verified",
					"type": "bool"
				}
			],
			"stateMutability": "view",
			"type": "function"
		}
	]
}